:020000040800F2
:10000000987300203DCF0008F3C60008F7C600082B
:1000100000000000000000000000000000000000E0
:10002000000000000000000000000000CDC2000839
:1000300000000000000000008FC200089D4800087A
:10004000533C0008E33C00080F48000857570008DD
:100050007F6D00088F7D00083F7E000889C700087B
:100060004F7E0008E1090008637E0008FBC6000817
:10007000EB8D000805C70008079F000897B400082B
:1000800073B5000821C7000877B5000827B7000836
:100090002D560008375600084BBB000877C40008EF
:1000A0003BC90008FFCB000831CC000823560008EC
:1000B0002BC700087FC70008EDD00008F0B585B059
:1000C0009627FF00049700240394774D039A049920
:1000D000280001F055FC02970194744D019A029991
:1000E000280001F04DFC40260094714D009A31002B
:1000F000280001F045FC6F4D3900280001F086FC16
:1001000020006D49087000F0BEF800F0AEF800F075
:1001100050F832212800143001F008FD00F0DEFB19
:100120000525664F22002900380001F029FC6448AB
:1001300001F0E4FD002801D002F01EFB05B0F0BD87
:10014000F0B585B09627FF00049700240394564D20
:10015000039A0499280001F013FC02970194534D6F
:10016000019A0299280001F00BFC40260094504DA2
:10017000009A3100280001F003FC4E4D39002800A0
:1001800001F044FC20004C49087000F07CF800F0BD
:100190006CF800F00EF832212800143001F0C6FC93
:1001A0000525464F22002900380001F0E9FB05B083
:1001B000F0BD10B4012043490200CA7000221300B0
:1001C0000B7313004B73130021240B5513002224CF
:1001D0000B551300CB7313000B7413004B741300F7
:1001E0008B741300CB7413008B7113004B751300C9
:1001F0008B7513000B7013004B7013008B70130082
:100200000B7113004B718A6013008B732E4913001E
:100210000B7013004B7013008B701300CB70130026
:100220000B7113004B7113008B711300CB71130012
:100230000B7213004B7213008B721300CB721300FE
:100240000B7313004B7313008B731300CB731300EA
:100250000B7413004B7413008B741300CB741300D6
:100260000B7548758A7510BC70470020174902004D
:10027000CA718863486488650522CA65086688660D
:10028000C8660867704710B50A4C0122104911482A
:1002900002F0E1FA402160544020205C002802D1A5
:1002A00001200949087110BD642F0020F44100208D
:1002B000C467002040670020876B0020E06A0020B0
:1002C00018660020C0680020FC6800203C63002005
:1002D000B0630020A8620020F1B59AB00025280084
:1002E00069460871B14C6078002800D0F1E272B61E
:1002F000AF4E3000143001F080FCF06362B6F06B5A
:10030000002800D15FE2F06B007C012800D05AE2A7
:10031000F06B0078002800D155E2022800D149E1B5
:10032000032800D170E1042839D0052830D00628F0
:1003300000D161E10A2800D183E10C2800D195E0C9
:100340000D2800D1FEE10E2857D0142800D1BCE1C1
:10035000152800D1D4E1162800D156E11B2824D05D
:100360001C2831D01D2844D01E2862D01F2800D15F
:1003700023E2202800D1B0E0212800D1CEE02228BD
:1003800000D1F1E0232809D0242800D1BCE11AE2F1
:100390000120B449C8732800A07514E213E20120BB
:1003A000B049C8733920A0750DE20120AD49C8736A
:1003B000ADA1AE4803F02EFC002802D03020A0757D
:1003C00001E03120A075FEE10120A649C873A74EC7
:1003D000A5A1300003F01EFC002804D1300003F07A
:1003E00031FC002802D10220A07501E03220A07566
:1003F000E9E101209B49C873E5E19D4E9D4930002C
:1004000003F028FC300003F01DFC80B201F052FA2A
:100410006946087168460079002805D00120914995
:10042000C8730F20A07503E0934805670120E074AE
:10043000C9E1CD4E8E4FB2689049380003F00AFCF6
:10044000380003F0FFFB80B201F034FA694608710E
:1004500068460079002805D001208249C8730F2022
:10046000A07502E035670120E074ACE101F0F0F91D
:10047000BD4E70690078542806D1736E7269804948
:100480007B4803F0E7FB12E070690078552805D13E
:10049000726E7C49764803F0DDFB08E070690078F5
:1004A0004D2804D1726E7849714803F0D3FB70482F
:1004B00003F0C8FB80B201F0FDF969460871684697
:1004C0000079002805D001206649C8730F20A07567
:1004D00002E035670120E07475E1A34E644F736E4E
:1004E000B2686A49380003F0B5FB380003F0AAFB94
:1004F00080B201F0DFF9694608716846007900288A
:1005000005D001205749C8730F20A07505E0356755
:1005100001200100E1745349087654E1924E04AA87
:10052000318D706A01F0EFF9514F04AB326ACE4958
:10053000380003F08FFB380003F084FB80B201F039
:10054000B9F96946087168460079002805D001208C
:100550004449C8730F20A07505E0356701200100EC
:10056000E174404988762EE17F4E414F736A326ACA
:10057000D349380003F06EFB380003F063FB80B210
:1005800001F098F96946087168460079002805D09D
:1005900001203449C8730F20A07505E0356701209C
:1005A0000100E1742F4908770DE100BFFC680020CD
:1005B000406700206C48C179491CC1712900E17471
:1005C0000567C179042905DB01202649C873042089
:1005D000A075F8E0F16B89890170F06B8089411C8E
:1005E000F26B918101210A00C64B80B21A541D485A
:1005F000C1732800A075E6E01A480121C1733321B8
:10060000A17529000175DEE0FEE701F021F9184E21
:10061000B149300003F01EFB300003F013FB80B241
:1006200001F048F96946087168460079002804D04D
:1006300001200C49C8730F20A075012009490870DA
:10064000C1E001F005F9AC480078012820D1464806
:10065000018E0091436E8268AB49054803F0FAFAB7
:100660001CE000BFC068002022220000C4670020F8
:100670001C3B002030CE00083C630020ECCE00087C
:1006800084CA000864CB000888CB0008C8CC0008E6
:100690003548028E9D49B64803F0DCFA9C4F01268E
:1006A00030003870B24803F0CDFA80B201F002F9A0
:1006B0006946087168460079002805D0C748C673A6
:1006C0000F20A075280038707DE001F0C1F8264F9A
:1006D000388E0390F86A0290A54E0096039A02990C
:1006E000009803F0F1FA00980D20398E7054388E7E
:1006F00001F0E0F8694608710120B849887562E0A8
:100700000120B649C8745EE001F0A2F8984F9B48FA
:10071000006800909A4BB28E9A49380003F09AFA1A
:10072000380003F08FFA80B201F0C4F8694608710E
:1007300068460079002801D12800A0750120A7494A
:10074000887740E06F48F16B0989405C002833D01E
:10075000F06B8089401EF16B888101F079F8844F3D
:10076000B28EA24902E000BF3C630020380003F0D3
:1007700071FA380003F066FA80B201F09BF869461E
:10078000087168460079002817D12800A075611CFF
:10079000012002000A70F26B1289A24B5A718F4A33
:1007A00003009373507028000870280060722800BE
:1007B000A0722800207200E005E001208749C8737C
:1007C0003820A075FFE7E07901280FD19E48017815
:1007D000002904D00421934A9163290001709148B3
:1007E000806BC0B203F0F4FDE57172E0E07A01289D
:1007F00007D17A48C078012803D103F051FEE57291
:1008000067E0A07B012831D1904E864F3B6D3A6D59
:100810003100B87803F04EFF386D042810D28C49AF
:10082000012008703078D030487070788870B078C7
:10083000C870002300228748006804F052F908E0DD
:100840009620C00002900095009A0299300001F0B5
:1008500097F801220821804804F07DFBFD643D6586
:1008600000F04CF8A57334E044CE0008E07B01288A
:1008700018D1764F6B4E336D326D3900092003F07D
:1008800019FF9620C00002900095009A0299380046
:1008900001F076F8F564356500F030F82800E07373
:1008A000657016E0607C01280CD15E48154982799C
:1008B000895C002902D0807900F09AFF657408E015
:1008C000ACCB0008207C012803D1644803F0FEFE75
:1008D00025741BB0F0BD0000FCCE00083F4800218D
:1008E00081600121817070473C48002181608170E6
:1008F0000121212281547047816B0020012037495A
:10090000C8707047E06A002034CC0008ACCD000805
:10091000D568002038B5314CA078002804D0E078A4
:10092000012801D100F080F84D4DA87C012808D1A4
:100930004C4801F07FF8002803D00020A874FFF78E
:10094000A2FCE87C002812D0364801007031026F0A
:10095000521C0A60006F444A904208D3002008608D
:100960000100E9740F21A9750121E173687031BD9F
:100970001C3B002001213D4A11707047686A00202D
:1009800000000020E4CC0008F1B5354D384F0020C0
:100990003870FFF7A9FF72B6364E324C3100200096
:1009A00001F064F862B6FFF799FF200001F036F815
:1009B000002802D00120A8740FE0E87800280CD1AC
:1009C000012231002C4801F046FF402160544020B4
:1009D000205C002801D101203870F1BDC0680020E2
:1009E00080B52548C06F04F06FFC01BDC4CD000880
:1009F00000B50100214801600268002A05D0204AA4
:100A0000D27B012A01D000BFF6E71D48C27B002A35
:100A100002D10122124B9A750022C2731048807DC8
:100A200000BD00003C63002010B572B6A84C0D4814
:100A300001F03BF8E06162B6E069002802D0E069AD
:100A400000F020F810BD0000886B0020642F00200B
:100A5000006B0020AC6A00200004005040630020BE
:100A6000FC68002040670020C1D40100E26800203B
:100A700000690020B0630020A8620020E86A00201E
:100A8000C0680020F1B586B00025290006980078DE
:100A90006A4610728F48CB4E6A46127A0368F25447
:100AA0000268521C026000683018801E00780D2811
:100AB00001D000F0B1FC874800683018401E007873
:100AC0000A2801D000F0A8FCBF4C2078002801D0F3
:100AD00000F0A2FC7F4800683018001F00784F2803
:100AE00000D089E27B4800683018C01E00784B288F
:100AF00000D081E2774800683018801E00780D2809
:100B000000D079E2734800683018401E00780A2847
:100B100000D071E27049300003F07CF86F4F38600C
:100B2000002830D06E483968097A01700078312881
:100B300009D10120A54902003723CA5404222823E1
:100B4000CA543822885472B6A04C2100283183B090
:100B50006846142203F09EF80EBC2000143001F009
:100B600007F862B62000283001F08AF8594805607D
:100B70009624E40000953700009A2100380000F028
:100B8000FFFE00F049FC5749300003F043F838609D
:100B9000002847D038685449086051483968C97BF3
:100BA00001703968097C417001780D2903D1FF205B
:100BB0004749C87009E041780D2906D13968C97BD9
:100BC00001700078D0304249C87001207F4F010089
:100BD0003722B95402212822B95401002175382145
:100BE000785472B63900283183B06846142203F075
:100BF00051F80EBC3800143000F0BAFF62B638006D
:100C0000283001F03DF828006070324805609624D5
:100C1000E40000953700009A2100380000F0B0FE93
:100C200000F0FAFB3149300002F0F4FF3860002890
:100C30002DD0284805609620C00004900395370009
:100C4000039A0499380000F09BFE72B65F4F39009A
:100C5000283183B06846142203F01CF80EBC38001B
:100C6000143000F085FF62B63800283001F008F833
:100C700028006070174805609620C00000902C0086
:100C8000370022000099380000F07AFEC4E3D6490C
:100C9000300002F0BFFF386000285ED03868801D49
:100CA0003860D248290001700178142923DA3968A4
:100CB00009780D291CD039680978CD4A0378D154B8
:100CC0003968491C39600178491C0170ECE700BFA4
:100CD0003C630020046B002058D000080C6B0020FF
:100CE000506A00200CCF0008086B002000D00008DC
:100CF000BF4900780D5401203349C8750025BD480F
:100D000005609627FF00049703952E4E3400039A42
:100D10000499200000F034FE72B62C4C21002831DA
:100D200083B06846142202F0B5FF0EBC20001430D8
:100D300000F01EFF62B62000283000F0A1FF28005E
:100D400021494870AB48056000972C00370022000D
:100D50000099380000F014FE5EE3607D012829D17F
:100D6000280060750120194C01003722A15427008A
:100D70002837142139703821605472B62100283187
:100D800083B06846142202F085FF0EBC20001430A8
:100D900000F0EEFE62B6380000F072FF9548056084
:100DA0009624E40000953700009A2100380000F0F6
:100DB000E7FD31E3A07D012830D12800A075012096
:100DC000024C05E0A4460020C068002040670020D7
:100DD00001003722A1542700283715213970382106
:100DE000605472B62100283183B06846142202F0A4
:100DF00051FF0EBC2000143000F0BAFE62B638007D
:100E000000F03EFF7B4805609624E4000095370023
:100E1000009A2100380000F0B3FDFDE2A07F012818
:100E20002BD12800A07701200100E177DE4C0100E2
:100E30003722A15427002837052139703821605402
:100E400072B62100283183B06846142202F022FFD6
:100E50000EBC2000143000F08BFE62B6380000F0AB
:100E60000FFF644805609624E40000953700009A5F
:100E70002100380000F084FDCEE2207E01282BD135
:100E800028002076012001006176C74C010037223E
:100E9000A15427002837052139703821605472B6D3
:100EA0002100283183B06846142202F0F3FE0EBC04
:100EB0002000143000F05CFE62B6380000F0E0FE66
:100EC0004C4805609624E40000953700009A210004
:100ED000380000F055FD9FE2A07E01282BD12800AC
:100EE000A07601200100E176AF4C01003722A15429
:100EF00027002837052139703821605472B6210047
:100F0000283183B06846142202F0C4FE0EBC2000D3
:100F1000143000F02DFE62B6380000F0B1FE354806
:100F200005609624E40000953700009A21003800FF
:100F300000F026FD70E2207F01282BD128002077C9
:100F4000012001006177984C01003722A15427004D
:100F50002837052139703821605472B621002831B4
:100F600083B06846142202F095FE0EBC20001430B7
:100F700000F0FEFD62B6380000F082FE1D480560FC
:100F80009624E40000953700009A2100380000F014
:100F9000F7FC41E20120844F01003722B9540521BA
:100FA0002822B9543821785472B63900283183B0D8
:100FB0006846142202F06EFE0EBC3800143000F0B9
:100FC000D7FD62B63800283000F05AFE2800607065
:100FD000084805609624E40000953700009A210037
:100FE000380000F0CDFC17E260D000088B6B0020C9
:100FF00010000020046B0020A349300002F00AFE1C
:10100000A24F3860002832D0A1480188491C0180D5
:10101000002208219F4803F09EFF0120624F01003B
:101020003722B95416212822B9543821785472B67F
:101030003900283183B06846142202F02BFE0EBC22
:101040003800143000F094FD62B63800283000F00B
:1010500017FE28006070CD4805609624E4000095D6
:101060003700009A2100380000F08AFCD4E1C8491A
:10107000300002F0CFFD386000282ED04A4F01200A
:1010800037217854052028217854012038217854BC
:1010900072B63900283183B06846142202F0FAFD96
:1010A0000EBC3800143000F063FD62B63800283002
:1010B00000F0E6FD0120E0710120B649087028002B
:1010C0006070B24805609624E40000953700009AED
:1010D0002100380000F054FC9EE1AF49300002F0DE
:1010E00099FD3860002829D001202F4F01003722B8
:1010F000B95405212822B9543821785472B63900E0
:10110000283183B06846142202F0C4FD0EBC3800BA
:10111000143000F02DFD62B63800283000F0B0FD2C
:1011200028006070994805609624E4000095370017
:10113000009A2100380000F023FC6DE1974930004F
:1011400002F068FD3860002863D09549300002F055
:1011500061FD3860002802D03720DA498875DA4905
:10116000300002F057FD3860002802D03620D54903
:101170008875D649300002F04DFD3860002802D055
:101180003620D0498875D2A1300002F043FD386086
:10119000D049300002F03EFD3860002802D03720F0
:1011A000C8498875CC4901E040670020300002F052
:1011B00031FD3860002802D03420C24988750120F2
:1011C000C64F01003722B95405212822B9543821CD
:1011D000785472B63900283183B06846142202F080
:1011E00059FD0EBC3800143000F0C2FC62B6380065
:1011F000283000F045FD28006070644805609624A2
:10120000E40000953700009A2100380000F0B8FB98
:1012100002E1D449300002F0FDFC386000283BD0E8
:101220003868D1490860D1483968097AD0310170ED
:101230000078A0710120A94F01003722B954232161
:101240002822B9543821785472B63900283183B035
:101250006846142202F01EFD0EBC3800143000F067
:1012600087FC62B63800283000F00AFD2800607064
:10127000464805609624E40000953700009A210056
:10128000380000F07DFBC7E00CD000080C6B00209C
:10129000766B002000040050B549300002F0BAFC23
:1012A0003860002800D0B7E0B249300002F0B2FC4C
:1012B0003860002800D0AFE0AF49300002F0AAFC4F
:1012C0003860002800D0A7E0AC49300002F0A2FC52
:1012D0003860002829D00120804F01003722B954FE
:1012E00005212822B9543821785472B639002831A2
:1012F00083B06846142202F0CDFC0EBC38001430D6
:1013000000F036FC62B63800283000F0B9FC280046
:1013100060701E4805609624E40000953700009A2E
:101320002100380000F02CFB76E0CD49300002F0BF
:1013300071FC3860002835D00120684F0100372249
:10134000B95405212822B9543821785472B639008D
:10135000283183B06846142202F09CFC0EBC380091
:10136000143000F005FC62B63800283000F088FC2C
:1013700028006070054805609624E4000095370059
:10138000009A2100380000F0FBFA45E0046B0020D1
:1013900068D00008806B002070D0000818D00008CA
:1013A00078D00008AF49300002F034FC38600028E3
:1013B00032D1BD49300002F02DFC386000282BD01E
:1013C000464F0120372178540520282178540120E8
:1013D0003821785472B63900283183B06846142217
:1013E00002F058FC0EBC3800143000F0C1FB62B6AD
:1013F0003800283000F044FC2800607001202021D3
:101400006054CD4805609624E40000953700009AAA
:101410002100380000F0B4FAC8480078012800D054
:101420001BE1C54800683018001F00784F2800D025
:1014300013E1C14800683018C01E00784B2800D066
:101440000BE1BD4800683018801E00780D2800D0E0
:1014500003E1B94800683018401E00780A2800D01F
:10146000FBE0CA49300002F0D5FBB54C20600028F3
:1014700000D1D1E0B3480188491C018017480121FF
:10148000372281540121382281543749206808606D
:1014900036482268527B0270BD4A23689B7B1370DA
:1014A000BC4B2768FF7B1F7027683F7CC77047785D
:1014B0000D2F15D12268527B02700A68D21D0A6076
:1014C0002AE000BFFC68002080D0000888D0000817
:1014D0003230000090D0000898D00008406700200B
:1014E00087780D2F09D123685B7B037023689B7B72
:1014F00013700A6808320A600EE0C7780D2F0BD10E
:1015000027687F7B07702768BF7B17702268D27BB4
:101510001A700A6809320A6041780D2904D10078EE
:101520003038AC4948643DE081780D2909D1017813
:101530000A22514340780818A7494018A549486431
:1015400030E0C1780D291BD10178642251434278E3
:101550000A235A43891880780818A44940189D49DD
:1015600048641FE0A0D00008086B0020506A0020EB
:10157000A8D0000824D0000830D000081CCF0008F4
:101580000178FA2292005143427864235A43891821
:1015900082780A235A438918C0780818A34940184A
:1015A0008C494864A94F8B48406CF862894845646F
:1015B00061480068F96A083188422DD3F86A8021B1
:1015C000C900884202D20120A64988736F493000C1
:1015D00002F020FB2060206810302060F86A7D490E
:1015E000C8647C48C06C0190206800909E4879498E
:1015F000096D4418019A0099200002F065FB012052
:1016000001003722B954382178547248006D71496D
:10161000C96C40186F49086572B68C4C210028319E
:1016200083B06846142202F035FB0EBC2000143053
:1016300000F09EFA62B62000283000F021FB3F4FF8
:10164000280078703C4805609624E4000095009AD4
:101650002100300000F094F93D7007B0F0BD0000AB
:10166000B0D00008B8D00008F7B506000D00594802
:1016700005860299C162C670744C270028370A207B
:10168000387072B62100283183B06846142202F007
:1016900001FB0EBC2000143000F06AFA62B638007C
:1016A00000F0EEFAF7BD00002CCF0008FEB582B0C6
:1016B00006000D0000F0BCF84648866045660399B8
:1016C00041616946097CC170604C270028370C20B5
:1016D000387072B62100283183B06846142202F0B7
:1016E000D9FA0EBC2000143000F042FA62B638007D
:1016F00000F0C6FA05B0F0BDFEB506000D0000F022
:1017000097F8344886604566504C270028372020DB
:10171000387072B62100283183B06846142202F076
:10172000B9FA0EBC2000143000F022FA62B638007C
:1017300000F0A6FAF7BD0000046B0020C06800208E
:101740000C6B0020746B0020F7B506000D0000F054
:101750006FF82048066245626946098901853B4C5D
:10176000270028372120387072B62100283183B035
:101770006846142202F08EFA0EBC2000143000F0ED
:10178000F7F962B6380000F07BFAF7BD3CD00008EC
:10179000516A0020526A00207CB5050000F048F82C
:1017A0000C48C570294C260028360E20307072B6C1
:1017B0002100283183B06846142202F06BFA0EBC77
:1017C0002000143000F0D4F962B6300000F058FA6E
:1017D00073BD00003C630020F0FDFFFF604800780F
:1017E000704700205E4908707047000030EBFFFF33
:1017F0007CB5050000F01CF8144C260028360D209E
:1018000030702800C0B2A08672B62100283183B0A3
:101810006846142202F03EFA0EBC2000143000F09C
:10182000A7F962B6300000F02BFA73BDB02FFFFFAE
:1018300000B54C480178012905D04178012904D12F
:10184000807B012801D000BFF3E700BD4067002086
:1018500070B5454C0025454E2A002100300000F0AF
:101860008FF870BDFC680020642F0020FEB582B0A8
:1018700006000D00FFF7DCFF3848866045666946C4
:10188000097CC1703A4C270028372420387072B682
:101890002100283183B06846142202F0FBF90EBC07
:1018A0002000143000F064F962B6380000F0E8F966
:1018B00005B0F0BD70B50600002425002948007968
:1018C000002802D10520050013E001202949C87035
:1018D000300080B2002802D12120050009E032004A
:1018E00092B22249244800F0F4FF002801D01120D0
:1018F00005002048C4700079002801D1FEF7C3FC20
:101900002800C0B270BDF0B5002423001D000E00F9
:10191000ADB2B6B2B5421AD2184D1E00B6B2865D4F
:101920003611AE5DB4461E00B6B202277743664656
:10193000D6551E00B6B2865D3607360FAD5D1E0069
:10194000B6B202277743D61975705B1CDEE70B0031
:101950009BB202255D435455F0BD00003C6300205E
:10196000E0680020C0680020D60600001C3B002074
:1019700040670020FC680020A862002058CE0008C4
:101980001206130A1A43130C1A4300BF094205D06A
:10199000830705D00270401C491EF9D17047000032
:1019A0001300103906D330B41400150010393CC0B0
:1019B000FCD230BC490700D30CC000D504C089005C
:1019C00002D30280801C002900D50270704730B518
:1019D00001684118446862088A188368E40704D5DE
:1019E0004C461B1901E0641C09D1914203D00C78CC
:1019F00064B2491C01E00C3030BD0D78491C1D70EB
:101A00005B1C002CEFD4641EF7D5EEE7816000224A
:101A10000260C2604260414A0261704700B5010045
:101A20008A68CB6810006438834201DB012000E043
:101A3000002000BD00B50100C868652801DA01205A
:101A400000E0002000BD00B501008A68C86890422F
:101A500001D1012000E0002000BD00B50100C868F0
:101A6000002801D1012000E0002000BDF8B50400ED
:101A70000D002000FFF7E7FF002815D1E068401CAB
:101A8000E06060680126009521690F183200009916
:101A9000380002F019F96068401C6060A068616855
:101AA000814201DB00216160F1BDF8B584B0040022
:101AB0001B4D01952000FFF7D0FF002801D000202A
:101AC00028E09627FF0000260296029A3900280097
:101AD000FFF756FF1348007A00281AD12068012525
:101AE0000395216908180290019F039A0299380012
:101AF00002F0EAF82068401C2060E068401EE060C8
:101B000009488565A068009020680099884200DB3C
:101B10002660019805B0F0BD00000000544B002085
:101B2000F4410020FC6800203C63002014221300D4
:101B30004B43836000230360C36043604E4B0361EB
:101B4000704770B50400A568E6682800142103F00A
:101B5000ACFC864201D1012000E0002070BD00B540
:101B60000100C868002801D1012000E0002000BD6C
:101B70000EB418B504002000FFF7E3FF002837D1AA
:101B80006068142103F091FC2169142242438918F2
:101B9000049A4A60216914224243891803AA927B5D
:101BA0008A73216914224243891803AAD27BCA731B
:101BB000216914224243891803AA12890A816946BD
:101BC000097B226914234343D154216914224243DF
:101BD000891803AA127C0A74E168491CE1606168F3
:101BE00014316160A16862688A4201DB0022626090
:101BF00001B0019810BC04B0004710B504002000EB
:101C0000FFF7ADFF002801D0002034E02068142148
:101C100003F04BFC02001948216914235343C918EF
:101C200049684160216914235343C918897B817332
:101C3000216914235343C918C97BC1732169142333
:101C40005343C91809890181216914235343C95C8D
:101C50000170216914235343C918097C0174216858
:101C600014312160E168491EE160A16823688B425C
:101C700001DB0023236010BD645800205069002060
:101C8000002141600A0082730A000270C1730521BD
:101C9000018101210174704710B50400002C01D1AD
:101CA00001202AE03D20205C002805D100203C21B5
:101CB0006054200003F0C4FC02203D216054211D2B
:101CC000206800F0ABF90120482160543E216054A7
:101CD0003F216054402160544121605442216054AE
:101CE000432160544421605445216054462160548E
:101CF000472160543D216054002010BD10B5010003
:101D00003D20085C012801D0012030E002203D2365
:101D1000C85401200B68DB6803430C68E3600B6860
:101D2000134CA3420CD00B688024E405A34207D0D7
:101D30000B68104CA34203D00B680F4CA34210D188
:101D40000B689B680D4C1C402200062A0ED0802395
:101D50005B029A420AD00B681B6818430B68186034
:101D600004E00B681B6818430B681860002010BD66
:101D7000002C014000040040004001400700010029
:101D8000F8B504002068C068009020680769022543
:101D90002F421BD000982840002817D00220C043B3
:101DA0002168086101202077206880698007800F02
:101DB000002803D0200003F0C7FC05E0200003F05A
:101DC000C4FC200003F0C2FC002020770426374228
:101DD0001BD000983040002817D00420C043216851
:101DE0000861257720688069C021890001400029A9
:101DF00003D0200003F0A8FC05E0200003F0A5FCC0
:101E0000200003F0A3FC0020207708252F421AD0E1
:101E100000982840002816D00820C0432168086197
:101E200026772068C0698007800F002803D0200033
:101E300003F08AFC05E0200003F087FC200003F09B
:101E400085FC00202077102007421BD00099084015
:101E5000002817D01020C04321680861257720682A
:101E6000C069C02189000140002903D0200003F08F
:101E70006BFC05E0200003F068FC200003F066FC2A
:101E800000202077012007420AD00099084000284E
:101E900006D00120C04321680861200000F035FC15
:101EA000822080013840002808D00098000605D51F
:101EB000164821680861200003F049FCF80508D5A0
:101EC0000098000605D5124821680861200003F03B
:101ED0003FFC402007420AD000990840002806D065
:101EE0004020C04321680861200003F032FC20201C
:101EF00007420AD000990840002806D02020C0439D
:101F000021680861200003F025FCF1BD7FDFFFFFA1
:101F1000FFFEFFFFFEB504000D00002768460770B6
:101F20003C20205C012801D1022072E001263C20E7
:101F3000265402203D2160542068806835490140C4
:101F40003548084001900198216888602868002879
:101F500052D0102850D020284ED030284CD04028C5
:101F600040D050282AD0602832D0702809D0802153
:101F70004901884204D080218901884210D040E084
:101F800041E0EB686A68A968206800F0D0F8206832
:101F9000806877210143019101982168886032E0CF
:101FA000EB686A68A968206800F0C1F8206880685A
:101FB0008021C90101432068816024E0EA686968E2
:101FC000206800F085F85021206800F0A7F81AE09A
:101FD000EA686968206800F08DF86021206800F0E8
:101FE0009DF810E0EA686968206800F071F8402107
:101FF000206800F093F806E02968206800F08EF869
:1020000001E0684606703D2026543C20275468466F
:102010000078FEBD88FFCEFFFF00FFFF10B502680D
:10202000244CA04206D08023DB05984202D0224BEC
:10203000984204D170239A4313004A681A43A0427D
:1020400012D08023DB0598420ED01B4B98420BD058
:102050001A4B984208D01A4B984205D0194B984217
:1020600002D01A4B984203D1174B1340CA681A4347
:1020700080239A434B69134303608A68C2620A68EB
:102080008262A04208D00E4A904205D00D4A90428A
:1020900002D00E4A904201D10A69026301224261D4
:1020A00004692240002A03D002690124A24302618C
:1020B00010BD0000002C0140000400400020004042
:1020C0000040014000440140FFFCFFFF0048014088
:1020D00030B4056A036A0124A34303628369F024D0
:1020E000A34314011C430A239D430D4384610562ED
:1020F00030BC704730B4056A036A1024A3430362FE
:102100008369124C1C4013032343A024A5430C01F4
:102110002C438361046230BC7047000082680A4B24
:1021200013400B4307221A4382607047000030B40B
:102130008468074D25400D4315431C022C438460E1
:1021400030BC7047000000008FFFCFFFFF0FFFFF84
:10215000FF00FFFF30B403680C004C4303256C43C1
:10216000A3430C004C4354431C43046030BC7047F1
:1021700030B4C3680C004C4303256C43A3430C00EC
:102180004C4354431C43C46030BC70478162704769
:1021900070B40322C44B14000C4004256C431C593A
:1021A00007250E00360CB540AC430D002D0C060083
:1021B000AE4026430A40042462439E5070BC7047E0
:1021C00081B0BA490A6802430A6009680140009177
:1021D000009901B0704710B503F0BEFA00F08DF819
:1021E00000F004FA00F0DCF900F028F900F072F9D0
:1021F00000F0C2F800F0E7F800F0B0F9D048FFF7BF
:102200007DFD002801D000F0B7FA8B4C0022202180
:10221000200002F0A0FE00221021200002F09BFE10
:1022200000220821200002F096FEFA20800003F030
:10223000B5FA01222021200002F08DFE012210219A
:10224000200002F088FE01220821200002F083FE17
:10225000FA20400003F0A2FA00200100944A117015
:102260009449087002F02BFB934A1421012002F0DC
:10227000DEFB92490860924A1421012002F0D7FB4C
:1022800090490860904A0421012002F0D0FB8F4958
:1022900008608F4A0121012002F0C9FBA9490860AA
:1022A000A94A0121012002F0C2FBA8490860A84AFE
:1022B0000421012002F0BBFBA6490860A64A0021C8
:1022C000B34802F02FFBB3490860B34A0021B3487A
:1022D00002F028FBBC490860BC4A0021BC4802F05F
:1022E00021FBBC490860BC4A0021BC4802F01AFB33
:1022F000BB49086002F0F6FAFEE738B592B0382123
:102300000024220004AD2800FFF73AFB1021220030
:102310006D462800FFF734FB8020800003F054FA5C
:1023200002250495802040000790089440200990E1
:102330000B950C950D9408200E90802080020F9034
:10234000C020C004109080208005119004A803F0E4
:102350006FFA002801D000F00FFA072000900195D5
:10236000029403940221684603F0CCFC002801D0BB
:1023700000F002FA13B030BD10B59A4C9A482060B4
:10238000D24860600020A0600121E16020616061AE
:10239000A061E0612062200003F022FE002801D04D
:1023A00000F0EAF90021200004F03AFA002801D0F8
:1023B00000F0E2F90021200004F065FA002801D0C5
:1023C00000F0DAF910BD30B587B0102100242200EA
:1023D00003AD2800FFF7D4FA0C2122006D46280037
:1023E000FFF7CEFA564DBA4828606C60AC60D4480E
:1023F000E8602C616C61AC612800FFF74DFC00289F
:1024000001D000F0B9F980204001039003A9280011
:10241000FFF780FD002801D000F0AEF90094019490
:1024200002946946280004F063FA002801D000F005
:10243000A3F907B030BD00000004005010B5C14C36
:10244000C1482060E120400260600020A060E060A0
:1024500020610C216161A061E0612062606208205E
:10246000A06280200002A063200000F08DF9002807
:1024700001D000F081F90021200004F0A2FA002828
:1024800001D000F079F90021200004F0C5FA0028FD
:1024900001D000F071F9200004F070FA002801D09A
:1024A00000F06AF910BD00006018024034100240CC
:1024B000816B0020826B00201CCD0008A46A0020E4
:1024C00034CD0008A86A00204CCD0008AC6A00207A
:1024D00064CD000810B59D4C9D482060E12040026D
:1024E00060600020A060E06020610C216161A0615B
:1024F000E061206260620820A06280200002A06388
:10250000200000F041F9002801D000F035F9002149
:10251000200004F056FA002801D000F02DF9002127
:10252000200004F079FA002801D000F025F92000FD
:1025300004F024FA002801D000F01EF910BD0000BC
:10254000CC650020B06A00207CCD0008B46A002071
:1025500094CD0008B86A0020D4CA000880B57D4830
:102560007D490160E1218902416000218160C160F3
:1025700001610C2242618161C1610162416281623B
:1025800000F002F9002801D000F0F6F801BD0000CB
:10259000D5260008946A0020F8CA0008E126000841
:1025A00080B501206D490A6802430A600968084045
:1025B00000900098002203210B2004F0FDFA0B206C
:1025C00004F004FB01BD0000986A00201CCB000849
:1025D000EF2600089C6A002040CB0008FD2600087A
:1025E000A06A00202865002000580040F0B589B09E
:1025F0000C210024220006AD2800FFF7C1F91821A4
:1026000022006D462800FFF7BBF90120FFF7D8FD37
:102610000220FFF7D5FD80273F023900A020C0052A
:10262000FFF7B4FD4E4E08213000FFF7AFFD10213B
:102630003000FFF7ABFD20213000FFF7A7FD49492F
:102640000020FFF7A5FD80200690012506A829009F
:102650000172210041722900817206A804F014FB66
:1026600000228021A020C005FFF782FD00228021EA
:10267000A020C005FFF76EFD00970195029403941A
:1026800004946946A020C00504F0D7FB0820009000
:1026900001950294039404946946300004F0CDFB44
:1026A0001020009001950294039404946946300030
:1026B00004F0C3FB2020009001950294039404943D
:1026C0006946300004F0B9FB09B0F0BD6621C100D5
:1026D000002C014010B50400012002F097F9FBE73F
:1026E00010B5040004F0E6FB04F01CFC10BD10B5AE
:1026F000040004F09EFE04F0A1FEFCE710B5040007
:1027000005F05AF805F090F9FCE710B504002068D0
:102710001549884201D105F0C9F92068134988425A
:102720000DD113480168491C016012480168002955
:1027300002D00168491E01602000FDF7CDFD10BDEB
:10274000FFF90000EC6000200038014080610020AB
:102750000044004014620020004C00403810024049
:10276000000400500100180000100040004001402B
:10277000E46A0020E86A002000B572B6FEE702684D
:10278000531C03601170704710B50400002C01D178
:10279000012037E0A0690028FFD1882020580028B8
:1027A00005D1002084216054200005F0DAF92420AE
:1027B00088216050206800680121884321680860F2
:1027C000A06A002802D0200000F05AFC200000F08F
:1027D000ABFA012801D1012014E0206840680A49C1
:1027E000014020684160206880682A218843216870
:1027F0008860206800680121014320680160200092
:1028000000F0B2FC10BD0000FFB7FFFF38B50400B8
:10281000002C01D101201DE0242088216050206877
:102820000068012188432168086000252068056050
:102830002068456020688560200005F051FA9020EE
:102840002550882025508C202550E566256784205A
:102850002554002032BD70B504000D0016008C20F8
:102860002058202833D1002D03D0300080B200281A
:1028700001D101202CE0A06880214901884207D1C4
:102880002069002804D12800C00701D501201FE0DD
:102890000020E06620683D49884211D020684068E9
:1028A00000020DD5EFF31080012181F3108821681B
:1028B00009688022D2040A4321680A6080F31088E4
:1028C000320092B22900200000F014FD00E0022046
:1028D00070BD70B504000E00150088202058202817
:1028E00052D1002E03D0280080B2002801D101204F
:1028F0004BE0A06880214901884207D12069002867
:1029000004D13000C00701D501203EE026655420E7
:1029100025525620255200209021605021218822E6
:10292000A150E16F00291DD01949E26FD162194908
:10293000E26F11631849E26F5163E16F88632B0006
:102940009BB2206802002832216DE06F02F0CCFBC0
:10295000002807D01020902160502020882160504E
:10296000012012E0402021680862EFF3108001216D
:1029700081F310882168896880220A4321688A606F
:1029800080F31088002000E0022070BD008000402D
:1029900001350008533500087D350008FEB50400F8
:1029A0002068C769206805682068806800909A4898
:1029B00038400290029800280FD1202007420CD006
:1029C0002840002802D10098C00006D5606F00287A
:1029D00002D02000616F88479DE10298002800D155
:1029E000A9E08E4800990140002904D18C49294072
:1029F000002900D19FE03900C90709D5E90507D5AD
:102A00000121226811629022A25811439022A15004
:102A100002210F420AD0009AD20707D5226811621C
:102A20009022A258042313439022A3500422174259
:102A300009D0009BDB0706D523681A629022A258B2
:102A400011439022A15008210F420CD0AA0603D4B2
:102A5000009A1040002806D020680162902020587B
:102A600001439020215080200001074209D06901D4
:102A700007D521680862902020582021014390202A
:102A8000215090202058002854D0202007420BD0FD
:102A90002840002802D10098C00005D5606F0028AA
:102AA00002D02000616F8847902020580190402676
:102AB000206880683040002804D101982821014016
:102AC000002931D0200000F0E7FC20688068064033
:102AD000002E25D0EFF31080012181F310882168AA
:102AE0008968402291432268916080F31088802099
:102AF0002058002810D088488021615888638020A1
:102B0000205802F093FB002814D080202058802108
:102B10006158896B88470DE0200005F033F909E022
:102B2000200005F02FF905E0200005F02BF900202A
:102B300090216050EFE0E06E012800D0B4E010205A
:102B4000074200D1B0E0054200D1ADE02168086243
:102B500020688068400665D5802020580068466857
:102B6000300080B2002856D030005C21615A80B21B
:102B7000884250D25E202652202080216158096868
:102B80000968014000293BD1EFF31081012282F353
:102B9000108822681268614B13402268136081F329
:102BA0001088EFF31081012282F310882268926866
:102BB00001239A4323689A6081F31088EFF3108110
:102BC000012282F310882268926840239A43236886
:102BD0009A6081F310888C2160500020E066EFF34A
:102BE0001080012181F31088216809681022914327
:102BF0002268116080F310888020205802F0D0FAFB
:102C0000022020675C20205A5E21615A411A89B255
:102C1000200005F0B8F87EE00F0800000100001069
:102C2000200100045C20205A5E21615A461A5E2071
:102C3000205A002837D0300080B2002833D0EFF37C
:102C40001080012181F3108821680968344A0A4004
:102C500021680A6080F31088EFF31080012181F36E
:102C60001088216889682F4A0A4021688A6080F3A9
:102C7000108820208C2160500020E0666067EFF310
:102C80001080012181F31088216809681022914386
:102C90002268116080F3108802202067310089B219
:102CA000200005F070F836E080204003074208D08D
:102CB0000099490205D521680862200005F064F8F2
:102CC00029E0802007420CD02840002802D100983B
:102CD000000206D5A06F002802D02000A16F88470F
:102CE00019E04020074206D02840002803D02000E9
:102CF00000F079FC0FE0380205D5680003D520000C
:102D000005F043F807E0F80105D5002D03D52000B4
:102D100005F03CF8FFE7F7BDCF350008FFFEFFFFE9
:102D2000DFFEFFFFFEFFFFEFF8B584B006000027CF
:102D3000380069460870AE4831688142FFD0B268F9
:102D40003169114372690A43F169114332681268AB
:102D5000A84B13400B433268136032685268A64B8D
:102D60001340F2681A4333685A60B26903923268BA
:102D7000824203D00399326A0A4303923168896818
:102D80009E4A0A4003991143326891603168C96ACA
:102D90000F229143726A0A433168CA623168B34AAA
:102DA000914215D1B24909688907890F002905D0D8
:102DB000022905D006D3032906D007E03C0050E0E5
:102DC00002244EE004244CE008244AE0102448E0A9
:102DD0003168A84A914216D1A54909680C220A40D7
:102DE000002A06D0042A08D0082A04D00C2A06D0CB
:102DF00007E03C0035E0022433E0042431E00824FD
:102E00002FE010242DE031689B4A914201D13C0013
:102E100027E03168994A914201D13C0021E03168B4
:102E200081421DD192490968C02212010A40002A3C
:102E30000CD08021C9008A420CD0802109018A422D
:102E400006D0C02109018A4206D007E03C0008E014
:102E5000022406E0042404E0082402E0102400E038
:102E600010243168814264D12000C0B2002806D00D
:102E7000022808D0042808D008280AD00CE003F063
:102E800067F805000CE0B64D0AE003F001F8050014
:102E900006E080252D0203E03D0001206946087010
:102EA000002D00D1D6E02800AE49726A02235A43B1
:102EB000895A02F0FAFA029002987168032251438B
:102EC000884206D3706880214901484302998842AC
:102ED00003D2012069460870BCE02800A149726A4B
:102EE00002235A43895A02F0E0FA0021802252005C
:102EF000002304F04DFF02000B0070684008002121
:102F0000801859417268002304F05BFF019001981A
:102F1000C0218900884208D3019880214903884252
:102F200003D201983168C86094E0012069460870B6
:102F300090E080252D02F069A84247D12000C0B260
:102F4000002806D0022808D0042808D008280AD073
:102F50000AE002F0FDFF05000AE0814D08E002F002
:102F600097FF050004E003E03D000120694608707A
:102F7000002D6FD028007B49726A02235A43895A78
:102F800002F093FA022148437168490840187168B9
:102F900002F08BFA01900198102813D30198802138
:102FA000490288420ED20199A24808400199490875
:102FB0004907490F014368464180684640883168A7
:102FC000C86047E001206946087043E02000C0B2B5
:102FD000002806D0022808D0042811D0082813D0D1
:102FE00013E002F0B5FF050013E05D4D11E000BFF6
:102FF00000800040F369FFCFFFCFFFFFFFF4FF1118
:1030000002F046FF050004E003E03D0001206946B0
:103010000870002D1ED028005249726A02235A43BC
:10302000895A02F042FA716849084018716802F042
:103030003CFA01900198102809D301988021490297
:10304000884204D2019880B23168C86002E0012051
:103050006946087001206A217052682170527767B2
:10306000B7676846007805B0F0BD00BF0038014082
:10307000541002400044004000480040004C004012
:1030800000B52821415C090707D5016849686A4AEB
:103090000A40816B1143026851602821415CC907D5
:1030A00007D501684968654A0A40C16A1143026848
:1030B00051602821415C890707D501684968604A49
:1030C0000A40016B1143026851602821415C4907A5
:1030D00007D5016849685B4A0A40416B11430268A1
:1030E00051602821415CC90607D501688968564AA4
:1030F0000A40C16B1143026891602821415C890636
:1031000007D501688968514A0A40016C1143026879
:1031100091602821415C490614D5016849684C4AF0
:103120000A40416C114302685160416C8022520395
:10313000914207D101684968464A0A40816C1143AF
:10314000026851602821415C090607D50168496879
:10315000BF4A0A40C16C11430268516000BD0000C3
:103160000024F400DCCD00087CB50500002490208C
:103170002C5004F065FE06002868006800071ED584
:10318000B44800903300002280218903280000F019
:1031900063F8002813D0EFF31080012181F3108829
:1031A00029680968802291432A68116080F3108899
:1031B00020208821685084202C54032039E028687E
:1031C000006840072BD5A3480090330000228021DF
:1031D000C903280000F040F8002820D0EFF3108049
:1031E000012181F31088296809689B4A0A402968EF
:1031F0000A6080F31088EFF31080012181F31088BA
:1032000029688968012291432A68916080F31088B7
:1032100020208C21685084202C54032009E0202099
:10322000882168508C216850EC662C6784202C54CF
:10323000002076BDF0FF0000FF7FFFFFFFFFFDFFD6
:10324000FFFFFEFFFFFFFBFFFFEFFFFFFFDFFFFFC3
:10325000FFFFEFFFFFFF9FFFFEB504000F00089D7B
:103260002068C0693840B84201D1012000E0002048
:103270006946097988423BD10020C0438542EFD09E
:1032800004F0DEFD0299401A854201D3002D01D1E0
:1032900003202EE0206800684007E1D5802FDFD0B2
:1032A000402FDDD008262068C069304000280BD0B0
:1032B00020680662200000F0EFF8902026500020E1
:1032C00084216054012014E0802000012168C96934
:1032D00001400029C4D021680862200000F0DCF819
:1032E000202090216050002084216054032000E0C1
:1032F0000020FEBD70B5030099655C201A525E2067
:103300001A5200205867802464019D68A5420AD1A2
:103310001D69002D03D1794D60269D5324E0FF25C2
:1033200060269D5320E09D68002D0AD11D69002D67
:1033300003D1FF2560269D5316E07F2560269D530F
:1033400012E09D6880267605B5420AD11D69002DE0
:1033500003D17F2560269D5306E03F2560269D53BF
:1033600002E0050060269D539025585122208C25AF
:103370005851EFF31080012585F310881D68AD6862
:1033800001262E431D68AE6080F31088586E80259C
:10339000AD05A84230D1100068255D5B80B2A8421F
:1033A0002AD39868A04205D11869002802D16C4838
:1033B000586701E06B485867186900280DD0EFF393
:1033C0001080012484F310881C68246880256D0017
:1033D00025431C68256080F31088EFF310800124DA
:1033E00084F310881C68A46880256D0525431C683B
:1033F000A56080F3108829E09868A04205D118697B
:10340000002802D15848586701E0584858671869A1
:1034100000280ED0EFF31080012484F310881C687C
:10342000246890256D0025431C68256080F3108872
:103430000CE0EFF31080012484F310881C682468EA
:10344000202525431C68256080F31088002070BD6E
:10345000FFFFF7FFFFFFFF01DFFEFFFFEFF310812C
:10346000012282F3108802681268C0239A4303681D
:103470001A6081F31088EFF31081012282F3108823
:10348000026892683A4B13400268936081F3108897
:10349000202188228150704700B5EFF3108101226E
:1034A00082F3108802681268324B1340026813607E
:1034B00081F31088EFF31081012282F310880268F3
:1034C00092682D4B13400268936081F31088C16E9F
:1034D00001290CD1EFF31081012282F310880268D8
:1034E000126810239A4303681A6081F31088202120
:1034F0008C2281500021C166416700BDFF010000A0
:1035000038B50400A56A2068006880061DD4002034
:1035100056216852EFF31080012181F31088296849
:103520008968802291432A68916080F31088EFF3C4
:103530001080012181F310882968096840220A431C
:1035400029680A6080F3108802E0280002F0CFF8B2
:1035500031BD38B50400A56A280004F077FC31BD00
:10356000013A00080D3800080D370008173600082A
:10357000FFFF7FFFDFFEFFFFFEFFFFEFF8B5040058
:10358000A56A88202F588C202E582868806800064D
:1035900007D5212F05D10020562168522800FFF7BA
:1035A0005DFF28688068400607D5222E05D10020DF
:1035B0005E2168522800FFF76FFF902028581021E5
:1035C000014390202950280004F0DCFBF1BD38B500
:1035D0000400A56A00205E21685256216852280026
:1035E00004F0D0FB31BD10B50400EFF310800121D1
:1035F00081F3108821680968402291432268116094
:1036000080F310882020882160500020A0672000CF
:1036100002F06DF810BD70B504006020255A8C20B2
:10362000205822286BD12068406A0600300029000B
:103630000140A06D0170A06D401CA0655E20205A65
:10364000401E5E2160525E20205A00285DD1EFF3BB
:103650001080012181F3108821680968694A0A40B5
:1036600021680A6080F31088EFF31080012181F354
:10367000108821688968012291432268916080F353
:10368000108820208C21605000206067206721680E
:103690005D4A914210D02168496809020CD5EFF3C8
:1036A0001081012282F3108822681268D34B1340E4
:1036B0002268136081F31088E16E01291BD1E06656
:1036C000EFF31080012181F310882168096810222E
:1036D00091432268116080F3108810202168C96925
:1036E0000140002901D0216808625C20215A200095
:1036F00004F049FB09E0200002F003F805E020682F
:103700008069082101432068816170BDF8B504001B
:103710006020255A8C20205822286BD12068406ACE
:103720000600A06D0700280030403880A06D801C86
:10373000A0655E20205A401E5E2160525E20205A05
:1037400000285DD1EFF31080012181F310882168FA
:1037500009682C4A0A4021680A6080F31088EFF358
:103760001080012181F3108821688968012291432A
:103770002268916080F3108820208C216050002006
:10378000606720672168204A914210D0216849680B
:1037900009020CD5EFF31081012282F31088226810
:1037A0001268964B13402268136081F31088E16E13
:1037B00001291BD1E066EFF31080012181F310880D
:1037C00021680968102291432268116080F31088F3
:1037D00010202168C9690140002901D021680862D0
:1037E0005C20215A200004F0CEFA09E0200001F00C
:1037F00088FF05E020688069082101432068816115
:10380000F1BD0000DFFEFFFF00800040FEB50400B8
:103810006020205A6946C8802068C569206807680A
:103820002068806802908C202058222800D0DEE09A
:103830006820205A6946488068464088002800D1A0
:10384000AAE02026354200D1A6E02068406A6946F9
:103850008880684680886946C9880140A06D0170EB
:10386000A06D401CA0655E20205A401E5E21605263
:103870002068C06905006807400F002831D0280083
:10388000C00709D5F80507D50120216808629021F5
:103890006158084390216050022005420AD00299E5
:1038A000C90707D5216808629021615804220A439C
:1038B0009021625004210D4209D0029AD20706D508
:1038C0002268116290216158084390216050902035
:1038D0002058002805D0200004F054FA0020902140
:1038E00060505E20205A0028A6D1EFF310800121FD
:1038F00081F3108821680968BF4A0A4021680A607C
:1039000080F31088EFF31080012181F31088216883
:103910008968BA4A0A4021688A6080F310888C203E
:1039200026500020606720672168B54A914210D078
:103930002168496809020CD5EFF31081012282F356
:103940001088226812682D4B13402268136081F39F
:103950001088E16E01291BD1E066EFF31080012190
:1039600081F3108821680968102291432268116050
:1039700080F3108810202168C9690140002901D016
:10398000216808625C20215A200004F0FCF953E70A
:10399000200001F0B6FE4FE75E20205A69460880FD
:1039A00068460088002828D0684600886821615A47
:1039B000884222D2EFF31080012181F31088216820
:1039C0008968904A0A4021688A6080F310888E488E
:1039D0006067EFF31080012181F310882168096886
:1039E00020220A4321680A6080F3108805E02068DD
:1039F00080690821014320688161F7BDFFFFFFFB5B
:103A0000F8B584B004006020205A6946C880206858
:103A1000C569206807682068806802908C2020585B
:103A2000222800D0E0E06820205A69464880684695
:103A30004088002800D1ACE02026354200D1A8E023
:103A40002068406A69468880A06D03906846808837
:103A50006946C988014003980180A06D801CA0655B
:103A60005E20205A401E5E2160522068C069050019
:103A70006807400F002831D02800C00709D5F80595
:103A800007D50120216808629021615808439021E0
:103A90006050022005420AD00299C90707D5216863
:103AA00008629021615804220A4390216250042147
:103AB0000D4209D0029AD20706D5226811629021E0
:103AC000615808439021605090202058002805D06C
:103AD000200004F057F90020902160505E20205A09
:103AE0000028A4D1EFF31080012181F31088216810
:103AF0000968414A0A4021680A6080F31088EFF3A0
:103B00001080012181F31088216889683B4A0A40AE
:103B100021688A6080F310888C202650002060671E
:103B200020672168364A914210D02168496809020D
:103B30000CD5EFF31081012282F3108822681268FD
:103B4000324B13402268136081F31088E16E012923
:103B50001BD1E066EFF31080012181F3108821680A
:103B60000968102291432268116080F310881020A8
:103B70002168C9690140002901D0216808625C20E0
:103B8000215A200004F0FFF851E7200001F0B9FDB0
:103B90004DE75E20205A6946088068460088002864
:103BA00028D0684600886821615A884222D2EFF303
:103BB0001080012181F3108821688968114A0A4028
:103BC00021688A6080F3108811486067EFF31080E5
:103BD000012181F310882168096820220A432168A5
:103BE0000A6080F3108805E020688069082101439D
:103BF0002068816105B0F0BDFFFEFFFFFEFFFFEF13
:103C000000800040FFFFFFEF17360008FFFFFFFBBB
:103C10000D37000870B50D78002D11D00C0004E0B0
:103C2000491C0E78964207D0401C290004F010F978
:103C3000002805D0010023005B1C1A78002AEFD170
:103C400070BD2E00431C0178401C0942FBD1C01AF4
:103C50007047FEE70CB418B583B004000A0006A84C
:103C6000029001940020009002AB01A9084878441A
:103C70001E3004F0FBF80021019A1170002801D4D5
:103C80000198001B04B0019910BC03B0084700BFA5
:103C9000EFEAFFFF70B4103A03D378C9103A78C046
:103CA000FBD2530701D318C918C001D508C908C0F1
:103CB000D20704D30B880380891C801C002A01D5FD
:103CC0000B78037070BC70478B0701D18307E1D07C
:103CD000124205D00B78491C0370401C521EF9D1CA
:103CE0007047FEE7FEB5002069460870FCF728FA29
:103CF0005B4F01203871FDF7ABFDDE4D59A1280067
:103D0000FFF7A8FFDC4C00222021200001F023F95E
:103D10002800FFF797FF80B2FDF7CCFD06003000CA
:103D2000C0B200280FD16420FCF762FE0600012219
:103D30002021200001F00FF93000C0B2002802D08D
:103D40003000C0B22CE2FDF783FDCC492800FFF71C
:103D500081FF00222021200001F0FDF82800FFF75C
:103D600071FF80B2FDF7A6FD6946087068460078CD
:103D7000002810D16420FCF73BFE69460870012240
:103D80002021200001F0E7F868460078002802D0E2
:103D90006846007804E2FA20800001F0FFFC00226F
:103DA0002021200001F0D7F8192001F0F7FC0122B2
:103DB0002021200001F0CFF8192001F0EFFCB879A4
:103DC0000028ECD0FDF744FDAA4DAD492800FFF7CF
:103DD00041FF00222021200001F0BDF82800FFF75C
:103DE00031FF80B2FDF766FD07003800C0B2002841
:103DF0000FD16420FCF7FCFD0700012220212000E8
:103E000001F0A9F83800C0B2002802D03800C0B2D2
:103E1000C6E1FDF71DFDE3492800FFF71BFF002267
:103E20002021200001F097F82800FFF70BFF80B257
:103E3000FDF740FD06003000C0B2002814D1642018
:103E4000FCF7D6FD060001222021200001F083F8B6
:103E50003000C0B2002807D03000C0B2A0E100BFDF
:103E6000C068002041540D00FDF7F2FCCE49280047
:103E7000FFF7F0FE2800FFF7E5FE80B2FDF71AFD20
:103E8000070000222021200001F065F83800C0B2B0
:103E9000002808D16420FCF7ABFD07000122202197
:103EA000200001F058F8FDF7D3FCC0492800FFF7C7
:103EB000D1FE2800FFF7C6FE80B2FDF7FBFC06002E
:103EC00000222021200001F046F83000C0B2002876
:103ED00008D16420FCF78CFD06000122202120007F
:103EE00001F039F8FDF7B4FCB1492800FFF7B2FE44
:103EF0002800FFF7A7FE80B2FDF7DCFC07000022D8
:103F00002021200001F027F83800C0B2002808D195
:103F10006420FCF76DFD070001222021200001F044
:103F20001AF8FDF795FCA34AC4492800FFF792FE52
:103F30002800FFF787FE80B2FDF7BCFC06000022D8
:103F40002021200001F007F83000C0B2002808D17D
:103F50006420FCF74DFD060001222021200000F026
:103F6000FAFFFDF775FCB6480268B6492800FFF76E
:103F700071FE2800FFF766FE80B2FDF79BFC07008C
:103F800000222021200000F0E6FF3800C0B2002807
:103F900003D16420FCF72CFD0700FDF759FCAA496A
:103FA0002800FFF757FE2800FFF74CFE80B2FDF710
:103FB00081FC060000222021200000F0CCFF300010
:103FC000C0B2002808D16420FCF712FD06000122CF
:103FD0002021200000F0BFFF03F032FF0190FA27FC
:103FE000BF00380001F0DAFBFDF732FCB3492800CE
:103FF000FFF730FE2800FFF725FE80B2FDF75AFCE0
:104000006946087000222021200000F0A4FF6846C5
:104010000078002809D16420FCF7EAFC69460870A2
:1040200001222021200000F096FFFDF711FCA44999
:104030002800FFF70FFE2800FFF704FE80B2FDF70F
:1040400039FC6946087000222021200000F083FF1F
:104050006420FCF7CDFC060001222021200000F0A6
:104060007AFF3000C0B239280CD1002069460870B0
:1040700012E000BF1C3B00200004005074CC00087C
:1040800094CF000803F0DCFE0199401AAA49884247
:10409000A5D301206946087000222021200000F0ED
:1040A0005AFFFDF7D5FBA5492800FFF7D3FD2800EF
:1040B000FFF7C8FD80B2FDF7FDFB69460870684652
:1040C0000078002809D16420FCF792FC694608704A
:1040D00001222021200000F03EFFFA20400001F0E4
:1040E0005DFBFDF7B5FB96492800FFF7B3FD2800FF
:1040F000FFF7A8FD80B2FDF7DDFB06003000C0B27F
:10410000002803D16420FCF773FC0600FDF7A0FB38
:104110008C492800FFF79EFD2800FFF793FD80B231
:10412000FDF7C8FB6946087000222021200000F03E
:1041300012FF68460078002809D16420FCF758FC7B
:104140006946087001222021200000F004FFFDF7DD
:104150007FFB7D492800FFF77DFD2800FFF772FDFA
:1041600080B2FDF7A7FB050000222021200000F00F
:10417000F2FE2800C0B2002808D16420FCF738FC09
:10418000050001222021200000F0E5FE380001F0AA
:1041900005FB00222021200000F0DDFE2800C0B237
:1041A000FEBD00BF48D00008A0CF0008ACCF00087B
:1041B000B8CF000850D00008F7B582B01F00002427
:1041C0002000694608700194FA20800001F0E6FAA8
:1041D0003B78049A03990298FDF768FA03F030FEE1
:1041E00005005A4E307D01280CD05948807D332877
:1041F00008D003F025FE401B56498842F1D3012028
:1042000069460870307D012803D1200030752000F8
:104210000DE04F49887D332802D133208C7500E0B2
:1042200001200100C9B2002901D0C0B203E06749F2
:1042300009783970C0B205B0F0BD0000BCCE0008EE
:104240003000002090CC0008C4CF0008F3B583B044
:1042500000246846047004990398FDF74DFA03F0B2
:10426000EFFD0190394D6C76394E574F3C70687EAA
:1042700001280CD0B07D362809D003F0E1FD01996A
:10428000401A70498842F2D3012069460870687E5E
:10429000012802D16C7620000CE0B07D362802D1D6
:1042A00036203C7000E001200100C9B2002901D095
:1042B000C0B200E0C0B205B0F0BD0000D0CF000831
:1042C000DCCF0008F7B582B0002468460470684669
:1042D000028A03990298FDF737FA03F0B1FD0190C5
:1042E0001A4DEC761A4E384F3C70E87E01280CD0FF
:1042F000B07D362809D003F0A3FD0199401A674923
:104300008842F2D3012069460870E87E012802D174
:10431000EC7620000CE0B07D362802D136203C70CF
:1043200000E001200100C9B2002901D0C0B200E0C4
:10433000C0B205B0F0BD0000E1930400E8CF000872
:10434000F4CF0008ACCC000858CA0008C0680020B0
:10435000FC680020D1070000F7B582B000242000DF
:10436000694608705D486946097A405C00280BD1AF
:10437000684680898021C900884203DA68468089BE
:10438000002801D104201CE0049A6846818968460F
:10439000007AFDF769F903F053FD0700504DE87C02
:1043A00001280BD04F4E03F04BFDC01B306030682E
:1043B00049498842F2D3012069460870EC74684686
:1043C000007805B0F0BD0000126900203C630020B9
:1043D00070B506000024FDF73BFA434D4349280021
:1043E000FFF738FC2800FFF72DFC80B2FDF762FADA
:1043F00005002800C0B2002805D001203849C87344
:104400000F203B498875012035490870FDF720FAD7
:104410002800C0B270BD70B505000C000020060079
:10442000334948752D482900C9B2405C002806D0A0
:104430002800C0B2FDF7DCF93000C0B200E0022075
:1044400070BD0000214E0000F7B582B000242700A7
:1044500000940498027803990298FDF707FA03F094
:10446000EFFC0500FA20800001F098F91C4EF07F67
:10447000012809D003F0E4FC401B1E498842F5D313
:10448000012007002000B077F07F012802D1200032
:10449000F07727003800C0B205B0F0BDA10F0000D2
:1044A00010B50024FDF7D4F913480C494278895C13
:1044B00000290FD00E494978002904D142780F49CC
:1044C0000F48FFF7C7FB0E48FFF7BCFB80B2FDF7B4
:1044D000F1F9040010BD000011270000E06A00207F
:1044E000C0680020EC6A00201C3B0020CCCE0008F5
:1044F000FC680020214E00003C6300201CCE000818
:104500001C3B002010B50024E120400201F03CF8E3
:1045100001F022F8FBF7D2FDE4B2200010BD10B587
:10452000002004007D497E4A11607E497E4A116068
:1045300002217E4A11707E4908607E490870FFF7AB
:10454000D1FB0100C9B2002901D0C0B200E0C0B265
:1045500010BDF1B583B00020029003980090764D15
:10456000009873490860754C0098210000F09DFF89
:1045700001910098210000F098FF0400704E01980E
:104580003C2100F08FFF3160E1273F0101983900A5
:1045900000F08BFF08003C2100F084FF7060019860
:1045A000390000F07FFFB060201D072100F07AFF86
:1045B000B16103273D420FD12800642100F072FF52
:1045C000002906D12800C821490000F06BFF00290E
:1045D00002D1B720400001E0FF206E30844217D3A3
:1045E0002F40002F0FD12800642100F05BFF00292D
:1045F00006D12800C821490000F054FF002902D14B
:10460000B720400001E0FF206E30241A6D1CD0E777
:104610004B4E4C4828187061F461002030613D42D7
:104620000ED12800642100F03DFF002906D12800AA
:10463000C821490000F036FF002901D1012000E027
:1046400000204149C0B23022504308183169042289
:104650005143405884421FD33D420ED1280064216B
:1046600000F020FF002906D12800C821490000F0F1
:1046700019FF002901D1012000E000203249C0B219
:104680003022504308183169042251434058241AFB
:104690003069401C3061C2E7641CF4600020306265
:1046A00070692A49401870613069401C3061029875
:1046B00004B0F0BDF8B506000D0014001F003A006C
:1046C00021002800164B1B689847F1BD10B5040067
:1046D000200015490968884710BD70B504000D0019
:1046E00016001B4821780906627812040A43A17853
:1046F00009021143E2780A43164951180160006823
:10470000FFF727FF70BD72B601210A4A117062B629
:104710000221064A1170704700000000DB460008C5
:10472000F06A002007470008F46A00208A6B002026
:10473000FC6A0020896B0020B20700008051010054
:104740004468002094F8FFFF3CC900086C07000093
:10475000F86A00208081557CFEB506000D0014002B
:1047600000270020009002AB220029003000FFF754
:1047700023FDC0B2FEBD76B505000C00002601AADF
:1047800021002800FFF760FEC0B276BD38B50400F6
:1047900000252000C0B2FCF7FFFF2800C0B232BDE8
:1047A00070B505000C00002621002800FFF74EFD23
:1047B000C0B270BDF8B506000D001400002722003D
:1047C00092B229003000FFF77DFDC0B2F2BD70B596
:1047D00005000C0000262A00210089B20020FFF706
:1047E000BBFDC0B270BD70B505000C0000262A00EC
:1047F000210089B20020FFF7AFFDC0B270BD10B537
:10480000040001212000C0B2FFF705FE10BDFEE745
:10481000F0B5020052B2002A1CD403223D4B040022
:1048200064B2A40804256C431C59FF2516000640F9
:1048300008277E43B540AC438D01EDB20240082607
:10484000724395402543020052B292080424624309
:104850009D5022E00F24304B032205006DB225400D
:10486000083DAE0804256E4305006DB22C40083C9F
:10487000A40804256C431F59FF24A44615000540D5
:10488000082465436446AC40A7438C01E4B202406F
:1048900008256A4394403C439C51F0BD80B51F48B5
:1048A000006804F06DFE012801D004F060FF01BD36
:1048B00080B500210420C043FFF7AAFF01BD00B569
:1048C000EFF30580002802D00520C04309E014481A
:1048D0000168002903D101210160002001E00020CE
:1048E000C04300BD10B5EFF30580002802D00520BD
:1048F000C0430DE00A4C2068012807D1FFF7D8FF1C
:104900000220206004F0A2FB002001E00020C04350
:1049100010BD000000E400E01CED00E010E000E04D
:10492000786A0020F8B588B006000F001400002552
:104930000595EFF30580002865D13000002862D08E
:10494000802006901820049007950020C043039013
:10495000002C35D02068002801D020680790A0697D
:10496000002801D0A06904900498002807D004987A
:10497000392804D2012061680140002901D00020BB
:1049800042E06169002902D0616989080691A16845
:1049900000290AD0E1685C2907D32169002904D0E5
:1049A0006169002901D003900BE0A068002808D1BC
:1049B000E068002805D12069002802D1039500E0B5
:1049C0000395039801280DD1A068029020690190F9
:1049D000049800903B00069A0799300004F006FA0C
:1049E000059010E0039800280DD105A801900498C7
:1049F00000903B00069A92B20799300004F02EFA1C
:104A0000012800D00595059809B0F0BD38B504001F
:104A1000EFF30580002802D00525ED4305E00025D1
:104A2000002C02D0200004F0E9FA280032BDF8B5CD
:104A300084B006000F00140000250295EFF30580F6
:104A400000284BD1002E49D0002F47D00020C04372
:104A50000190002C1ED0A06800280DD0E0685028DE
:104A60000AD32069002807D0616930007843814269
:104A700002D3012001900EE0A06800280BD1E0686D
:104A8000002808D12069002805D16069002802D1DA
:104A9000019500E001950198012809D100200090BE
:104AA000A36822693900300004F0D0FE029008E0CB
:104AB0000198002805D100223900300004F008FFD9
:104AC00002900298002809D0002C02D020680390A0
:104AD00000E003950399029805F0D7F9029805B014
:104AE000F0BDF7B507000C001D0000970020060080
:104AF000EFF3058100291FD00099002903D0002C75
:104B000001D0002D03D00320C04306002EE0019009
:104B1000002301AA2100009804F0B8FF012803D067
:104B20000220C043060021E0019800281ED080200A
:104B300040053349086019E00098002801D0002C96
:104B400003D10320C043060010E000232A00210007
:104B5000009804F0F3FE012808D0002D03D00120B6
:104B6000C043060002E00220C04306003000FEBD44
:104B7000FEB506000C001700009600200500EFF3BC
:104B8000058100291FD00099002904D0002C02D0F3
:104B90000299002903D00320C04305002DE00190B5
:104BA00001AA2100009805F067F8012803D002202F
:104BB000C043050021E0019800281ED08020400558
:104BC0000F49086019E00098002801D0002C03D19B
:104BD0000320C043050010E0029A2100009804F071
:104BE000B3FF012809D00298002803D00120C04358
:104BF000050002E00220C04305002800FEBD0000C1
:104C000004ED00E070B504002600EFF305800028F5
:104C100002D00525ED4309E0002E02D10325ED4326
:104C200004E000250021300004F0D4FD280070BD10
:104C3000F1B582B000230868D840002800D1EBE02D
:104C4000012508682C009C4004400194019800282C
:104C500000D1DFE0032648683040012803D04868CF
:104C6000304002281ED1029887681C00022044436D
:104C70003000A0408743C86884461C00022044439B
:104C80006046A0403843029CA060029C67682C00EC
:104C90009C40A7434C6824092C409C403C43220084
:104CA000029C626048683040032812D00298C768AE
:104CB0001C00022044433000A0408743886884469B
:104CC0001C00022044436046A04038430200029882
:104CD000C26048683040022821D10298DC080427CD
:104CE0007C430019076A072000970F24A4461F0081
:104CF0000740042467436446BC40009FA743BC466A
:104D00000F691C002040042460438740604607432D
:104D10003A000298DC0804277C43001902620298DA
:104D200007681C00022044433000A04087434868C5
:104D3000304084461C00022044436046A040384373
:104D40000200029802604868C024A4020440002CBB
:104D500060D08E4C980804277843205800900F2785
:104D6000BC461F003000384008277843674687401C
:104D70000098B84300900298A027FF05B84201D1DF
:104D8000002510E00298824A90420CD00298814A95
:104D9000904201D1022506E002987F4A904201D15B
:104DA000350000E0052500981A00164008225643F9
:104DB000B54005439808042250432550774A1068AF
:104DC000019CA0434C68E40202D5040001982043F2
:104DD0001060734C2268019DAA434D68AD0202D554
:104DE0001000019A024322606E4C2068019DA84386
:104DF0004D68AD0302D502000198104320606A4C53
:104E00002268019DAA434D68ED0302D51000019A66
:104E1000024322605B1C0EE7F7BDF2B582B00100D1
:104E200000220298D040002800D193E0012302988C
:104E30001C009440044000940098002800D187E0B2
:104E40005248940804256C43005903260F2415008A
:104E500037002F4008256F432500BD4005400195D0
:104E6000A020C005814201D100250FE048488142C1
:104E700001D11D000AE04748814201D1022505E029
:104E80004548814201D1350000E00525019884465E
:104E90001700300038400827784385406046A84214
:104EA00028D141480568009FBD4305603D4805681D
:104EB000009FBD4305603A480568009FBD430560FB
:104EC00036480568009FBD43056010003500054069
:104ED000082045432000A84001902C48950804274D
:104EE0007D434759019DAF438446950804204543BF
:104EF000604647510868170002256F433500BD40E2
:104F000005430D60D008042568430D18D008042718
:104F100078430818006AA446140067077F0F04242A
:104F200067436446BC40A04328628C681500022099
:104F300045433000A84084438C60486893409843C0
:104F40004860C8681300022463439E40B043C860B1
:104F5000521C66E7F7BD00B51300DBB2002B03D08F
:104F60000B009BB2836102E00B009BB2836200BD29
:104F700010B442690B009BB213401B040C00A4B296
:104F800094431C43846110BC7047000060180240C9
:104F90000004005000080050000C005000180240AF
:104FA00004180240841802408018024010B5040022
:104FB000002C01D1012050E020689B4940181421A9
:104FC00000F073FA800020640220252160542068DC
:104FD0000068BA4901402068016020680068A16843
:104FE0000143E06808432169014360690843A169FE
:104FF0000143E0690843216A014320680160200001
:1050000000F008FAA0688021C901884201D100207F
:10501000606020798006800E616C0860E06CA16C95
:105020004860606800280CD06068052809D220001C
:1050300000F008FA0020216D0860A06D616D4860E5
:1050400003E0002020656065A0650020E063012189
:105050002522A15424216054002010BD70B5040005
:10506000002C01D101203EE0206800680121884326
:105070002168086020686C494018142100F015FA76
:10508000800020640025206805608D4801680122A9
:105090004023E35C1C261E40B2400A43026020000D
:1050A00000F0B8F9606C0560E06CA16C4860606865
:1050B00000280AD06068052807D2200000F0C2F955
:1050C000206D0560A06D616D486025656565A5650D
:1050D000E56225636563A563E563280025216054C7
:1050E00024202554002070BDF7B504001F000020C7
:1050F00006002421615C012901D102204FE0012535
:1051000029002422A1542521615C012940D10221DA
:105110002522A154E06320680068012188432168AA
:1051200008603B00029A0199200000F04BF9206BC7
:10513000002806D0206800680E2101432068016025
:105140000BE020680068042188432168086020681B
:1051500000680A21014320680160606C0068C00398
:1051600006D5606C0068802149000143606C0160D5
:10517000206D002806D0206D006880214900014381
:10518000206D01602068006805432068056004E028
:105190008021E163242160542E003000C0B2FEBDA6
:1051A00070B50100002901D101203BE02520085CF9
:1051B000022806D00420C86300202422885401203D
:1051C00030E0086800680E2290430A6810603D488D
:1051D0004A6C126802404B6C1A600A68126801231C
:1051E0009A430B681A600122354B1C6840254D5DBF
:1051F0001C262E401500B54025431D60CB6C8C6CE1
:1052000063600B6D002B07D00B6D1B6818400B6D96
:105210001860886D4B6D586025200A5400202422A8
:105220008854002070BD0000F8FFFDBFF8B50400F1
:10523000002005002521615C022904D00420E063E0
:105240000120050036E0216809680E22914322689A
:10525000116021680968012291432268116019498F
:10526000626C12680A40636C1A600122144B1E685B
:10527000B4464026A75D1C263E401700B740664650
:1052800037431F60E36CA66C7360236D002B07D05F
:10529000236D1B681940236D1960A16D636D596002
:1052A0002521625424216054A06B002802D02000E4
:1052B000A16B88472800C0B2F2BD00000F80FFFF3D
:1052C00004000240FFFEFFFFF8B504003C480568FB
:1052D000206806681C210420226C0A4003009340C9
:1052E0002B40002B19D0064217D022681268920674
:1052F00005D42268126804239A4323681A60444A3A
:105300001368276C3940884018431060206B0028D0
:1053100054D02000216B884750E00222206C0840C6
:10532000130083402B40002B1FD016421DD0206855
:105330000068800608D4206800680A239843236820
:10534000186001202523E05431480368276C394058
:105350008A401A430260002024216054E06A002839
:105360002CD02000E16A884728E00820226C0A40FF
:10537000030093402B40002B20D0304000281DD04C
:10538000206800680E229043226810600123204AA2
:105390001068276CBC460F0061460F401900B940E9
:1053A00001431160E363252023540020242160542D
:1053B000606B002802D02000616B8847F1BD0000BF
:1053C00000000240F0B5C46C856C6C60046D002C6C
:1053D00002D0846D456D6C600D4C27680125AC468C
:1053E0004025455D1C262E406546B5403D43256061
:1053F000046863608468102C04D10468A2600468A7
:10540000E16003E00468A1600468E260F0BD0000B0
:105410000400024010B50400206C800804214843B9
:105420001149401860642078C0B20838142100F097
:105430003CF80E49A16401210200D206D20E91402F
:10544000E16410BD01798906890E04224A43084BA4
:10545000D2180265074A426501220B005B1E9B07BA
:105460009B0F9A4082657047000802408008024006
:10547000FC08024040090240F446002804D4494296
:1054800000F013F8404260474042002905D45FD045
:1054900000F00BF8404249426047494200F005F8ED
:1054A0004942604703460B43E6D40022030A8B427D
:1054B0000BD203098B4219D243088B422ED2411AD8
:1054C00000D20146524110467047FF2209023FD0E8
:1054D00012068B4205D3121209028B4201D312121B
:1054E000090203098B4219D300E0090AC3098B4260
:1054F00001D3CB01C01A524183098B4201D38B01E6
:10550000C01A524143098B4201D34B01C01A524188
:1055100003098B4201D30B01C01A5241C3088B42CD
:1055200001D3CB00C01A524183088B4201D38B00B8
:10553000C01A524143088B4201D34B00C01A52415A
:10554000884200D3401A5241CFD2014610467047DC
:1055500008B504F0D7FC08BD10B56F4800686F4966
:10556000FFF7A3FF0400641E6D486E4901606321CC
:10557000C1604460002101618160FCF78DFB00285F
:1055800001D0FDF7F9F810BDF8B507000120674913
:105590000A6802430A600968084000900098644E57
:1055A000644830601020B0600024F46080203061D6
:1055B0007461B461F4613462332070603000FFF7CD
:1055C000F5FC5D4DEE67B56201220021092001F076
:1055D000F3FA092001F0FAFA584828606F60AC60CD
:1055E000EC602C610C206861AC61EC612C626C6237
:1055F000AC622800FDF70AF9002801D0FDF7BCF8DD
:105600002800FDF7C1F8002802D0FDF7B5F807E043
:10561000002201211B2001F0CFFA1B2001F0D6FA55
:10562000F1BD80B54448FDF7B9F901BD80B53C48EE
:10563000FCF7A6FB01BD80B53B48FCF7A1FB01BD13
:1056400070B58EB00400342100252A0001AE300070
:10565000FCF796F920683A4988421CD180208003E3
:1056600001900B9501A804F04FFC002801D0FDF734
:1056700083F880210901334802680A430260006808
:10568000014000910098002201210D2001F094FAC0
:105690000D2001F09BFA2448844211D18021890217
:1056A000284802680A43026000680140009100989F
:1056B00000220321152001F07FFA152001F086FA5F
:1056C0001748844211D1802149021E4802680A43CA
:1056D000026000680140009100980022032114201C
:1056E00001F06AFA142001F071FA0EB070BD10B525
:1056F000040020681149884202D12000FBF73AF9E2
:1057000010BD10B5040020680C49884202D1200069
:10571000FBF73AF910BD00003C0000201027000004
:1057200018660020004001406466002038100240E6
:10573000CC64002008000240A8620020003801402C
:10574000002C01404010024070477047704770477E
:10575000704770477047FEE710B500240C48016899
:10576000802252000A430260032004F007FD002853
:1057700002D00120040001E002F0A4F92000C0B230
:1057800010BD04490A68044B134003430B60704783
:105790000020024000000140FFF9FFFF70B5040047
:1057A00002F04EFB050026000020C043864202D0D6
:1057B00004480078361802F043FB401BB042FAD38D
:1057C00070BD00BF8100002030B504000F480168A3
:1057D0000F4A0A402243026080208000844212D196
:1057E0000C480068062148430B49FFF75EFE401C49
:1057F00005000A480068400505D5002D01D06D1E42
:10580000F7E7032000E0002030BD000000700040FA
:10581000FFF9FFFF3C00002040420F0014700040E1
:1058200002480168E020C0010840704708100240AB
:10583000F8B584B00400002C01D101204FE201260C
:105840002068304000285CD0B3480068382101400F
:105850000291B24800688007800F019002981028DA
:1058600002D10198032802D00298082808D1AC4838
:105870000068800345D56068002842D101202EE2EF
:10588000802040026168814204D1A5490A68104322
:10589000086017E06168A022D202914209D1A049B4
:1058A0000A688023DB0213430B600A681043086018
:1058B00008E09B480168B04A0A4002600168AF4AAC
:1058C0000A400260606800280DD002F0B9FA0500B5
:1058D00093480068800314D402F0B2FA401B652894
:1058E000F6D30320FBE102F0ABFA05008C48006818
:1058F000800306D502F0A4FA401B6528F6D30320E6
:10590000EDE12078800776D5834800683821014092
:105910000291824800688007800F01900298102849
:1059200002D10198022802D0029800282CD17C498B
:105930000868400504D5E068002801D10120CEE1C7
:10594000BA480268BA4B1340626912021A430260F5
:105950000298002810D10868B64A02402069104316
:105960000860B5480968C90A4A07520F31009140DA
:10597000FFF79BFDBD490860BD48006804F0FEFBD1
:10598000002838D00120AAE1E068002821D0644F27
:105990003868A84901402069084338603868802188
:1059A00049000143396002F04BFA050038684005B0
:1059B00006D402F045FA401B0328F7D303208EE1FA
:1059C0009A4801689A4A0A406169090211430160D4
:1059D00011E0534F3868A7490140396002F030FAAE
:1059E00005003868400506D502F02AFA401B032856
:1059F000F7D3032073E12078000734D546480068C8
:105A000038210140182908D1B648006880072AD5F6
:105A1000A069002827D1012061E1A069002810D0E9
:105A2000B04F38683043386002F00AFA0500386831
:105A3000800718D402F004FA401B0328F7D3032090
:105A40004DE1A84F386801218843386002F0F8F929
:105A500005003868800706D502F0F2F9401B0328DC
:105A6000F7D303203BE1042720683840002800D109
:105A70008FE00020694608702748006838210140FF
:105A800020290AD198480068800700D481E0A068E6
:105A9000002800D07DE0012021E1802040059349CD
:105AA0000968014000290AD190490A6802430A6046
:105AB00009680840039003983000694608708C48D4
:105AC0000068C00514D48A48006880214900014359
:105AD0008748016002F0B4F9050085480068C005F8
