:020000040800F2
:10000000607A0020C5CA00083FC3000843C3000847
:1000100000000000000000000000000000000000E0
:1000200000000000000000000000000019BF0008F0
:100030000000000000000000DBBE0008A146000830
:100040009F3B0008F33B0008433C00085B55000859
:10005000B76C0008EF7900089F7A0008D5C3000844
:10006000AF7A0008BD090008378A000847C30008B6
:10007000539B000851C30008E3B00008BFB100085B
:10008000C3B100086DC3000873B3000897B7000838
:10009000315400083B540008C3C00008F3C40008F2
:1000A00037C8000843C8000879CC00082754000866
:1000B00077C30008CBC300087BCC0008F0B585B03F
:1000C0009627FF00049700240394774D039A049920
:1000D000280001F0FBFB02970194744D019A0299EC
:1000E000280001F0F3FB40260094714D009A310086
:1000F000280001F0EBFB6F4D3900280001F02CFCCB
:1001000020006D49087000F0BEF800F0AEF800F075
:1001100050F832212800143001F0AEFC00F0C8FB8A
:100120000525664F22002900380001F0CFFB644806
:1001300001F08AFD002801D002F0C4FA05B0F0BD3C
:10014000F0B585B09627FF00049700240394564D20
:10015000039A0499280001F0B9FB02970194534DCA
:10016000019A0299280001F0B1FB40260094504DFD
:10017000009A3100280001F0A9FB4E4D39002800FB
:1001800001F0EAFB20004C49087000F07CF800F018
:100190006CF800F00EF832212800143001F06CFCED
:1001A0000525464F22002900380001F08FFB05B0DD
:1001B000F0BD10B4012043490200CA7000221300B0
:1001C0000B7313004B73130021240B5513002224CF
:1001D0000B551300CB7313000B7413004B741300F7
:1001E0008B741300CB7413008B7113004B751300C9
:1001F0008B7513000B7013004B7013008B70130082
:100200000B7113004B718A6013008B732E4913001E
:100210000B7013004B7013008B701300CB70130026
:100220000B7113004B7113008B711300CB71130012
:100230000B7213004B7213008B721300CB721300FE
:100240000B7313004B7313008B731300CB731300EA
:100250000B7413004B7413008B741300CB741300D6
:100260000B7548758A7510BC70470020174902004D
:10027000CA7148630864486505228A65C86548668E
:100280008866C866704710B50A4C012210491148AB
:1002900002F087FA402160544020205C002802D1FF
:1002A00001200949087110BD602F0020C8480020B6
:1002B000946E0020106E002052720020A871002061
:1002C000E86C0020906F0020CC6F0020106A0020A6
:1002D000806A00207C690020F1B584B000252800E8
:1002E00069460871B24C6078002800D0D9E272B635
:1002F000B04E3000143001F026FCF06362B6F06BB3
:10030000002800D147E2F06B007C012800D042E2D7
:10031000F06B0078002800D13DE2022800D137E1DF
:10032000032800D162E1042839D0052830D00628FE
:1003300000D153E10A2800D175E10C2800D195E0E5
:100340000D2800D1E7E10E2857D0142800D1A6E1EE
:10035000152800D1BEE1162800D148E11B2824D081
:100360001C2831D01D2844D01E2862D01F2800D15F
:100370000BE2202800D1AAE0212800D1C6E02228E3
:1003800000D1E4E0232809D0242800D1A6E102E22C
:100390000120AD49C8732800A075FCE1FBE10120F4
:1003A000A949C8733920A075F5E10120A649C87391
:1003B000A6A1A74803F0D4FB002802D03020A075E6
:1003C00001E03120A075E6E101209F49C873A04EED
:1003D0009EA1300003F0C4FB002804D1300003F0DC
:1003E000D7FB002802D10220A07501E03220A075C1
:1003F000D1E101209449C873CDE1964E9649300071
:1004000003F0CEFB300003F0C3FB80B201F004FA2E
:100410006946087168460079002805D001208A499C
:10042000C8730F20A07503E08C48C5660120E074F6
:10043000B1E1C14E874FB2688949380003F0B0FB83
:10044000380003F0A5FB80B201F0E6F969460871B7
:1004500068460079002805D001207B49C8730F2029
:10046000A07502E0F5660120E07494E101F0A2F9C4
:10047000B14E5421706903F0B3FB002806D0336EEF
:100480007269D449734803F08BFB0AE05521706907
:1004900003F0A6FB002804D0326ECF496D4803F06C
:1004A0007FFB6C4803F074FB80B201F0B5F969463C
:1004B000087168460079002805D001206249C87398
:1004C0000F20A07502E0F5660120E07463E1614E43
:1004D000D949300003F064FB300003F059FB80B2CF
:1004E00001F09AF96946087168460079002805D03C
:1004F00001205549C8730F20A07506E08E48C566D7
:1005000001200100E1745049087644E18A4E514FC0
:10051000736A326AC949380003F042FB380003F0BD
:1005200037FB80B201F078F96946087168460079B6
:10053000002805D001204449C8730F20A07505E0AC
:10054000F56601200100E1743F49887623E17A4E87
:10055000404F736A326AD449380003F021FB3800F7
:1005600003F016FB80B201F057F96946087168463E
:100570000079002805D001203349C8730F20A075E9
:1005800005E0F56601200100E1742F49087702E1DA
:100590006948C179491CC1712900E174C566C179F6
:1005A000042909DB01202849C8730420A075F2E062
:1005B000CC6F0020106E0020F16B89890170F06B08
:1005C0008089411CF26B918101210A00C24B80B2EB
:1005D0001A541D48C1732800A075DCE01A48012197
:1005E000C1733321A17529000175D4E0FEE701F044
:1005F000E1F8184EAD49300003F0D2FA300003F0B4
:10060000C7FA80B201F008F96946087168460079B6
:10061000002804D001200C49C8730F20A0750120C8
:1006200009490870B7E001F0C5F8A848007800282B
:1006300018D14148818D0091036E8268A749054811
:1006400003F0AEFA14E000BF906F002022220000F9
:10065000946E0020183B0020E0C90008106A0020BA
:1006600074CA00083448828D9D49B64803F098FA50
:100670009C4F012630003870B24803F089FA80B2EE
:1006800001F0CAF86946087168460079002805D06B
:10069000C948C6730F20A075280038707BE001F0B0
:1006A00089F8254FB88D0390B86A0290A54E009640
:1006B000039A0299009803F0B7FA00980D20B98DBB
:1006C0007054B88D01F0A8F8694608710120BA4944
:1006D000887560E00120B849C8745CE001F06AF8F0
:1006E000984F9B4800909B4BB28E9B49380003F07B
:1006F00057FA380003F04CFA80B201F08DF86946E1
:10070000087168460079002801D12800A0750120F1
:10071000A94988773FE07048F16B0989405C00285F
:1007200032D0F06B8089401EF16B888101F042F875
:10073000844FB28EA44901E0106A0020380003F013
:100740002FFA380003F024FA80B201F065F8694608
:10075000087168460079002817D12800A075611C2F
:10076000012002000A70F26B1289A54B5A71924A5D
:1007700003009373507028000870280060722800EE
:10078000A0722800207200E005E001208A49C873A9
:100790003820A075FFE7E07901280FD1994801784A
:1007A000002904D00421964A51632900017094481D
:1007B000406BC0B203F02AFDE57172E0E07A0128D7
:1007C0000CD17D48C078012808D103F083FDE57283
:1007D00067E000BF84C6000864C70008A07B01284A
:1007E0002ED1914F864EF36CF26C3900B07803F045
:1007F0007BFE01208D4908703878D0308B494870D5
:10080000B8788A498870002300228849884800689F
:1008100004F069F80023002284498648006804F047
:1008200062F801220821844804F097FAB564F5645F
:1008300000F04EF8A57334E058C6000844C900081B
:10084000E07B012818D1784F6D4EF36CF26C3900C3
:10085000092003F049FE9620C00002900095009AFE
:100860000299380001F032F8B564F56400F030F810
:100870002800E073657014E0607C01280AD16048AC
:1008800015498279895C002902D0807900F062FFE5
:10089000657406E0207C012803D1684803F030FE2F
:1008A000257405B0F0BD000088C7000884CA0008A0
:1008B0004148002181600121817070473E4800213C
:1008C000816081700121212281547047487200208B
:1008D00001203949C8707047A8710020CCC70008B2
:1008E0005CC90008A56F002038B5334CA0780028FB
:1008F00004D0E078012801D100F086F8504DA87CA2
:10090000012808D14F4801F03BF8002803D000200F
:10091000A874FFF7B8FCE87C002812D03848010022
:100920006C31C26E521C0A60C06E474A904208D3B6
:10093000002008600100E9740F21A9750121E1730D
:10094000687031BD183B00200121404A117070478A
:100950003A050000000000207CC80008F1B5384DC1
:100960003B4F00203870FFF7A9FF72B6394E354C67
:100970003100200001F020F862B63748006837499E
:100980000860FFF795FF200000F0EEFF002802D07E
:100990000120A8740FE0E87800280CD10122310072
:1009A0002F4801F0FEFE402160544020205C0028CA
:1009B00001D101203870F1BD906F002080B528482A
:1009C000C06F04F083FB01BD74C9000800B50100CD
:1009D000244801600268002A05D0234AD27B012AFC
:1009E00001D000BFF6E72048C27B002A02D10122D5
:1009F000134B9A750022C2731148807D00BD000020
:100A0000106A00205372002010B572B6AA4C0D482F
:100A100000F0F1FFE06162B6E069002802D0E06911
:100A200000F024F810BD0000602F0020C8710020E5
:100A3000747100208071002000040050146A0020AE
:100A4000CC6F0020106E0020C1D40100B26F0020D6
:100A5000D06F0020806A002024380140284C0040DC
:100A60007C690020B0710020906F0020F1B586B045
:100A700000252900069800786A4610728F48CB4EF0
:100A80006A46127A0368F2540268521C02600068D7
:100A90003018801E00780D2801D000F0B1FC874886
:100AA00000683018401E00780A2801D000F0A8FC29
:100AB000BF4C2078002801D000F0A2FC7F480068DD
:100AC0003018001F00784F2800D089E27B4800686A
:100AD0003018C01E00784B2800D081E277480068AB
:100AE0003018801E00780D2800D079E27348006825
:100AF0003018401E00780A2800D071E2704930009A
:100B000003F02EF86F4F3860002830D06E483968F7
:100B1000097A01700078312809D10120A549020025
:100B20003723CA5404222823CA543822885472B660
:100B3000A04C2100283183B06846142203F05AF8F3
:100B40000EBC2000143000F0B9FF62B6200028303F
:100B500001F03CF8594805609624E4000095370000
:100B6000009A2100380000F0B1FE00F049FC57491E
:100B7000300002F0F5FF3860002847D0386854494B
:100B8000086051483968C97B01703968097C417037
:100B900001780D2903D1FF204749C87009E0417849
:100BA0000D2906D13968C97B01700078D0304249DF
:100BB000C87001207F4F01003722B954022128223A
:100BC000B954010021753821785472B639002831A2
:100BD00083B06846142203F00DF80EBC38001430C0
:100BE00000F06CFF62B63800283000F0EFFF2800FC
:100BF0006070324805609624E40000953700009A42
:100C00002100380000F062FE00F0FAFB31493000AC
:100C100002F0A6FF386000282DD0284805609620F5
:100C2000C000049003953700039A0499380000F03F
:100C30004DFE72B65F4F3900283183B068461422EA
:100C400002F0D8FF0EBC3800143000F037FF62B657
:100C50003800283000F0BAFF28006070174805609F
:100C60009620C00000902C00370022000099380028
:100C700000F02CFEC4E3D649300002F071FF38606A
:100C800000285ED03868801D3860D2482900017085
:100C90000178142923DA396809780D291CD03968BC
:100CA0000978CD4A0378D1543968491C39600178F4
:100CB000491C0170ECE700BF106A0020CC710020D5
:100CC000E4CB0008D47100202071002094CA0008F1
:100CD000D071002094CB0008BF4900780D5401204A
:100CE0003349C8750025BD4805609627FF00049765
:100CF00003952E4E3400039A0499200000F0E6FD7F
:100D000072B62C4C2100283183B06846142202F0C0
:100D100071FF0EBC2000143000F0D0FE62B620003F
:100D2000283000F053FF280021494870AB48056087
:100D300000972C00370022000099380000F0C6FD13
:100D40005EE3607D012829D1280060750120194CDF
:100D500001003722A1542700283714213970382187
:100D6000605472B62100283183B06846142202F024
:100D700041FF0EBC2000143000F0A0FE62B6380027
:100D800000F024FF954805609624E40000953700A4
:100D9000009A2100380000F099FD31E3A07D012880
:100DA00030D12800A0750120024C05E0784D0020CC
:100DB000906F0020106E002001003722A154270000
:100DC0002837152139703821605472B62100283136
:100DD00083B06846142202F00DFF0EBC20001430D0
:100DE00000F06CFE62B6380000F0F0FE7B48056053
:100DF0009624E40000953700009A2100380000F0A6
:100E000065FDFDE2A07F01282BD12800A0770120FD
:100E10000100E177DE4C01003722A154270028377A
:100E2000052139703821605472B62100283183B011
:100E30006846142202F0DEFE0EBC2000143000F0E2
:100E40003DFE62B6380000F0C1FE6448056096249D
:100E5000E40000953700009A2100380000F036FDCC
:100E6000CEE2207E01282BD128002076012001002F
:100E70006176C74C01003722A1542700283705218D
:100E800039703821605472B62100283183B0684629
:100E9000142202F0AFFE0EBC2000143000F00EFE53
:100EA00062B6380000F092FE4C4805609624E400DB
:100EB00000953700009A2100380000F007FD9FE2FE
:100EC000A07E01282BD12800A07601200100E17628
:100ED000AF4C01003722A154270028370521397073
:100EE0003821605472B62100283183B0684614223C
:100EF00002F080FE0EBC2000143000F0DFFD62B670
:100F0000380000F063FE354805609624E400009543
:100F10003700009A2100380000F0D8FC70E2207FF2
:100F200001282BD128002077012001006177984CFF
:100F300001003722A15427002837052139703821B4
:100F4000605472B62100283183B06846142202F042
:100F500051FE0EBC2000143000F0B0FD62B6380027
:100F600000F034FE1D4805609624E400009537002B
:100F7000009A2100380000F0A9FC41E20120844FD2
:100F800001003722B95405212822B9543821785458
:100F900072B63900283183B06846142202F02AFE66
:100FA0000EBC3800143000F089FD62B638002830DD
:100FB00000F00CFE28006070084805609624E400EC
:100FC00000953700009A2100380000F07FFC17E2FE
:100FD000ECCB00085672002018000020CC710020D5
:100FE000A349300002F0BCFDA24F3860002832D087
:100FF000A1480188491C0180002208219F4803F074
:10100000ACFE0120624F01003722B954162128227C
:10101000B9543821785472B63900283183B0684603
:10102000142202F0E7FD0EBC3800143000F046FD3B
:1010300062B63800283000F0C9FD28006070CD4845
:1010400005609624E40000953700009A21003800DE
:1010500000F03CFCD4E1C849300002F081FD38606A
:1010600000282ED04A4F012037217854052028210E
:10107000785401203821785472B63900283183B071
:101080006846142202F0B6FD0EBC3800143000F0A1
:1010900015FD62B63800283000F098FD0120E0719F
:1010A0000120B649087028006070B2480560962497
:1010B000E40000953700009A2100380000F006FC9B
:1010C0009EE1AF49300002F04BFD3860002829D086
:1010D00001202F4F01003722B95405212822B9548D
:1010E0003821785472B63900283183B0684614220A
:1010F00002F080FD0EBC3800143000F0DFFC62B658
:101100003800283000F062FD2800607099480560C2
:101110009624E40000953700009A2100380000F082
:10112000D5FB6DE19749300002F01AFD38600028C8
:1011300063D09549300002F013FD3860002802D0DA
:101140003720DA498875DA49300002F009FD386045
:10115000002802D03620D5498875D649300002F0E3
:10116000FFFC3860002802D03620D0498875D2A113
:10117000300002F0F5FC3860D049300002F0F0FC9D
:101180003860002802D03720C8498875CC4901E072
:10119000106E0020300002F0E3FC3860002802D01E
:1011A0003420C24988750120C64F01003722B95446
:1011B00005212822B9543821785472B639002831D3
:1011C00083B06846142202F015FD0EBC38001430BE
:1011D00000F074FC62B63800283000F0F7FC2800FC
:1011E0006070644805609624E40000953700009A1A
:1011F0002100380000F06AFB02E1D449300002F01F
:10120000AFFC386000283BD03868D1490860D1482D
:101210003968097AD03101700078A0710120A94F96
:1012200001003722B95423212822B9543821785497
:1012300072B63900283183B06846142202F0DAFC15
:101240000EBC3800143000F039FC62B6380028308B
:1012500000F0BCFC28006070464805609624E4005D
:1012600000953700009A2100380000F02FFBC7E0FE
:10127000A0CB0008D47100203E7200200004005072
:10128000B549300002F06CFC3860002800D0B7E0AF
:10129000B249300002F064FC3860002800D0AFE0B2
:1012A000AF49300002F05CFC3860002800D0A7E0B5
:1012B000AC49300002F054FC3860002829D00120ED
:1012C000804F01003722B95405212822B954382112
:1012D000785472B63900283183B06846142202F07F
:1012E00089FC0EBC3800143000F0E8FB62B6380010
:1012F000283000F06BFC280060701E4805609624C2
:10130000E40000953700009A2100380000F0DEFA72
:1013100076E0CD49300002F023FC3860002835D05B
:101320000120684F01003722B95405212822B95401
:101330003821785472B63900283183B068461422B7
:1013400002F058FC0EBC3800143000F0B7FB62B657
:101350003800283000F03AFC28006070054805602D
:101360009624E40000953700009A2100380000F030
:10137000ADFA45E0CC710020F4CB00084D7200209E
:10138000FCCB0008ACCB000804CC0008AF4930000F
:1013900002F0E6FB3860002832D1BD49300002F08F
:1013A000DFFB386000282BD0464F012037217854CE
:1013B00005202821785401203821785472B639004C
:1013C000283183B06846142202F014FC0EBC3800A9
:1013D000143000F073FB62B63800283000F0F6FBE2
:1013E00028006070012020216054C04805609624C8
:1013F000E40000953700009A2100380000F066FAFA
:10140000B7480078012800D01BE1B84800683018C0
:10141000001F00784F2800D013E1B448006830184E
:10142000C01E00784B2800D00BE1B048006830188F
:10143000801E00780D2800D003E1AC480068301809
:10144000401E00780A2800D0FBE0A949300002F0D5
:1014500087FBA44C2060002800D1D1E0A24801887D
:10146000491C01801748012137228154012138226B
:10147000815437492068086036482268527B0270E0
:101480009C4A23689B7B13709B4B2768FF7B1F70D4
:1014900027683F7CC77047780D2F15D12268527B93
:1014A00002700A68D21D0A602AE000BFCC6F0020DB
:1014B0000CCC000814CC0008323000001CCC000812
:1014C00024CC0008106E002087780D2F09D12368E6
:1014D0005B7B037023689B7B13700A6808320A6089
:1014E0000EE0C7780D2F0BD127687F7B0770276828
:1014F000BF7B17702268D27B1A700A6809320A60B3
:1015000041780D2904D1007830388B4908643DE0DA
:1015100081780D2909D101780A22514340780818B1
:10152000864940188449086430E0C1780D291BD1F0
:1015300001786422514342780A235A4389188078FB
:101540000818834940187C4908641FE02CCC000827
:10155000D07100202071002034CC0008B8CB0008E6
:10156000C4CB0008A4CA00080178FA2292005143B3
:10157000427864235A43891882780A235A43891887
:10158000C0780818824940186B490864884F6A4837
:10159000006CF8626848056454480068F96A0831CC
:1015A00088422DD3F86A8021C900884202D20120E6
:1015B000854988734E49300002F0D2FA20602068D5
:1015C00010302060F86A5C4988645B48806C019048
:1015D000206800907D485849C96C4418019A0099C8
:1015E000200002F021FB012001003722B9543821EC
:1015F00078545148C06C5049896C40184E49C864B1
:1016000072B66B4C2100283183B06846142202F078
:10161000F1FA0EBC2000143000F050FA62B620003F
:10162000283000F0D3FA2E4F280078702F4805603C
:101630009624E4000095009A2100300000F046F95D
:101640003D7007B0F0BD00003CCC000844CC000861
:10165000F7B506000D003848858502998162C6708D
:10166000534C270028370A20387072B621002831E1
:1016700083B06846142202F0BDFA0EBC200014307C
:1016800000F01CFA62B6380000F0A0FAF7BD0000C6
:10169000B4CA0008FEB582B006000D0000F07AF86A
:1016A000254886600566039941616946097CC170D9
:1016B0003F4C270028370C20387072B621002831A3
:1016C00083B06846142202F095FA0EBC2000143054
:1016D00000F0F4F962B6380000F078FA05B0F0BD19
:1016E000906F0020D47100203C720020CC7100204B
:1016F000D0CB000821710020227100207CB50500AC
:1017000000F048F80C48C570294C260028360E20F9
:10171000307072B62100283183B06846142202F07E
:1017200069FA0EBC2000143000F0C8F962B630002F
:1017300000F04CFA73BD0000106A0020F0FDFFFFBE
:1017400058480078704700205649087070470000DC
:1017500030EBFFFF7CB5050000F01CF8144C2600B0
:1017600028360D2030702800C0B2A08672B6210045
:10177000283183B06846142202F03CFA0EBC2000E7
:10178000143000F09BF962B6300000F01FFA73BD10
:10179000B02FFFFF00B544480178012905D04178FA
:1017A000012904D1807B012801D000BFF3E700BDEF
:1017B000106E002070B53D4C00253D4E2A002100E2
:1017C000300000F083F870BDCC6F0020602F002047
:1017D000FEB582B006000D00FFF7DCFF30488660E2
:1017E00005666946097CC170324C270028372420E1
:1017F000387072B62100283183B06846142202F096
:10180000F9F90EBC2000143000F058F962B6380027
:1018100000F0DCF905B0F0BDF1B584B000252E0074
:1018200021480079002802D1052006002CE0012083
:101830002149C8706846008A002802D1212006008C
:1018400022E01B4C6846028A21001C4800F0E7FF9A
:10185000002802D01120060016E0194F6846008AC1
:101860003880388802900194164C0094029A0199AD
:10187000009802F0D9F900982800398860543A8815
:101880002100114800F0CBFF0B48C57000790028FB
:1018900001D1FEF7F8FC3000C0B205B0F0BD000089
:1018A000106A0020B06F0020906F0020D606000064
:1018B000183B0020106E0020CC6F00207C690020B7
:1018C00040720020F0410020E86800201206130A50
:1018D0001A43130C1A4300BF094205D0830705D0F1
:1018E0000270401C491EF9D17047000013001039E6
:1018F00006D330B41400150010393CC0FCD230BC03
:10190000490700D30CC000D504C0890002D302806F
:10191000801C002900D50270704730B5016841185D
:10192000446862088A188368E40704D54C461B198A
:1019300001E0641C09D1914203D00C7864B2491CC7
:1019400001E00C3030BD0D78491C1D705B1C002C73
:10195000EFD4641EF7D5EEE7816000220260C2601A
:101960004260414A0261704700B501008A68CB6855
:1019700010006438834201DB012000E0002000BD3C
:1019800000B50100C868652801DA012000E00020E8
:1019900000BD00B501008A68C868904201D10120ED
:1019A00000E0002000BD00B50100C868002801D19A
:1019B000012000E0002000BDF8B504000D0020006B
:1019C000FFF7E7FF002815D1E068401CE060606881
:1019D0000126009521690F1832000099380002F0A5
:1019E00023F96068401C6060A0686168814201DB87
:1019F00000216160F1BDF8B584B004001B4D019574
:101A00002000FFF7D0FF002801D0002028E0962713
:101A1000FF0000260296029A39002800FFF756FFC1
:101A20001348007A00281AD12068012503952169FE
:101A300008180290019F039A0299380002F0F4F806
:101A40002068401C2060E068401EE0600948456551
:101A5000A068009020680099884200DB2660019809
:101A600005B0F0BD0000000028520020C84800204A
:101A7000CC6F0020106A0020142213004B438360B7
:101A800000230360C36043604E4B0361704770B531
:101A90000400A568E6682800142103F008FC8642CB
:101AA00001D1012000E0002070BD00B50100C86830
:101AB000002801D1012000E0002000BD0EB418B5BF
:101AC00004002000FFF7E3FF002837D160681421ED
:101AD00003F0EDFB2169142242438918049A4A60FD
:101AE000216914224243891803AA927B8A732169CF
:101AF00014224243891803AAD27BCA732169142293
:101B00004243891803AA12890A816946097B22691E
:101B100014234343D154216914224243891803AA50
:101B2000127C0A74E168491CE160616814316160EB
:101B3000A16862688A4201DB0022626001B00198FC
:101B400010BC04B0004710B504002000FFF7ADFF43
:101B5000002801D0002034E02068142103F0A7FB06
:101B600002001948216914235343C9184968416088
:101B7000216914235343C918897B81732169142374
:101B80005343C918C97BC173216914235343C9182E
:101B900009890181216914235343C95C01702169BA
:101BA00014235343C918097C01742168143121603E
:101BB000E168491EE160A16823688B4201DB0023D4
:101BC000236010BD385F002020700020002141609C
:101BD0000A0082730A000270C1730521018101218C
:101BE0000174704710B50400002C01D101202AE0D7
:101BF0003D20205C002805D100203C2160542000BD
:101C000003F020FC02203D216054211D206800F0DB
:101C1000ABF90120482160543E2160543F216054BB
:101C2000402160544121605442216054432160545A
:101C3000442160544521605446216054472160543A
:101C40003D216054002010BD10B501003D20085C0E
:101C5000012801D0012030E002203D23C85401209A
:101C60000B68DB6803430C68E3600B68134CA3420A
:101C70000CD00B688024E405A34207D00B68104CFD
:101C8000A34203D00B680F4CA34210D10B689B6892
:101C90000D4C1C402200062A0ED080235B029A4283
:101CA0000AD00B681B6818430B68186004E00B68C7
:101CB0001B6818430B681860002010BD002C014001
:101CC000000400400040014007000100F8B5040096
:101CD0002068C06800902068076902252F421BD049
:101CE00000982840002817D00220C04321680861CE
:101CF00001202077206880698007800F002803D0AA
:101D0000200003F023FC05E0200003F020FC20006D
:101D100003F01EFC00202077042637421BD00098D9
:101D20003040002817D00420C0432168086125777F
:101D300020688069C02189000140002903D020006B
:101D400003F004FC05E0200003F001FC200003F098
:101D5000FFFB0020207708252F421AD0009828404A
:101D6000002816D00820C043216808612677206823
:101D7000C0698007800F002803D0200003F0E6FB35
:101D800005E0200003F0E3FB200003F0E1FB00206E
:101D90002077102007421BD000990840002817D058
:101DA0001020C0432168086125772068C069C021E0
:101DB00089000140002903D0200003F0C7FB05E0A3
:101DC000200003F0C4FB200003F0C2FB00202077BA
:101DD000012007420AD000990840002806D00120BF
:101DE000C04321680861200000F037FC8220800198
:101DF0003840002808D00098000605D5164821680C
:101E00000861200003F0A5FBF80508D5009800063E
:101E100005D5124821680861200003F09BFB402093
:101E200007420AD000990840002806D04020C0434D
:101E300021680861200003F08EFB202007420AD0B1
:101E400000990840002806D02020C043216808617E
:101E5000200003F081FBF1BD7FDFFFFFFFFEFFFFEE
:101E6000FEB504000D000027684607703C20205C8A
:101E7000012801D1022072E001263C2026540220D4
:101E80003D2160542068806835490140354808404C
:101E900001900198216888602868002852D0102895
:101EA00050D020284ED030284CD0402840D0502848
:101EB0002AD0602832D0702809D080214901884278
:101EC00004D080218901884210D040E041E0EB68D5
:101ED0006A68A968206800F0D0F8206880687721D7
:101EE0000143019101982168886032E0EB686A68DB
:101EF000A968206800F0C1F8206880688021C901C5
:101F000001432068816024E0EA686968206800F085
:101F100085F85021206800F0A7F81AE0EA6869689F
:101F2000206800F08DF86021206800F09DF810E036
:101F3000EA686968206800F071F84021206800F0C4
:101F400093F806E02968206800F08EF801E0684602
:101F500006703D2026543C20275468460078FEBD7C
:101F600088FFCEFFFF00FFFF10B50268244CA0429F
:101F700006D08023DB05984202D0224B984204D140
:101F800070239A4313004A681A43A04212D0802358
:101F9000DB0598420ED01B4B98420BD01A4B98424F
:101FA00008D01A4B984205D0194B984202D01A4BD0
:101FB000984203D1174B1340CA681A4380239A43AF
:101FC0004B69134303608A68C2620A688262A04256
:101FD00008D00E4A904205D00D4A904202D00E4AD7
:101FE000904201D10A6902630122426104692240E0
:101FF000002A03D002690124A243026110BD00003F
:10200000002C01400004004000200040004001403E
:1020100000440140FFFCFFFF0048014030B4056A66
:10202000036A0124A34303628369F024A3431401D8
:102030001C430A239D430D438461056230BC7047F5
:1020400030B4056A036A1024A34303628369124C07
:102050001C4013032343A024A5430C012C4383619C
:10206000046230BC7047000082680A4B13400B4387
:1020700007221A4382607047000030B48468074D1D
:1020800025400D4315431C022C43846030BC70472F
:10209000000000008FFFCFFFFF0FFFFFFF00FFFFDB
:1020A00030B403680C004C4303256C43A3430C007D
:1020B0004C4354431C43046030BC704730B4C36885
:1020C0000C004C4303256C43A3430C004C43544386
:1020D0001C43C46030BC70478161704781627047A7
:1020E00070B40322BF4B14000C4004256C431C59F0
:1020F00007250E00360CB540AC430D002D0C060034
:10210000AE4026430A40042462439E5070BC704790
:1021100081B0D6490A6802430A600968014000910B
:10212000009901B0704710B503F018FA00F083F879
:1021300000F0F6F900F0CCF900F01EF900F060F9BB
:1021400000F0B8F800F0DDF800F0A0F9C848FFF79B
:102150007BFD002801D000F0B5FA864C002220213A
:10216000200002F0FAFD00221021200002F0F5FD0F
:1021700000220821200002F0F0FDFA20800003F088
:102180000FFA01222021200002F0E7FD0122102198
:10219000200002F0E2FD01220821200002F0DDFD16
:1021A00002F08FFA904A1421012002F042FB8F497D
:1021B00008608F4A1421012002F03BFB8D49086022
:1021C0008D4A0321012002F034FB8C490860A94AA2
:1021D0000121012002F02DFBA7490860A74A012137
:1021E000012002F026FBA6490860A64A032101202F
:1021F00002F01FFBA4490860B14A0021B14802F077
:1022000093FAB1490860B14A0021BB4802F08CFA48
:10221000BA490860BA4A0021BA4802F085FABA49B8
:102220000860BA4A0021BA4802F07EFAB94908604B
:1022300002F05AFAFEE738B592B0382100242200A5
:1022400004AD2800FFF742FB102122006D46280054
:10225000FFF73CFB8020800003F0B8F902250495CD
:102260008020400007900894402009900B950C9521
:102270000D9408200E90802080020F90C020C00492
:10228000109080208005119004A803F0D3F9002855
:1022900001D000F017FA07200090019502940394F2
:1022A0000221684603F030FC002801D000F00AFA51
:1022B00013B030BD10B5984C98482060D648606087
:1022C0000020A0600121E16020616061A061E06107
:1022D0002062200003F086FD002801D000F0F2F912
:1022E0000021200004F09EF9002801D000F0EAF956
:1022F0000021200004F0C9F9002801D000F0E2F923
:1023000010BD30B587B010210024220003AD280095
:10231000FFF7DCFA0C2122006D462800FFF7D6FA01
:10232000534DBE4828606C60AC60BD48E8602C61CD
:102330006C61AC612800FFF755FC002801D000F06B
:10234000C1F980204001039003A92800FFF788FD10
:10235000002801D000F0B6F9009401940294694677
:10236000280004F0C7F9002801D000F0ABF907B04D
:1023700030BD00000004005010B5C54CC5482060B9
:10238000E120400260600020A060E06020610C213C
:102390006161A061E061206260620820A06280202B
:1023A0000002A063200000F095F9002801D000F0A1
:1023B00089F90021200004F006FA002801D000F07D
:1023C00081F90021200004F029FA002801D000F052
:1023D00079F9200004F0D4F9002801D000F072F956
:1023E00010BD000060180240B4C800086C710020E5
:1023F000CCC8000870710020E4C800087471002087
:1024000010B5A54CA5482060E12040026060002086
:10241000A060E06020610C216161A061E061206248
:1024200060620820A06280200002A063200000F00B
:1024300051F9002801D000F045F90021200004F0F6
:10244000C2F9002801D000F03DF90021200004F07D
:10245000E5F9002801D000F035F9200004F090F9EA
:10246000002801D000F02EF910BD00003410024009
:102470009C6C0020FCC800087871002014C900087A
:102480007C7100202CC900088071002080B5844830
:1024900084490160E1218902416000218160C160BD
:1024A00001610C2242618161C1610162416281620C
:1024B00000F010F9002801D000F004F901BD00007F
:1024C000D4C60008252600085C710020F8C6000864
:1024D00080B5012074490A6802430A60096808400F
:1024E00000900098002203210B2004F067FA0B20D3
:1024F00004F06EFA01BD0000312600086071002072
:102500001CC700083F2600086471002040C700086F
:102510004D26000868710020F86B0020005800402C
:10252000F0B589B00C210024220006AD2800FFF789
:10253000CDF9182122006D462800FFF7C7F90120C8
:10254000FFF7E6FD0220FFF7E3FD1021A020C00504
:10255000FFF7C2FD80273F023900A020C005FFF72A
:10256000BDFD08215148FFF7B9FD10214F48FFF785
:10257000B5FD20214D48FFF7B1FD1026009601253D
:1025800001950294039404946946A020C00504F0C8
:1025900092FA009701950294039404946946A0204E
:1025A000C00504F088FA0820009001950294039475
:1025B000049469463D4804F07EFA00960195029421
:1025C000039404946946394804F075FA2020009079
:1025D00001950294039404946946344804F06BFA1C
:1025E00033490020FFF77CFD8020069006A82900D3
:1025F00001724472857206A804F0E2FA002280217A
:10260000A020C005FFF75AFD00228021A020C005B0
:10261000FFF746FD09B0F0BD6621C100002C014066
:10262000FFF9000010B50400012002F0F1F8FBE70B
:1026300010B5040004F040FB04F076FB10BD10B5AB
:10264000040004F032FD04F035FDFCE710B5040091
:1026500004F0E2FE05F018F8FCE710B5040020686D
:102660001449884201D105F051F820681249884286
:102670000DD112480168491C016011480168002908
:1026800002D00168491E01602000FDF725FE10BD43
:10269000C06700200038014054680020004400401A
:1026A000E8680020004C0040381002400004005050
:1026B000010018000010004000400140AC710020F3
:1026C000B071002000B572B6FEE70268531C0360CB
:1026D0001170704710B50400002C01D1012037E0C3
:1026E000A0690028FFD188202058002805D10020AB
:1026F00084216054200005F064F824208821605073
:10270000206800680121884321680860A06A0028C9
:1027100002D0200000F05AFC200000F0ABFA0128A3
:1027200001D1012014E0206840680A490140206876
:102730004160206880682A21884321688860206879
:1027400000680121014320680160200000F0B2FC14
:1027500010BD0000FFB7FFFF38B50400002C01D109
:1027600001201DE02420882160502068006801219C
:10277000884321680860002520680560206845605E
:1027800020688560200005F0DBF890202550882027
:1027900025508C202550E56625678420255400208F
:1027A00032BD70B504000D0016008C202058202882
:1027B00033D1002D03D0300080B2002801D1012098
:1027C0002CE0A06880214901884207D120690028B7
:1027D00004D12800C00701D501201FE00020E066D9
:1027E00020683D49884211D02068406800020DD51C
:1027F000EFF31080012181F310882168096880229D
:10280000D2040A4321680A6080F31088320092B231
:102810002900200000F014FD00E0022070BD70B51A
:1028200004000E00150088202058202852D1002EC8
:1028300003D0280080B2002801D101204BE0A0681D
:1028400080214901884207D12069002804D1300045
:10285000C00701D501203EE02665542025525620B0
:10286000255200209021605021218822A150E16F43
:1028700000291DD01949E26FD1621949E26F116335
:102880001849E26F5163E16F88632B009BB22068A7
:1028900002002832216DE06F02F028FB002807D0EB
:1028A000102090216050202088216050012012E0EB
:1028B000402021680862EFF31080012181F3108825
:1028C0002168896880220A4321688A6080F3108821
:1028D000002000E0022070BD008000404D34000860
:1028E0009F340008C9340008FEB504002068C76999
:1028F000206805682068806800909A4838400290F7
:10290000029800280FD1202007420CD02840002830
:1029100002D10098C00006D5606F002802D02000C8
:10292000616F88479DE10298002800D1A9E08E4898
:1029300000990140002904D18C492940002900D187
:102940009FE03900C90709D5E90507D501212268AB
:1029500011629022A25811439022A15002210F42ED
:102960000AD0009AD20707D5226811629022A25895
:10297000042313439022A3500422174209D0009B42
:10298000DB0706D523681A629022A25811439022D1
:10299000A15008210F420CD0AA0603D4009A10407F
:1029A000002806D020680162902020580143902022
:1029B000215080200001074209D0690107D5216814
:1029C000086290202058202101439020215090201F
:1029D0002058002854D0202007420BD0284000283F
:1029E00002D10098C00005D5606F002802D02000F9
:1029F000616F8847902020580190402620688068A9
:102A00003040002804D1019828210140002931D00C
:102A1000200000F0E7FC206880680640002E25D0EA
:102A2000EFF31080012181F310882168896840222A
:102A300091432268916080F31088802020580028FC
:102A400010D088488021615888638020205802F087
:102A5000EFFA002814D08020205880216158896B1B
:102A600088470DE0200004F0BDFF09E0200004F0DD
:102A7000B9FF05E0200004F0B5FF00209021605070
:102A8000EFE0E06E012800D0B4E01020074200D152
:102A9000B0E0054200D1ADE021680862206880689E
:102AA000400665D58020205800684668300080B216
:102AB000002856D030005C21615A80B2884250D242
:102AC0005E20265220208021615809680968014053
:102AD00000293BD1EFF31081012282F31088226894
:102AE0001268614B13402268136081F31088EFF382
:102AF0001081012282F310882268926801239A4390
:102B000023689A6081F31088EFF31081012282F329
:102B100010882268926840239A4323689A6081F360
:102B200010888C2160500020E066EFF310800121B6
:102B300081F310882168096810229143226811608E
:102B400080F310888020205802F02CFA02202067A1
:102B50005C20205A5E21615A411A89B2200004F09B
:102B600042FF7EE00F080000010000102001000479
:102B70005C20205A5E21615A461A5E20205A0028A5
:102B800037D0300080B2002833D0EFF3108001211D
:102B900081F3108821680968344A0A4021680A6074
:102BA00080F31088EFF31080012181F310882168F1
:102BB00089682F4A0A4021688A6080F310882020A3
:102BC0008C2160500020E0666067EFF310800121E7
:102BD00081F31088216809681022914322681160EE
:102BE00080F3108802202067310089B2200004F0B1
:102BF000FAFE36E080204003074208D000994902DF
:102C000005D521680862200004F0EEFE29E080204E
:102C100007420CD02840002802D10098000206D5B7
:102C2000A06F002802D02000A16F884719E0402043
:102C3000074206D02840002803D0200000F079FC8D
:102C40000FE0380205D5680003D5200004F0CDFE62
:102C500007E0F80105D5002D03D5200004F0C6FEDD
:102C6000FFE7F7BD1B350008FFFEFFFFDFFEFFFF9C
:102C7000FEFFFFEFF8B584B0060000273800694674
:102C80000870AE4831688142FFD0B26831691143A3
:102C900072690A43F169114332681268A84B134004
:102CA0000B433268136032685268A64B1340F268D7
:102CB0001A4333685A60B26903923268824203D081
:102CC0000399326A0A430392316889689E4A0A402E
:102CD00003991143326891603168C96A0F229143A8
:102CE000726A0A433168CA623168B34A914215D1A7
:102CF000B24909688907890F002905D0022905D042
:102D000006D3032906D007E03C0050E002244EE041
:102D100004244CE008244AE0102448E03168A84A22
:102D2000914216D1A54909680C220A40002A06D012
:102D3000042A08D0082A04D00C2A06D007E03C0058
:102D400035E0022433E0042431E008242FE010248D
:102D50002DE031689B4A914201D13C0027E0316867
:102D6000994A914201D13C0021E0316881421DD154
:102D700092490968C02212010A40002A0CD0802121
:102D8000C9008A420CD0802109018A4206D0C021A4
:102D900009018A4206D007E03C0008E0022406E070
:102DA000042404E0082402E0102400E01024316828
:102DB000814264D12000C0B2002806D0022808D089
:102DC000042808D008280AD00CE002F0C3FF050050
:102DD0000CE0B64D0AE002F05DFF050006E080253C
:102DE0002D0203E03D00012069460870002D00D14E
:102DF000D6E02800AE49726A02235A43895A02F08B
:102E000056FA02900298716803225143884206D311
:102E100070688021490148430299884203D2012009
:102E200069460870BCE02800A149726A02235A432F
:102E3000895A02F03CFA002180225200002304F05B
:102E4000D7FD02000B00706840080021801859412E
:102E50007268002304F0E5FD01900198C02189000B
:102E6000884208D3019880214903884203D20198FF
:102E70003168C86094E001206946087090E08025C0
:102E80002D02F069A84247D12000C0B2002806D028
:102E9000022808D0042808D008280AD00AE002F046
:102EA00059FF05000AE0814D08E002F0F3FE05003D
:102EB00004E003E03D00012069460870002D6FD05A
:102EC00028007B49726A02235A43895A02F0EFF9BB
:102ED00002214843716849084018716802F0E7F917
:102EE00001900198102813D301988021490288424B
:102EF0000ED20199A2480840019949084907490F93
:102F0000014368464180684640883168C86047E0B0
:102F100001206946087043E02000C0B2002806D0B6
:102F2000022808D0042811D0082813D013E002F09A
:102F300011FF050013E05D4D11E000BF008000406F
:102F4000F369FFCFFFCFFFFFFFF4FF1102F0A2FEF6
:102F5000050004E003E03D00012069460870002DF3
:102F60001ED028005249726A02235A43895A02F03D
:102F70009EF9716849084018716802F098F901904B
:102F80000198102809D3019880214902884204D26F
:102F9000019880B23168C86002E00120694608707B
:102FA00001206A217052682170527767B7676846BE
:102FB000007805B0F0BD00BF003801405410024059
:102FC0000044004000480040004C004000B528216B
:102FD000415C090707D5016849686A4A0A40816B64
:102FE0001143026851602821415CC90707D5016877
:102FF0004968654A0A40C16A114302685160282144
:10300000415C890707D501684968604A0A40016B3D
:103010001143026851602821415C490707D50168C6
:1030200049685B4A0A40416B11430268516028219C
:10303000415CC90607D501688968564A0A40C16BD8
:103040001143026891602821415C890607D5016817
:103050008968514A0A40016C114302689160282135
:10306000415C490614D5016849684C4A0A40416CE4
:10307000114302685160416C80225203914207D192
:1030800001684968464A0A40816C114302685160F0
:103090002821415C090607D501684968BF4A0A40F2
:1030A000C16C11430268516000BD00000024F400AF
:1030B0008CC900087CB50500002490202C5004F039
:1030C000EFFC06002868006800071ED5B448009091
:1030D0003300002280218903280000F063F80028D3
:1030E00013D0EFF31080012181F31088296809685B
:1030F000802291432A68116080F310882020882163
:10310000685084202C54032039E028680068400768
:103110002BD5A3480090330000228021C90328004A
:1031200000F040F8002820D0EFF31080012181F357
:103130001088296809689B4A0A4029680A6080F358
:103140001088EFF31080012181F3108829688968C5
:10315000012291432A68916080F3108820208C21FD
:10316000685084202C54032009E0202088216850D6
:103170008C216850EC662C6784202C54002076BD8E
:10318000F0FF0000FF7FFFFFFFFFFDFFFFFFFEFFDF
:10319000FFFFFBFFFFEFFFFFFFDFFFFFFFFFEFFF83
:1031A000FFFF9FFFFEB504000F00089D2068C06967
:1031B0003840B84201D1012000E000206946097979
:1031C00088423BD10020C0438542EFD004F068FC28
:1031D0000299401A854201D3002D01D103202EE02F
:1031E000206800684007E1D5802FDFD0402FDDD078
:1031F00008262068C069304000280BD0206806628D
:10320000200000F0EFF89020265000208421605428
:10321000012014E0802000012168C96901400029D3
:10322000C4D021680862200000F0DCF82020902142
:103230006050002084216054032000E00020FEBD87
:1032400070B5030099655C201A525E201A52002066
:103250005867802464019D68A5420AD11D69002D2C
:1032600003D1794D60269D5324E0FF2560269D53B0
:1032700020E09D68002D0AD11D69002D03D1FF2596
:1032800060269D5316E07F2560269D5312E09D68C1
:1032900080267605B5420AD11D69002D03D17F2510
:1032A00060269D5306E03F2560269D5302E0050001
:1032B00060269D539025585122208C255851EFF3BC
:1032C0001080012585F310881D68AD6801262E4306
:1032D0001D68AE6080F31088586E8025AD05A84249
:1032E00030D1100068255D5B80B2A8422AD398686F
:1032F000A04205D11869002802D16C48586701E046
:103300006B485867186900280DD0EFF3108001242E
:1033100084F310881C68246880256D0025431C6890
:10332000256080F31088EFF31080012484F3108867
:103330001C68A46880256D0525431C68A56080F382
:10334000108829E09868A04205D11869002802D1A8
:103350005848586701E058485867186900280ED047
:10336000EFF31080012484F310881C6824689025F2
:103370006D0025431C68256080F310880CE0EFF396
:103380001080012484F310881C68246820252543BC
:103390001C68256080F31088002070BDFFFFF7FFD8
:1033A000FFFFFF01DFFEFFFFEFF31081012282F339
:1033B000108802681268C0239A4303681A6081F378
:1033C0001088EFF31081012282F31088026892685E
:1033D0003A4B13400268936081F3108820218822C1
:1033E0008150704700B5EFF31081012282F31088FD
:1033F00002681268324B13400268136081F3108830
:10340000EFF31081012282F31088026892682D4B3D
:1034100013400268936081F31088C16E01290CD1BA
:10342000EFF31081012282F31088026812681023E2
:103430009A4303681A6081F3108820218C228150FE
:103440000021C166416700BDFF01000038B50400DE
:10345000A56A2068006880061DD4002056216852A5
:10346000EFF31080012181F3108829688968802298
:1034700091432A68916080F31088EFF31080012156
:1034800081F310882968096840220A4329680A6084
:1034900080F3108802E0280002F02BF831BD38B527
:1034A0000400A56A280004F001FB31BD4D39000875
:1034B000593700085936000863350008FFFF7FFFC1
:1034C000DFFEFFFFFEFFFFEFF8B50400A56A8820CE
:1034D0002F588C202E5828688068000607D5212F89
:1034E00005D10020562168522800FFF75DFF2868AB
:1034F0008068400607D5222E05D100205E21685243
:103500002800FFF76FFF90202858102101439020DA
:103510002950280004F066FAF1BD38B50400A56A08
:1035200000205E21685256216852280004F05AFAA1
:1035300031BD10B50400EFF31080012181F3108834
:1035400021680968402291432268116080F3108845
:103550002020882160500020A067200001F0C9FFD2
:1035600010BD70B504006020255A8C2020582228F8
:103570006BD12068406A0600300029000140A06D30
:103580000170A06D401CA0655E20205A401E5E2187
:1035900060525E20205A00285DD1EFF31080012197
:1035A00081F3108821680968694A0A4021680A6025
:1035B00080F31088EFF31080012181F310882168D7
:1035C0008968012291432268916080F3108820204D
:1035D0008C21605000206067206721685D4A91421D
:1035E00010D02168496809020CD5EFF3108101223F
:1035F00082F3108822681268D34B1340226813604C
:1036000081F31088E16E01291BD1E066EFF3108091
:10361000012181F3108821680968102291432268F2
:10362000116080F3108810202168C96901400029C9
:1036300001D0216808625C20215A200004F0D3F9EF
:1036400009E0200001F05FFF05E0206880690821A3
:1036500001432068816170BDF8B504006020255ADF
:103660008C20205822286BD12068406A0600A06D6B
:103670000700280030403880A06D801CA0655E20C7
:10368000205A401E5E2160525E20205A00285DD1E3
:10369000EFF31080012181F31088216809682C4A1A
:1036A0000A4021680A6080F31088EFF3108001213E
:1036B00081F3108821688968012291432268916012
:1036C00080F3108820208C216050002060672067E4
:1036D0002168204A914210D02168496809020CD51E
:1036E000EFF31081012282F3108822681268964B52
:1036F00013402268136081F31088E16E01291BD109
:10370000E066EFF31080012181F3108821680968D9
:10371000102291432268116080F3108810202168E4
:10372000C9690140002901D0216808625C20215A42
:10373000200004F058F909E0200001F0E4FE05E063
:10374000206880690821014320688161F1BD000083
:10375000DFFEFFFF00800040FEB504006020205A1D
:103760006946C8802068C569206807682068806845
:1037700002908C202058222800D0DEE06820205AB9
:103780006946488068464088002800D1AAE0202683
:10379000354200D1A6E02068406A694688806846C4
:1037A00080886946C9880140A06D0170A06D401CE9
:1037B000A0655E20205A401E5E2160522068C069CC
:1037C00005006807400F002831D02800C00709D540
:1037D000F80507D501202168086290216158084347
:1037E00090216050022005420AD00299C90707D5EE
:1037F000216808629021615804220A439021625096
:1038000004210D4209D0029AD20706D5226811621E
:103810009021615808439021605090202058002842
:1038200005D0200004F0DEF80020902160505E20DA
:10383000205A0028A6D1EFF31080012181F31088CF
:1038400021680968BF4A0A4021680A6080F310882D
:10385000EFF31080012181F3108821688968BA4A4A
:103860000A4021688A6080F310888C20265000204E
:10387000606720672168B54A914210D02168496885
:1038800009020CD5EFF31081012282F3108822681F
:1038900012682D4B13402268136081F31088E16E8B
:1038A00001291BD1E066EFF31080012181F310881C
:1038B00021680968102291432268116080F3108802
:1038C00010202168C9690140002901D021680862DF
:1038D0005C20215A200004F086F853E7200001F014
:1038E00012FE4FE75E20205A69460880684600882D
:1038F000002828D0684600886821615A884222D270
:10390000EFF31080012181F3108821688968904AC3
:103910000A4021688A6080F310888E486067EFF360
:103920001080012181F310882168096820220A4350
:1039300021680A6080F3108805E02068806908210A
:10394000014320688161F7BDFFFFFFFBF8B584B03C
:1039500004006020205A6946C8802068C569206834
:1039600007682068806802908C202058222800D0A8
:10397000E0E06820205A6946488068464088002870
:1039800000D1ACE02026354200D1A8E02068406A92
:1039900069468880A06D0390684680886946C9881A
:1039A000014003980180A06D801CA0655E20205A14
:1039B000401E5E2160522068C06905006807400F04
:1039C000002831D02800C00709D5F80507D5012007
:1039D00021680862902161580843902160500220BC
:1039E00005420AD00299C90707D5216808629021CB
:1039F000615804220A439021625004210D4209D0EB
:103A0000029AD20706D522681162902161580843B4
:103A10009021605090202058002805D0200003F00D
:103A2000E1FF0020902160505E20205A0028A4D1A0
:103A3000EFF31080012181F3108821680968414A61
:103A40000A4021680A6080F31088EFF3108001219A
:103A500081F31088216889683B4A0A4021688A609E
:103A600080F310888C202650002060672067216832
:103A7000364A914210D02168496809020CD5EFF30B
:103A80001081012282F3108822681268324B1340A1
:103A90002268136081F31088E16E01291BD1E06672
:103AA000EFF31080012181F310882168096810224A
:103AB00091432268116080F3108810202168C96941
:103AC0000140002901D0216808625C20215A2000B1
:103AD00003F089FF51E7200001F015FD4DE75E205E
:103AE000205A6946088068460088002828D0684621
:103AF00000886821615A884222D2EFF310800121A8
:103B000081F3108821688968114A0A4021688A6017
:103B100080F3108811486067EFF31080012181F372
:103B200010882168096820220A4321680A6080F30E
:103B3000108805E0206880690821014320688161C0
:103B400005B0F0BDFFFEFFFFFEFFFFEF008000406D
:103B5000FFFFFFEF63350008FFFFFFFB593600084A
:103B600070B50D78002D11D00C0004E0491C0E78C2
:103B7000964207D0401C290000F032F8002805D0FA
:103B8000010023005B1C1A78002AEFD170BD2E00C3
:103B9000431C0178401C0942FBD1C01A7047FEE764
:103BA0000CB418B583B004000A0006A80290019472
:103BB0000020009002AB01A9084878441E3003F0B1
:103BC0007BFF0021019A1170002801D40198001B8D
:103BD00004B0019910BC03B0084700BFEFEAFFFF33
:103BE000C9B202788A4203D0401C002AF9D10020D1
:103BF0007047FEE770B4103A03D378C9103A78C022
:103C0000FBD2530701D318C918C001D508C908C091
:103C1000D20704D30B880380891C801C002A01D59D
:103C20000B78037070BC70478B0701D18307E1D01C
:103C3000124205D00B78491C0370401C521EF9D16A
:103C40007047FEE7FEB5002069460870FCF778FA79
:103C5000D94F01203871FDF7ADFDD84DD8A128000E
:103C6000FFF79EFFD74C00222021200001F075F8BD
:103C70002800FFF78DFF80B2FDF7CEFD0600300073
:103C8000C0B200280FD16420FCF7A0FE060001227C
:103C90002021200001F061F83000C0B2002802D0DD
:103CA0003000C0B2FAE1FDF785FDC7492800FFF7F3
:103CB00077FF00222021200001F04FF82800FFF7B5
:103CC00067FF80B2FDF7A8FD694608706846007876
:103CD000002810D16420FCF779FE694608700122A3
:103CE0002021200001F039F868460078002802D031
:103CF00068460078D2E100222021200001F02DF852
:103D0000192001F04DFC01222021200001F025F8AE
:103D1000192001F045FCB8790028ECD0FDF74AFDE8
:103D2000A64DDF492800FFF73BFF0022202120009D
:103D300001F013F82800FFF72BFF80B2FDF76CFDB0
:103D400007003800C0B200280FD16420FCF73EFE07
:103D5000070001222021200000F0FFFF3800C0B240
:103D6000002802D03800C0B298E1FDF723FDCD490C
:103D70002800FFF715FF00222021200000F0EDFFB2
:103D80002800FFF705FF80B2FDF746FD0600300072
:103D9000C0B200280FD16420FCF718FE06000122F3
:103DA0002021200000F0D9FF3000C0B2002802D04E
:103DB0003000C0B272E1FDF7FDFCBB492800FFF7FF
:103DC000EFFE2800FFF7E4FE80B2FDF725FD0700B7
:103DD00000222021200000F0C0FF3800C0B20028DF
:103DE00008D16420FCF7F2FD070001222021200009
:103DF00000F0B3FFFDF7DEFCAC492800FFF7D0FE72
:103E00002800FFF7C5FE80B2FDF706FD0600002280
:103E10002021200000F0A1FF3000C0B2002808D10E
:103E20006420FCF7D3FD060001222021200000F0D1
:103E300094FFFDF7BFFCBF492800FFF7B1FE280043
:103E4000FFF7A6FE80B2FDF7E7FC07000022202165
:103E5000200000F082FF3800C0B2002808D16420A2
:103E6000FCF7B4FD070001222021200000F075FFBF
:103E7000FDF7A0FCB0A2B1492800FFF791FE280091
:103E8000FFF786FE80B2FDF7C7FC06000022202166
:103E9000200000F062FF3000C0B2002808D164208A
:103EA000FCF794FD060001222021200000F055FFC0
:103EB000FDF780FCA2480268A2492800FFF770FEC7
:103EC0002800FFF765FE80B2FDF7A6FC0700002280
:103ED0002021200000F041FF3800C0B2002803D1AB
:103EE0006420FCF773FD0700FDF764FC9649280089
:103EF000FFF756FE2800FFF74BFE80B2FDF78CFC63
:103F0000060000222021200000F027FF3000C0B270
:103F1000002808D16420FCF759FD06000122202169
:103F2000200000F01AFF03F0BBFD0190FA20800092
:103F300001F036FBFDF73EFC84492800FFF730FE18
:103F40002800FFF725FE80B2FDF766FC070000227F
:103F50002021200000F001FF3800C0B2002808D165
:103F60006420FCF733FD070001222021200000F02F
:103F7000F4FEFDF71FFC76492800FFF711FE28002C
:103F8000FFF706FE80B2FDF747FC69460870002285
:103F90002021200000F0E1FE6420FCF717FD060060
:103FA00001222021200000F0D8FE3000C0B23928C4
:103FB0000CD1002712E000BF906F0020183B0020BA
:103FC00041540D00000400501CCB000803F068FDB4
:103FD0000199401A5F498842A8D301270022202175
:103FE000200000F0BAFEFDF7E5FB5B492800FFF773
:103FF000D7FD2800FFF7CCFD80B2FDF70DFC694628
:10400000087068460078002809D16420FCF7DEFCBF
:104010006946087001222021200000F09EFEFA204F
:10402000400001F0BDFAFDF7C5FB4C492800FFF741
:10403000B7FD2800FFF7ACFD80B2FDF7EDFB0600F1
:104040003000C0B2002803D16420FCF7BFFC06009A
:10405000FDF7B0FB42492800FFF7A2FD2800FFF75B
:1040600097FD80B2FDF7D8FB05000022202120003B
:1040700000F073FE2800C0B2002808D16420FCF7CD
:10408000A5FC050001222021200000F066FE002290
:104090002021200000F061FE2800C0B2FEBD00001B
:1040A00028CB0008DCCB000834CB000840CB00084C
:1040B000F7B582B01F000024200069460870019403
:1040C000FA20800001F06CFA3B78049A0399029878
:1040D000FDF7E0FA03F0E4FC0500224E307D0128F4
:1040E0000CD02148807D332808D003F0D9FC401B38
:1040F0001E498842F1D3012069460870307D0128AD
:1041000003D12000307520000DE01749887D332849
:1041100002D133208C7500E001200100C9B20029D2
:1041200001D0C0B203E0384909783970C0B205B097
:10413000F0BD00004CCB00083230000044CA00083B
:104140002C00002044C8000858CB000864CB0008AD
:1041500070CB0008E19304007CCB000888CB0008FA
:1041600060C80008906F0020CC6F0020D1070000CD
:10417000F7B582B000252F0065486946097A405C92
:1041800000280BD1684680898021C900884203DA63
:1041900068468089002801D1042032E0049A6846EC
:1041A00081896846007AFDF753FA03F079FC0090A4
:1041B00000221021A020C00500F0CFFD554CE07C6E
:1041C00001280BD0544E03F06BFC0099401A30606C
:1041D00030684E498842F1D301200700A026F60539
:1041E00001221021300000F0B8FD3800C0B20128D3
:1041F00004D100221021300000F0AFFDE57438003A
:10420000C0B205B0F0BD0000106A002070B5060015
:104210000024FDF7CFFA414D41492800FFF7C0FCCB
:104220002800FFF7B5FC80B2FDF7F6FA050028007C
:10423000C0B2002805D001203649C8730F20394983
:104240008875012033490870FDF7B4FA2800C0B220
:1042500070BD70B505000C0000200600314948759E
:104260002B482900C9B2405C002806D02800C0B203
:10427000FDF770FA3000C0B200E0022070BD00000F
:10428000F7B582B0002427000094049802780399BF
:104290000298FDF79DFA03F003FC0500FA20800068
:1042A00001F07EF91B4EF07F012809D003F0F8FBE6
:1042B000401B1D498842F5D3012007002000B0773C
:1042C000F07F012802D12000F07727003800C0B22B
:1042D00005B0F0BD10B50024FDF76CFA13480C4989
:1042E0004278895C00290FD00E494978002904D111
:1042F00042780F490F48FFF753FC0E48FFF748FC80
:1043000080B2FDF789FA040010BD000011270000FB
:10431000A8710020906F0020B4710020183B00208D
:1043200054CA0008CC6F0020214E0000106A002003
:10433000CCC90008183B002010B50024E120400241
:1043400001F024F801F00AF8FBF7B8FEE4B220000F
:1043500010BD10B5002004007D497E4A11607E49E1
:104360007E4A116002217E4A11707E4908607E49B2
:104370000870FFF767FC0100C9B2002901D0C0B284
:1043800000E0C0B210BDF1B583B0002002900398E8
:104390000090764D009873490860754C0098210094
:1043A00000F085FF01910098210000F080FF0400DB
:1043B000704E01983C2100F077FF3160E1273F010A
:1043C0000198390000F073FF08003C2100F06CFFF9
:1043D00070600198390000F067FFB060201D072170
:1043E00000F062FFB16103273D420FD12800642134
:1043F00000F05AFF002906D12800C821490000F02A
:1044000053FF002902D1B720400001E0FF206E30A9
:10441000844217D32F40002F0FD12800642100F0D1
:1044200043FF002906D12800C821490000F03CFFC5
:10443000002902D1B720400001E0FF206E30241A8D
:104440006D1CD0E74B4E4C4828187061F461002079
:1044500030613D420ED12800642100F025FF002983
:1044600006D12800C821490000F01EFF002901D113
:10447000012000E000204149C0B23022504308181A
:10448000316904225143405884421FD33D420ED12A
:104490002800642100F008FF002906D12800C82167
:1044A000490000F001FF002901D1012000E00020B7
:1044B0003249C0B2302250430818316904225143B6
:1044C0004058241A3069401C3061C2E7641CF46013
:1044D0000020306270692A49401870613069401CC0
:1044E0003061029804B0F0BDF8B506000D0014006C
:1044F0001F003A0021002800164B1B689847F1BDA9
:1045000010B50400200015490968884710BD70B532
:1045100004000D0016001B48217809066278120479
:104520000A43A17809021143E2780A431649511857
:1045300001600068FFF727FF70BD72B601210A4ACB
:10454000117062B60221064A117070470000000027
:104550000F450008B87100203B450008BC710020E1
:1045600055720020C471002054720020B207000070
:1045700080510100146F002094F8FFFFF4C400087C
:104580006C070000C07100208081557CFEB50600DC
:104590000D00140000270020009002AB220029002B
:1045A0003000FFF785FDC0B2FEBD76B505000C00FA
:1045B000002601AA21002800FFF762FEC0B276BDE6
:1045C00038B5040000252000C0B2FDF797F8280098
:1045D000C0B232BD70B505000C0000262A002100D3
:1045E00089B20020FFF7C4FDC0B270BD70B50500F0
:1045F0000C0000262A00210089B20020FFF7B8FD38
:10460000C0B270BD10B5040001212000C0B2FFF798
:1046100020FE10BDF0B5020052B2002A1CD40322C5
:104620003D4B040064B2A40804256C431C59FF25CB
:104630001600064008277E43B540AC438D01EDB21D
:1046400002400826724395402543020052B2920868
:10465000042462439D5022E00F24304B03220500C6
:104660006DB22540083DAE0804256E4305006DB2CD
:104670002C40083CA40804256C431F59FF24A44681
:1046800015000540082465436446AC40A7438C01EF
:10469000E4B2024008256A4394403C439C51F0BD7B
:1046A00080B51F48006804F091FD012801D004F096
:1046B00084FE01BD80B500210420C043FFF7AAFF9E
:1046C00001BD00B5EFF30580002802D00520C043EE
:1046D00009E014480168002903D10121016000208C
:1046E00001E00020C04300BD10B5EFF305800028B5
:1046F00002D00520C0430DE00A4C2068012807D1F4
:10470000FFF7D8FF0220206004F0C6FA002001E085
:104710000020C04310BD000000E400E01CED00E0FC
:1047200010E000E040710020F8B588B006000F00EE
:10473000140000250595EFF30580002865D13000B1
:10474000002862D080200690182004900795002051
:10475000C0430390002C35D02068002801D0206889
:104760000790A069002801D0A0690490049800284F
:1047700007D00498392804D201206168014000293B
:1047800001D0002042E06169002902D061698908F6
:104790000691A16800290AD0E1685C2907D3216944
:1047A000002904D06169002901D003900BE0A068C2
:1047B000002808D1E068002805D12069002802D12E
:1047C000039500E00395039801280DD1A06802909D
:1047D00020690190049800903B00069A07993000E8
:1047E00004F02AF9059010E0039800280DD105A8DF
:1047F0000190049800903B00069A92B2079930000D
:1048000004F052F9012800D00595059809B0F0BDD3
:1048100038B50400EFF30580002802D00525ED43EC
:1048200005E00025002C02D0200004F00DFA28003D
:1048300032BDF8B584B006000F00140000250295C3
:10484000EFF3058000284BD1002E49D0002F47D030
:104850000020C0430190002C1ED0A06800280DD07D
:10486000E06850280AD32069002807D06169300029
:104870007843814202D3012001900EE0A068002815
:104880000BD1E068002808D12069002805D16069B3
:10489000002802D1019500E001950198012809D175
:1048A00000200090A36822693900300004F0F4FD74
:1048B000029008E00198002805D10022390030005C
:1048C00004F02CFE02900298002809D0002C02D09F
:1048D0002068039000E003950399029805F0FBF827
:1048E000029805B0F0BDF7B507000C001D00009759
:1048F00000200600EFF3058100291FD00099002950
:1049000003D0002C01D0002D03D00320C0430600AB
:104910002EE00190002301AA2100009804F0DCFEA3
:10492000012803D00220C043060021E0019800289E
:104930001ED0802040053349086019E00098002807
:1049400001D0002C03D10320C043060010E0002357
:104950002A002100009804F017FE012808D0002D3D
:1049600003D00120C043060002E00220C04306003D
:104970003000FEBDFEB506000C00170000960020BA
:104980000500EFF3058100291FD00099002904D00C
:10499000002C02D00299002903D00320C043050057
:1049A0002DE0019001AA2100009804F08BFF01285E
:1049B00003D00220C043050021E0019800281ED04A
:1049C000802040050F49086019E00098002801D0B8
:1049D000002C03D10320C043050010E0029A2100FF
:1049E000009804F0D7FE012809D00298002803D0CF
:1049F0000120C043050002E00220C043050028005A
:104A0000FEBD000004ED00E070B504002600EFF3E9
:104A10000580002802D00525ED4309E0002E02D1D3
:104A20000325ED4304E000250021300004F0F8FCEC
:104A3000280070BDF1B582B000230868D840002876
:104A400000D1EBE0012508682C009C400440019453
:104A50000198002800D1DFE0032648683040012893
:104A600003D04868304002281ED1029887681C0095
:104A7000022044433000A0408743C86884461C009D
:104A8000022044436046A0403843029CA060029C40
:104A900067682C009C40A7434C6824092C409C402C
:104AA0003C432200029C626048683040032812D0D8
:104AB0000298C7681C00022044433000A04087438E
:104AC000886884461C00022044436046A040384366
:104AD00002000298C26048683040022821D1029842
:104AE000DC0804277C430019076A072000970F247D
:104AF000A4461F000740042467436446BC40009F4F
:104B0000A743BC460F691C00204004246043874033
:104B1000604607433A000298DC0804277C430019EA
:104B20000262029807681C00022044433000A04043
:104B300087434868304084461C0002204443604656
:104B4000A04038430200029802604868C024A402D2
:104B50000440002C60D08E4C9808042778432058DD
:104B600000900F27BC461F003000384008277843CC
:104B7000674687400098B84300900298A027FF0539
:104B8000B84201D1002510E00298824A90420CD030
:104B90000298814A904201D1022506E002987F4A9C
:104BA000904201D1350000E0052500981A0016401A
:104BB00008225643B5400543980804225043255027
:104BC000774A1068019CA0434C68E40202D50400B7
:104BD000019820431060734C2268019DAA434D68E0
:104BE000AD0202D51000019A024322606E4C20688B
:104BF000019DA8434D68AD0302D502000198104302
:104C000020606A4C2268019DAA434D68ED0302D5DD
:104C10001000019A024322605B1C0EE7F7BDF2B55B
:104C200082B0010000220298D040002800D193E019
:104C3000012302981C00944004400094009800282E
:104C400000D187E05248940804256C43005903269C
:104C50000F24150037002F4008256F432500BD4065
:104C600005400195A020C005814201D100250FE03B
:104C70004848814201D11D000AE04748814201D1E4
:104C8000022505E04548814201D1350000E00525B7
:104C90000198844617003000384008277843854043
:104CA0006046A84228D141480568009FBD43056081
:104CB0003D480568009FBD4305603A480568009F70
:104CC000BD43056036480568009FBD430560100080
:104CD00035000540082045432000A84001902C489D
:104CE000950804277D434759019DAF4384469508A5
:104CF00004204543604647510868170002256F436A
:104D00003500BD4005430D60D008042568430D18EB
:104D1000D008042778430818006AA44614006707DF
:104D20007F0F042467436446BC40A04328628C681C
:104D30001500022045433000A84084438C60486839
:104D4000934098434860C8681300022463439E4020
:104D5000B043C860521C66E7F7BD00B51300DBB274
:104D6000002B03D00B009BB2836102E00B009BB2CF
:104D7000836200BD10B442690B009BB213401B0458
:104D80000C00A4B294431C43846110BC7047000023
:104D9000601802400004005000080050000C005051
:104DA0000018024004180240841802408018024093
:104DB00010B50400002C01D1012050E020689B496F
:104DC0004018142100F073FA80002064022025218D
:104DD000605420680068BA4901402068016020687A
:104DE0000068A1680143E0680843216901436069E4
:104DF0000843A1690143E0690843216A014320682F
:104E00000160200000F008FAA0688021C9018842F2
:104E100001D10020606020798006800E616C0860FE
:104E2000E06CA16C4860606800280CD060680528C0
:104E300009D2200000F008FA0020216D0860A06D62
:104E4000616D486003E0002020656065A06500207A
:104E5000E06301212522A15424216054002010BDCB
:104E600070B50400002C01D101203EE020680068EC
:104E7000012188432168086020686C49401814218A
:104E800000F015FA800020640025206805608D4838
:104E9000016801224023E35C1C261E40B2400A4305
:104EA0000260200000F0B8F9606C0560E06CA16C55
:104EB0004860606800280AD06068052807D2200092
:104EC00000F0C2F9206D0560A06D616D4860256538
:104ED0006565A565E56225636563A563E5632800EF
:104EE0002521605424202554002070BDF7B504000E
:104EF0001F00002006002421615C012901D102204D
:104F00004FE0012529002422A1542521615C0129BB
:104F100040D102212522A154E063206800680121CC
:104F20008843216808603B00029A0199200000F044
:104F30004BF9206B002806D0206800680E21014341
:104F4000206801600BE02068006804218843216824
:104F50000860206800680A21014320680160606CD5
:104F60000068C00306D5606C0068802149000143D9
:104F7000606C0160206D002806D0206D00688021E3
:104F800049000143206D01602068006805432068E6
:104F9000056004E08021E163242160542E0030008C
:104FA000C0B2FEBD70B50100002901D101203BE077
:104FB0002520085C022806D00420C8630020242293
:104FC0008854012030E0086800680E2290430A6887
:104FD00010603D484A6C126802404B6C1A600A68C7
:104FE000126801239A430B681A600122354B1C6832
:104FF00040254D5D1C262E401500B54025431D6003
:10500000CB6C8C6C63600B6D002B07D00B6D1B6839
:1050100018400B6D1860886D4B6D586025200A5440
:10502000002024228854002070BD0000F8FFFDBF3E
:10503000F8B50400002005002521615C022904D098
:105040000420E0630120050036E0216809680E2293
:105050009143226811602168096801229143226806
:1050600011601949626C12680A40636C1A6001226F
:10507000144B1E68B4464026A75D1C263E40170010
:10508000B740664637431F60E36CA66C7360236DC0
:10509000002B07D0236D1B681940236D1960A16D8B
:1050A000636D59602521625424216054A06B00284F
:1050B00002D02000A16B88472800C0B2F2BD0000DA
:1050C0000F80FFFF04000240FFFEFFFFF8B5040061
:1050D0003C480568206806681C210420226C0A40B0
:1050E000030093402B40002B19D0064217D02268B2
:1050F0001268920605D42268126804239A43236832
:105100001A60444A1368276C39408840184310607D
:10511000206B002854D02000216B884750E00222E9
:10512000206C0840130083402B40002B1FD01642F8
:105130001DD020680068800608D4206800680A2313
:1051400098432368186001202523E0543148036800
:10515000276C39408A401A430260002024216054A1
:10516000E06A00282CD02000E16A884728E0082067
:10517000226C0A40030093402B40002B20D030408B
:1051800000281DD0206800680E229043226810601D
:105190000123204A1068276CBC460F0061460F406F
:1051A0001900B94001431160E36325202354002016
:1051B00024216054606B002802D02000616B884776
:1051C000F1BD000000000240F0B5C46C856C6C605D
:1051D000046D002C02D0846D456D6C600D4C276809
:1051E0000125AC464025455D1C262E406546B54050
:1051F0003D432560046863608468102C04D1046812
:10520000A2600468E16003E00468A1600468E260F1
:10521000F0BD00000400024010B50400206C8008BE
:10522000042148431149401860642078C0B208380E
:10523000142100F03CF80E49A16401210200D206BD
:10524000D20E9140E16410BD01798906890E0422D5
:105250004A43084BD2180265074A426501220B00F7
:105260005B1E9B079B0F9A408265704700080240B7
:1052700080080240FC08024040090240F446002831
:1052800004D4494200F013F84042604740420029EC
:1052900005D45FD000F00BF84042494260474942D4
:1052A00000F005F84942604703460B43E6D400226C
:1052B000030A8B420BD203098B4219D243088B425B
:1052C0002ED2411A00D20146524110467047FF22A9
:1052D00009023FD012068B4205D3121209028B42FB
:1052E00001D31212090203098B4219D300E0090A03
:1052F000C3098B4201D3CB01C01A524183098B42AF
:1053000001D38B01C01A524143098B4201D34B0197
:10531000C01A524103098B4201D30B01C01A5241FA
:10532000C3088B4201D3CB00C01A524183088B4281
:1053300001D38B00C01A524143088B4201D34B006A
:10534000C01A5241884200D3401A5241CFD201467E
:105350001046704708B504F0FBFB08BD10B56F4858
:1053600000686F49FFF7A3FF0400641E6D486E4993
:1053700001606321C1604460002101618160FCF72C
:1053800031FC002801D0FDF79DF910BDF8B50700EC
:10539000012067490A6802430A60096808400090D2
:1053A0000098644E644830601020B0600024F460BF
:1053B000802030617461B461F461346233207060C4
:1053C0003000FFF7F5FC5D4DEE67B562012200216C
:1053D000092001F0F3FA092001F0FAFA5848286090
:1053E0006F60AC60EC602C610C206861AC61EC61BA
:1053F0002C626C62AC622800FDF7AEF9002801D087
:10540000FDF760F92800FDF765F9002802D0FDF7E7
:1054100059F907E0002201211B2001F0CFFA1B20DF
:1054200001F0D6FAF1BD80B54448FDF75DFA01BD43
:1054300080B53C48FCF74AFC01BD80B53B48FCF711
:1054400045FC01BD70B58EB00400342100252A0052
:1054500001AE3000FCF73AFA20683A4988421CD184
:105460008020800301900B9501A804F073FB0028B5
:1054700001D0FDF727F980210901334802680A436A
:1054800002600068014000910098002201210D2077
:1054900001F094FA0D2001F09BFA2448844211D1C6
:1054A00080218902284802680A430260006801409E
:1054B0000091009800220321152001F07FFA1520A9
:1054C00001F086FA1748844211D1802149021E4812
:1054D00002680A43026000680140009100980022BF
:1054E0000321142001F06AFA142001F071FA0EB0C1
:1054F00070BD10B5040020681149884202D1200017
:10550000FBF722FA10BD10B5040020680C49884250
:1055100002D12000FBF722FA10BD00003800002065
:1055200010270000E86C002000400140346D00208E
:10553000381002409C6B0020080002407C6900206B
:1055400000380140002C0140401002407047704775
:1055500070477047704770477047FEE710B50024EA
:105560000C480168802252000A430260032004F0C4
:105570002BFC002802D00120040001E002F0D2F848
:105580002000C0B210BD04490A68044B1340034315
:105590000B6070470020024000000140FFF9FFFF50
:1055A00070B5040002F07CFA050026000020C0431C
:1055B000864202D004480078361802F071FA401B87
:1055C000B042FAD370BD00BF7D00002030B50400AA
:1055D0000F4801680F4A0A40224302608020800081
:1055E000844212D10C480068062148430B49FFF75A
:1055F0005EFE401C05000A480068400505D5002DE8
:1056000001D06D1EF7E7032000E0002030BD000050
:1056100000700040FFF9FFFF3800002040420F00FB
:105620001470004002480168E020C0010840704743
:1056300008100240F8B584B00400002C01D101200C
:105640004FE201262068304000285CD0B348006853
:10565000382101400291B24800688007800F019014
:105660000298102802D10198032802D00298082835
:1056700008D1AC480068800345D56068002842D155
:1056800001202EE2802040026168814204D1A549B8
:105690000A681043086017E06168A022D2029142B4
:1056A00009D1A0490A688023DB0213430B600A6812
:1056B0001043086008E09B480168B04A0A40026055
:1056C0000168AF4A0A400260606800280DD002F00D
:1056D000E7F9050093480068800314D402F0E0F96C
:1056E000401B6528F6D30320FBE102F0D9F9050041
:1056F0008C480068800306D502F0D2F9401B65286B
:10570000F6D30320EDE12078800776D58348006842
:10571000382101400291824800688007800F019083
:105720000298102802D10198022802D0029800287D
:105730002CD17C490868400504D5E068002801D1D7
:105740000120CEE1BA480268BA4B134062691202E6
:105750001A4302600298002810D10868B64A024035
:10576000206910430860B5480968C90A4A07520F02
:1057700031009140FFF79BFDBD490860BD480068BE
:1057800004F022FB002838D00120AAE1E0680028BC
:1057900021D0644F3868A849014020690843386027
:1057A0003868802149000143396002F079F9050029
:1057B0003868400506D402F073F9401B0328F7D37C
:1057C00003208EE19A4801689A4A0A4061690902F9
:1057D0001143016011E0534F3868A7490140396017
:1057E00002F05EF905003868400506D502F058F968
:1057F000401B0328F7D3032073E12078000734D53A
:105800004648006838210140182908D1B648006888
:1058100080072AD5A069002827D1012061E1A0696D
:10582000002810D0B04F38683043386002F038F9A3
:1058300005003868800718D402F032F9401B0328AD
:10584000F7D303204DE1A84F386801218843386021
:1058500002F026F905003868800706D502F020F925
:10586000401B0328F7D303203BE10427206838407E
:10587000002800D18FE000206946087027480068A2
:105880003821014020290AD198480068800700D4B7
:1058900081E0A068002800D07DE0012021E1802087
:1058A000400593490968014000290AD190490A68D6
:1058B00002430A6009680840039003983000694673
:1058C00008708C480068C00514D48A48006880219C
:1058D000490001438748016002F0E2F8050085486D
:1058E0000068C00506D402F0DBF8401B0328F6D39D
:1058F0000320F6E0A068012804D17C4801680E432B
:1059000006601AE0A06805280ED1784801680F43A8
:10591000076001680E4306600FE000BF08100240F8
:105920000C100240001002407048016801229143AF
:1059300001600168042291430160A06800280ED034
:1059400002F0AEF805006948006880071AD402F03A
:10595000A7F8401B68498842F5D30320C1E002F054
:105960009FF805006148006880070BD502F098F8A1
:10597000401B61498842F5D30320B2E0FFFFFEFFE0
:10598000FFFFFBFF68460078012804D158480168F2
:105990005A4A0A400260E069002800D1A0E0584855
:1059A000006838210140102968D0E069022847D1F9
:1059B000544F3868B3490140396002F071F80090E3
:1059C0008026B60438683040002807D002F068F816
:1059D0000099401A0328F3D3032082E0AB48016802
:1059E000A94A0A40216A1143626A0A43A16A09026C
:1059F0001143E26A0A43216B1143626B0A4302605E
:105A00003968802252040A433A60016880225205B4
:105A10000A43026002F044F805003868304000286C
:105A20005ED102F03DF8401B0328F6D3032058E076
:105A300004100240FF80FFFFFFC7FFFF0024F400B7
:105A4000304E30688F490140316002F029F805007E
:105A50003068800106D502F023F8401B0328F7D3F5
:105A600003203EE089480168894A0A40026037E025
:105A70003800002034000020FFFEFFFFE06901280D
:105A800001D101202DE08148006801900198800734
:105A9000800F216A884221D1019870210140606AFB
:105AA00081421BD10198FE21C9010140A06A000278
:105AB000814213D10198F82189030140E06A8142B3
:105AC0000CD10198E02109050140206B814205D1EC
:105AD0000198400F4007616B884201D0012000E02F
