:020000040800F2
:10000000507A0020E9C50008A7BE0008ABBE000872
:1000100000000000000000000000000000000000E0
:1000200000000000000000000000000081BA00088D
:10003000000000000000000043BA00081D43000853
:10004000E73800083B3900088B3900088F42000868
:10005000D751000833690008577500083DBF0008F4
:10006000077600083109000817760008AFBE0008BF
:100070009F850008B9BE0008BB9600084BAC00087D
:1000800027AD0008D5BE00082BAD0008DBAE000888
:10009000AD500008B7500008FFB200082BBC0008A4
:1000A0005BC00008DFC30008EBC30008A3500008D2
:1000B000DFBE000833BF000879C70008F0B585B07F
:1000C0009627FF00049700240394754D039A049922
:1000D000280001F0ABFA02970194724D019A02993F
:1000E000280001F0A3FA402600946F4D009A3100D9
:1000F000280001F09BFA6D4D3900280001F0DCFA70
:1001000020006B49087000F0BAF800F0AAF800F07F
:1001100050F832212800143001F05EFB00F086FB1D
:100120000525644F22002900380001F07FFA62485B
:1001300001F03AFC002801D002F068F905B0F0BDEA
:10014000F0B585B09627FF00049700240394544D22
:10015000039A0499280001F069FA02970194514D1D
:10016000019A0299280001F061FA402600944E4D50
:10017000009A3100280001F059FA4C4D390028004E
:1001800001F09AFA20004A49087000F078F800F06F
:1001900068F800F00EF832212800143001F01CFB42
:1001A0000525444F22002900380001F03FFA05B030
:1001B000F0BD012041490200CA70002213000B73F8
:1001C00013004B7313008B771300CB771300CB73A3
:1001D00013000B7413004B7413008B741300CB7457
:1001E00013008B7113004B7513008B7513000B708C
:1001F00013004B7013008B7013000B7113004B71C5
:100200008A6013008B732E4913000B7013004B7020
:1002100013008B701300CB7013000B7113004B7124
:1002200013008B711300CB7113000B7213004B7210
:1002300013008B721300CB7213000B7313004B73FC
:1002400013008B731300CB7313000B7413004B74E8
:1002500013008B741300CB7413000B7548758A75EB
:100260007047002017490200CA7148630864486556
:1002700005228A65C86548668866C866704710B5F5
:100280000A4C01221049114802F02FF94021605414
:100290004020205C002802D101200949087110BDCE
:1002A000602F0020C8480020946E0020106E0020AF
:1002B000407200209C710020E86C0020906F0020AC
:1002C000C86F0020106A0020806A00207C6900202E
:1002D000F1B584B00025280069460871B04C6078FB
:1002E000002800D09DE272B6AE4E3000143001F00E
:1002F000DAFAF06362B6F06B002800D117E2F06B17
:10030000007C012800D012E2F06B0078002800D1B8
:100310000DE2022800D133E1032800D16CE104286A
:1003200036D005282DD0062800D15DE10A2800D15D
:100330007FE10C2800D192E00D2800D1BAE10E280F
:1003400054D0142800D196E1152800D1AEE116282A
:1003500000D152E11B2821D01C282ED01D2841D0CD
:100360001E285FD01F2800D1DBE1202800D1A6E0A5
:10037000212800D1C2E0222800D1E0E0232806D0C5
:10038000D5E101208849C8732800A075CFE1CEE1EE
:1003900001208549C8733720A075C8E10120824932
:1003A000C87382A1824803F07FFA002802D030206F
:1003B000A07501E03120A075B9E101207A49C87328
:1003C0007B4E7AA1300003F06FFA002804D1300090
:1003D00003F082FA002802D10220A07501E0322049
:1003E000A075A4E101207049C873A0E1714E724963
:1003F000300003F079FA300003F06EFA80B201F0B9
:10040000BFF86946087168460079002805D00120C8
:100410006549C8730F20A07503E06848C5660120D0
:10042000E07484E1654E634FB2686549380003F0BB
:100430005BFA380003F050FA80B201F0A1F8694687
:10044000087168460079002805D001205649C87314
:100450000F20A07502E0F5660120E07467E101F06D
:100460007FF8564E5421706903F05EFA002805D0DB
:100470007269D0494F4803F037FA0AE05521706994
:1004800003F052FA002804D0326ECB49494803F0F9
:100490002BFA484803F020FA80B201F071F869465F
:1004A000087168460079002805D001203E49C873CC
:1004B0000F20A07502E0F5660120E07437E13D4EA3
:1004C000D349300003F010FA300003F005FA80B28F
:1004D00001F056F86946087168460079002805D091
:1004E00001203149C8730F20A07506E03348C56666
:1004F00001200100E1742C49087618E12F4E2D4FA0
:10050000736A326AD049380003F0EEF9380003F01C
:10051000E3F980B201F034F8694608716846007961
:10052000002805D001202049C8730F20A07505E0E0
:10053000F56601200100E1741B498876F7E01F4E43
:100540001C4F736A326AB849380003F0CDF938009D
:1005500003F0C2F980B201F013F8694608716846E9
:100560000079002805D001200F49C8730F20A0751D
:1005700005E0F56601200100E1740B490877D6E03B
:100580000E48C179491CC1712900E174C566C17961
:10059000042917DB01200449C8730420A075C6E0B4
:1005A000C86F0020106E0020906F002022220000F3
:1005B000946E0020183B002024C50008106A00201B
:1005C000A8C50008F16B89890170F06B8089411C16
:1005D000F26B918101210A00B74B80B21A54B748DF
:1005E000C1732800A075A2E0B4480121C173332172
:1005F000A175290001759AE0FEE700F0B1FFB04E49
:10060000B049300003F070F9300003F065F980B2B2
:1006100000F0B6FF6946087168460079002804D0EA
:100620000120A649C8730F20A0750120A3490870B6
:100630007DE000F095FFA448818D0091036E8268F3
:10064000A2499F4803F050F9A14F012630003870AD
:100650009B4803F041F980B200F092FF69460871AF
:1006600068460079002805D09448C6730F20A0750D
:10067000280038705BE000F073FF934FB88D039053
:10068000B86A02908E4E0096039A0299009803F081
:100690006FF900980D20B98D7054B88D00F070FF7F
:1006A0006946087101208549887540E00120834929
:1006B000C8743CE08048F16B0989405C00282FD069
:1006C000F06B8089401EF16B888100F049FF7C4F00
:1006D000B28E9A49380003F007F9380003F0FCF8AD
:1006E00080B200F04DFF6946087168460079002825
:1006F00017D12800A075611C012002000A70F26B5E
:100700001289714B5A716D4A03009373507028001F
:100710000870280060722800A0722800207200E093
:1007200005E001206549C8733620A075FFE7E07930
:1007300001280FD197480178002904D00421624A8A
:100740005163290001706048406B80B203F0D4FB14
:10075000E57166E0E07A012807D15848C0780128A1
:1007600003D103F00DFCE5725BE0A07B012825D1ED
:10077000894F554EF36CF26C3900B07803F008FDE8
:100780008649012008703878D0304870B878887071
:10079000002300228248006803F0E3FE01220821C2
:1007A000804804F018F9B564F56400F04FF8A573BB
:1007B00037E000BFE8C200080CC30008E07B012856
:1007C00018D1754F404EF36CF26C3900092003F0DC
:1007D000DFFC9620C00002900095009A0299380034
:1007E00000F024FFB564F56400F030F82800E073F1
:1007F000657016E0607C01280CD133482E4982795F
:10080000895C002902D0807900F07CFE657408E0E4
:1008100004C20008207C012803D1634803F0C4FC13
:10082000257405B0F0BD000030C300082348002146
:1008300081600121817070472048002181608170B2
:100840000121817770470000B4C4000801201B49D2
:10085000C870704738B5194CA078002804D0E078EB
:10086000012801D100F085F8504DA87C012808D15D
:100870004F4800F035FF002803D00020A874FFF790
:10088000FEFCE87C002812D00F4801006C31C26EDB
:10089000521C0A60C06E474A904208D3002008608C
:1008A0000100E9740F21A9750121E173687031BD60
:1008B0000121414AD17770479C710020906F002040
:1008C000183B0020B8C50008106A002074C3000857
:1008D000A56F0020F1B5354D384F00203870FFF777
:1008E000ABFF72B6364E324C3100200000F014FFE0
:1008F00062B63448006834490860FFF797FF20006B
:1009000000F0E2FE002802D00120A8740FE0E87891
:1009100000280CD1012231002C4801F0E6FD4021D5
:1009200060544020205C002801D101203870F1BDC6
:1009300080B52648C06F04F007FA01BDCCC400089A
:1009400000B50100224801600268002A05D01A4A59
:10095000D27B012A01D000BFF6E71748C27B002AEC
:1009600002D10122114B9A750022C2730F48807D7B
:1009700000BD10B572B6A74C0D4800F0ECFEE0616A
:1009800062B6E069002802D0E06900F023F810BDEB
:100990000000000041720020602F0020BC71002088
:1009A0006C71002000040050146A0020C86F002001
:1009B000106E0020C1D40100906F0020CC6F002089
:1009C000806A002024380140284C00407C690020C7
:1009D000A4710020F1B586B00025290006980078A2
:1009E0006A4610728C48C84E6A46127A0368F254FE
:1009F0000268521C026000683018801E00780D28C2
:100A000000D0E6E3844800683018401E00780A28C9
:100A100000D0DEE3BD4C2078002800D0D9E37E482A
:100A200000683018001F00784F2800D04FE27A4845
:100A300000683018C01E00784B2800D047E2764886
:100A400000683018801E00780D2800D03FE2724800
:100A500000683018401E00780A2800D037E26F493D
:100A6000300002F021FF6E4F386000282FD06D4813
:100A70003968097A01700078312809D10120A44928
:100A800002003723CA5404222823CA543822885427
:100A900072B69F4C2100283183B06846142202F0C0
:100AA0004DFF0EBC2000143000F0B8FE62B62000EE
:100AB000283000F03BFF584805609624E40000957C
:100AC0003700009A2100380000F0B0FD81E356495C
:100AD000300002F0E9FE3860002846D038685349FB
:100AE000086050483968C97B01703968097C4170D9
:100AF00001780D2903D1FF204649C87009E04178EB
:100B00000D2906D13968C97B01700078D030414980
:100B1000C87001207E4F01003722B95402212822DB
:100B2000B954010021753821785472B63900283142
:100B300083B06846142202F001FF0EBC3800143066
:100B400000F06CFE62B63800283000F0EFFE28009E
:100B50006070314805609624E40000953700009AE3
:100B60002100380000F062FD33E33149300002F02B
:100B70009BFE386000282DD0274805609620C000D5
:100B8000049003953700039A0499380000F04EFD55
:100B900072B65F4F3900283183B06846142202F0E4
:100BA000CDFE0EBC3800143000F038FE62B63800BE
:100BB000283000F0BBFE28006070174805609620C2
:100BC000C00000902C00370022000099380000F08F
:100BD0002DFDFEE2D949300002F066FE38600028A3
:100BE0005DD03868801D3860D548290001700178D3
:100BF000142922DA396809780D291BD03968097857
:100C0000D04A0378D1543968491C39600178491CAD
:100C10000170ECE7106A0020C0710020FCC60008DB
:100C2000C87100201C710020C8C50008C4710020D4
:100C3000ACC60008C34900780D5401203349C8757B
:100C40000025C14805609627FF00049703952E4EA6
:100C50003400039A0499200000F0E8FC72B62C4C92
:100C60002100283183B06846142202F067FE0EBCD2
:100C70002000143000F0D2FD62B62000283000F0D1
:100C800055FE280021494870AF48056000972C00A8
:100C9000370022000099380000F0C8FC99E2607D1E
:100CA000012829D1280060750120194C0100372244
:100CB000A15427002837142139703821605472B6A6
:100CC0002100283183B06846142202F037FE0EBCA2
:100CD0002000143000F0A2FD62B6380000F026FEBD
:100CE000994805609624E40000953700009A210099
:100CF000380000F09BFC6CE2A07D012830D1280078
:100D0000A0750120024C05E0784D0020906F002076
:100D1000106E002001003722A1542700283715212A
:100D200039703821605472B62100283183B068468A
:100D3000142202F003FE0EBC2000143000F06EFD01
:100D400062B6380000F0F2FD7F4805609624E400AA
:100D500000953700009A2100380000F067FC38E267
:100D6000207E01282BD12800207601200100617609
:100D7000E04C01003722A1542700283705213970A3
:100D80003821605472B62100283183B0684614229D
:100D900002F0D4FD0EBC2000143000F03FFD62B61E
:100DA000380000F0C3FD684805609624E400009513
:100DB0003700009A2100380000F038FC09E2A07EDC
:100DC00001282BD12800A07601200100E176C94C32
:100DD00001003722A1542700283705213970382116
:100DE000605472B62100283183B06846142202F0A4
:100DF000A5FD0EBC2000143000F010FD62B63800D6
:100E000000F094FD504805609624E40000953700FA
:100E1000009A2100380000F009FCDAE1207F012867
:100E20002BD128002077012001006177B14C01000F
:100E30003722A15427002837052139703821605402
:100E400072B62100283183B06846142202F076FD84
:100E50000EBC2000143000F0E1FC62B6380000F057
:100E600065FD394805609624E40000953700009A36
:100E70002100380000F0DAFBABE101209D4F0100BA
:100E80003722B95405212822B9543821785472B632
:100E90003900283183B06846142202F04FFD0EBCA1
:100EA0003800143000F0BAFC62B63800283000F088
:100EB0003DFD28006070244805609624E4000095FC
:100EC0003700009A2100380000F0B0FB81E1BB49F7
:100ED000300002F0E9FCBA4F3860002836D000221A
:100EE0000821B84803F077FD0120824F0100372226
:100EF000B95416212822B9543821785472B63900D1
:100F0000283183B06846142202F018FD0EBC380068
:100F1000143000F083FC62B63800283000F006FD83
:100F200028006070084805609624E40000953700AA
:100F3000009A2100380000F079FB4AE104C700085C
:100F40004472002018000020C0710020C949300000
:100F500002F0AAFC3860002829D00120654F01006A
:100F60003722B95405212822B9543821785472B651
:100F70003900283183B06846142202F0DFFC0EBC31
:100F80003800143000F04AFC62B63800283000F017
:100F9000CDFC28006070B84805609624E4000095F8
:100FA0003700009A2100380000F040FB11E1D449DD
:100FB000300002F079FC3860002847D0D149300079
:100FC00002F072FC3860002802D03520CE498875C6
:100FD000CE49300002F068FC3860002802D034208E
:100FE000C9498875CA49300002F05EFC38600028A3
:100FF00002D03420C449887501203E4F01003722B9
:10100000B95405212822B9543821785472B63900D0
:10101000283183B06846142202F090FC0EBC3800E0
:10102000143000F0FBFB62B63800283000F07EFC84
:1010300028006070904805609624E4000095370011
:10104000009A2100380000F0F1FAC2E0B149300006
:1010500002F02AFC3860002833D03868AE490860B6
:10106000AE483968097AD03101700078A07101204A
:10107000204F01003722B95423212822B9543821A6
:10108000785472B63900283183B06846142202F0D1
:1010900055FC0EBC3800143000F0C0FB62B63800BE
:1010A000283000F043FC28006070734805609624E7
:1010B000E40000953700009A2100380000F0B6FAED
:1010C00087E0CF49300002F0EFFB3860002800D005
:1010D0007FE0CC49300002F0E7FB3860002878D18F
:1010E000C949300002F0E0FB3860002871D1C749DF
:1010F00002E000BF106E0020300002F0D5FB386027
:10110000002829D00120D34F01003722B9540521EE
:101110002822B9543821785472B63900283183B066
:101120006846142202F00AFC0EBC3800143000F0AD
:1011300075FB62B63800283000F0F8FB28006070BC
:101140004D4805609624E40000953700009A210080
:10115000380000F06BFA3CE0AD49300002F0A4FB2F
:101160003860002830D00120BA4F01003722B9542E
:1011700005212822B9543821785472B63900283113
:1011800083B06846142202F0D9FB0EBC380014303C
:1011900000F044FB62B63800283000F0C7FB28009E
:1011A0006070354805609624E40000953700009A89
:1011B0002100380000F03AFA0BE000BFB8C6000882
:1011C000C871002000040050B649300002F06CFBEA
:1011D0003860B5480078012800D00EE12648006844
:1011E0003018001F00784F2800D006E12248006820
:1011F0003018C01E00784B2800D0FEE01E48006862
:101200003018801E00780D2800D0F6E01A480068DB
:101210003018401E00780A2800D0EEE0A4493000C3
:1012200002F042FBA14C2060002800D1C4E08948B4
:101230000121372281540121382281543649206806
:10124000086036482268527B02709A4A23689B7B6A
:101250001370994B2768FF7B1F7027683F7CC7700E
:1012600047780D2F0AD12268527B02700A68D21D7E
:101270000A601FE00CC70008C071002087780D2F9E
:1012800009D123685B7B037023689B7B13700A681A
:1012900008320A600EE0C7780D2F0BD127687F7BDC
:1012A00007702768BF7B17702268D27B1A700A68A4
:1012B00009320A6041780D2904D1007830388E490E
:1012C00008643FE081780D2909D101780A22514351
:1012D00040780818894940188749086432E0C17885
:1012E0000D291DD101786422514342780A235A43C3
:1012F000891880780818824940187F49086421E0DD
:10130000C4C6000814C70008C86F00201CC7000826
:1013100024C700082CC70008C47100201C710020DD
:101320000178FA2292005143427864235A43891883
:1013300082780A235A438918C078081887494018C8
:101340006D490864434F6C48006CF8626A48056454
:1013500088480068F96A083188422DD3F86A8021EC
:10136000C900884202D20120834988735049300065
:1013700002F09AFA2060206810302060F86A5E4916
:1013800088645D48806C0190206800907B485A49D1
:10139000C96C4418019A0099200002F0E9FA012072
:1013A00001003722B954382178545348C06C52494F
:1013B000896C40185049C86472B6264C2100283107
:1013C00083B06846142202F0B9FA0EBC2000143033
:1013D00000F024FA62B62000283000F0A7FA324F5D
:1013E00028007870634805609624E4000095009A10
:1013F0002100300000F01AF93D7007B0F0BD000088
:1014000034C70008D0C60008DCC60008D8C50008EC
:101410003CC70008F7B506000D00374885850299DE
:101420008162C6700B4C270028370A20387072B6CC
:101430002100283183B06846142202F07FFA0EBCE6
:101440002000143000F0EAF962B6380000F06EFABD
:10145000F7BD0000106E0020FEB582B006000D0042
:1014600000F06EF82448866005660399416169467C
:10147000097CC170644C270028370C20387072B684
:101480002100283183B06846142202F057FA0EBCBE
:101490002000143000F0C2F962B6380000F046FABD
:1014A00005B0F0BD44C70008906F0020C87100204F
:1014B000E8C600081D7100201E7100207CB50500E3
:1014C00000F03EF80C48C5704F4C260028360E2020
:1014D000307072B62100283183B06846142202F0C1
:1014E0002DFA0EBC2000143000F098F962B63000DE
:1014F00000F01CFA73BD0000106A0020F0FDFFFF31
:1015000030EBFFFF7CB5050000F01AF83E4C2600DA
:1015100028360D2030702800C0B2A08672B6210097
:10152000283183B06846142202F008FA0EBC20006D
:10153000143000F073F962B6300000F0F7F973BDB3
:1015400000B532480178012905D04178012904D13C
:10155000807B012801D000BFF3E700BDB02FFFFF63
:1015600070B52B4C00252B4E2A002100300000F0D6
:101570005DF870BDC0710020C86F0020602F002092
:10158000F1B584B000252E0020480079002802D152
:10159000052006002CE001201F49C8706846008A1B
:1015A000002802D12120060022E01A4C6846028A57
:1015B00021001A4800F0D7FF002802D011200600B1
:1015C00016E0174F6846008A3880388802900194E8
:1015D000144C0094029A0199009802F0C9F90098FD
:1015E0002800398860543A8821000F4800F0BBFF7A
:1015F0000948C5700079002801D1FEF740FE30008F
:10160000C0B205B0F0BD0000106E0020906F002049
:10161000D6060000183B0020C86F00207C6900201F
:1016200030720020F0410020E86800201206130A02
:101630001A43130C1A4300BF094205D0830705D093
:101640000270401C491EF9D1704700001300103988
:1016500006D330B41400150010393CC0FCD230BCA5
:10166000490700D30CC000D504C0890002D3028012
:10167000801C002900D50270704730B50168411800
:10168000446862088A188368E40704D54C461B192D
:1016900001E0641C09D1914203D00C7864B2491C6A
:1016A00001E00C3030BD0D78491C1D705B1C002C16
:1016B000EFD4641EF7D5EEE7816000220260C260BD
:1016C0004260414A0261704700B501008A68CB68F8
:1016D00010006438834201DB012000E0002000BDDF
:1016E00000B50100C868652801DA012000E000208B
:1016F00000BD00B501008A68C868904201D1012090
:1017000000E0002000BD00B50100C868002801D13C
:10171000012000E0002000BDF8B504000D0020000D
:10172000FFF7E7FF002815D1E068401CE060606823
:101730000126009521690F1832000099380002F047
:1017400017F96068401C6060A0686168814201DB35
:1017500000216160F1BDF8B584B004001B4D019516
:101760002000FFF7D0FF002801D0002028E09627B6
:10177000FF0000260296029A39002800FFF756FF64
:101780001348007A00281AD12068012503952169A1
:1017900008180290019F039A0299380002F0E8F8B5
:1017A0002068401C2060E068401EE06009484565F4
:1017B000A068009020680099884200DB26600198AC
:1017C00005B0F0BD0000000028520020C8480020ED
:1017D000C86F0020106A0020142213004B4383605E
:1017E00000230360C36043604E4B0361704770B5D4
:1017F0000400A568E6682800142103F096FB8642E1
:1018000001D1012000E0002070BD00B50100C868D2
:10181000002801D1012000E0002000BD0EB418B561
:1018200004002000FFF7E3FF002837D1606814218F
:1018300003F07BFB2169142242438918049A4A6011
:10184000216914224243891803AA927B8A73216971
:1018500014224243891803AAD27BCA732169142235
:101860004243891803AA12890A816946097B2269C1
:1018700014234343D154216914224243891803AAF3
:10188000127C0A74E168491CE1606168143161608E
:10189000A16862688A4201DB0022626001B001989F
:1018A00010BC04B0004710B504002000FFF7ADFFE6
:1018B000002801D0002034E02068142103F035FB1B
:1018C00002001948216914235343C918496841602B
:1018D000216914235343C918897B81732169142317
:1018E0005343C918C97BC173216914235343C918D1
:1018F00009890181216914235343C95C017021695D
:1019000014235343C918097C0174216814312160E0
:10191000E168491EE160A16823688B4201DB002376
:10192000236010BD385F00201C7000200021416042
:101930000A0082730A000270C1730521018101212E
:101940000174704710B50400002C01D101202AE079
:101950003D20205C002805D100203C21605420005F
:1019600003F0AEFB02203D216054211D206800F0F1
:10197000ABF90120482160543E2160543F2160545E
:1019800040216054412160544221605443216054FD
:1019900044216054452160544621605447216054DD
:1019A0003D216054002010BD10B501003D20085CB1
:1019B000012801D0012030E002203D23C85401203D
:1019C0000B68DB6803430C68E3600B68134CA342AD
:1019D0000CD00B688024E405A34207D00B68104CA0
:1019E000A34203D00B680F4CA34210D10B689B6835
:1019F0000D4C1C402200062A0ED080235B029A4226
:101A00000AD00B681B6818430B68186004E00B6869
:101A10001B6818430B681860002010BD002C0140A3
:101A2000000400400040014007000100F8B5040038
:101A30002068C06800902068076902252F421BD0EB
:101A400000982840002817D00220C0432168086170
:101A500001202077206880698007800F002803D04C
:101A6000200003F0B1FB05E0200003F0AEFB2000F6
:101A700003F0ACFB00202077042637421BD00098EF
:101A80003040002817D00420C04321680861257722
:101A900020688069C02189000140002903D020000E
:101AA00003F092FB05E0200003F08FFB200003F021
:101AB0008DFB0020207708252F421AD0009828405F
:101AC000002816D00820C0432168086126772068C6
:101AD000C0698007800F002803D0200003F074FB4A
:101AE00005E0200003F071FB200003F06FFB0020F5
:101AF0002077102007421BD000990840002817D0FB
:101B00001020C0432168086125772068C069C02182
:101B100089000140002903D0200003F055FB05E0B7
:101B2000200003F052FB200003F050FB0020207740
:101B3000012007420AD000990840002806D0012061
:101B4000C04321680861200000F02BFC8220800146
:101B50003840002808D00098000605D516482168AE
:101B60000861200003F033FBF80508D50098000653
:101B700005D5124821680861200003F029FB4020A8
:101B800007420AD000990840002806D04020C043F0
:101B900021680861200003F01CFB202007420AD0C6
:101BA00000990840002806D02020C0432168086121
:101BB000200003F00FFBF1BD7FDFFFFFFFFEFFFF03
:101BC000FEB504000D000027684607703C20205C2D
:101BD000012801D1022072E001263C202654022077
:101BE0003D216054206880683549014035480840EF
:101BF00001900198216888602868002852D0102838
:101C000050D020284ED030284CD0402840D05028EA
:101C10002AD0602832D0702809D08021490188421A
:101C200004D080218901884210D040E041E0EB6877
:101C30006A68A968206800F0D0F820688068772179
:101C40000143019101982168886032E0EB686A687D
:101C5000A968206800F0C1F8206880688021C90167
:101C600001432068816024E0EA686968206800F028
:101C700085F85021206800F0A7F81AE0EA68696842
:101C8000206800F08DF86021206800F09DF810E0D9
:101C9000EA686968206800F071F84021206800F067
:101CA00093F806E02968206800F08EF801E06846A5
:101CB00006703D2026543C20275468460078FEBD1F
:101CC00088FFCEFFFF00FFFF10B50268244CA04242
:101CD00006D08023DB05984202D0224B984204D1E3
:101CE00070239A4313004A681A43A04212D08023FB
:101CF000DB0598420ED01B4B98420BD01A4B9842F2
:101D000008D01A4B984205D0194B984202D01A4B72
:101D1000984203D1174B1340CA681A4380239A4351
:101D20004B69134303608A68C2620A688262A042F8
:101D300008D00E4A904205D00D4A904202D00E4A79
:101D4000904201D10A690263012242610469224082
:101D5000002A03D002690124A243026110BD0000E1
:101D6000002C0140000400400020004000400140E1
:101D700000440140FFFCFFFF0048014030B4056A09
:101D8000036A0124A34303628369F024A34314017B
:101D90001C430A239D430D438461056230BC704798
:101DA00030B4056A036A1024A34303628369124CAA
:101DB0001C4013032343A024A5430C012C4383613F
:101DC000046230BC7047000082680A4B13400B432A
:101DD00007221A4382607047000030B48468074DC0
:101DE00025400D4315431C022C43846030BC7047D2
:101DF000000000008FFFCFFFFF0FFFFFFF00FFFF7E
:101E000030B403680C004C4303256C43A3430C001F
:101E10004C4354431C43046030BC704730B4C36827
:101E20000C004C4303256C43A3430C004C43544328
:101E30001C43C46030BC7047816170478162704749
:101E400070B40322BA4B14000C4004256C431C5997
:101E500007250E00360CB540AC430D002D0C0600D6
:101E6000AE4026430A40042462439E5070BC704733
:101E700081B0D0490A6802430A60096801400091B4
:101E8000009901B0704710B503F0A6F900F07CF896
:101E900000F0EAF900F0BEF900F014F900F054F98E
:101EA00000F0B1F800F0D6F800F092F9C248FFF760
:101EB0007BFD002801D000F0A9FA9E4C00222021D1
:101EC000200002F088FD00221021200002F083FD96
:101ED00000220821200002F07EFDFA20800003F09D
:101EE0009DF901222021200002F075FD0122102120
:101EF000200002F070FD01220821200002F06BFD9D
:101F000002F01DFA8C4A1421012002F0D0FA8B490C
:101F100008608B4A1421012002F0C9FA894908603F
:101F2000A64A0321012002F0C2FAA5490860A54A89
:101F30000121012002F0BBFAA3490860A34A012154
:101F4000012002F0B4FAAF490860AF4A0021AF485F
:101F500002F028FAAE490860B84A0021B84802F0F9
:101F600021FAB8490860B84A0021B84802F01AFAC4
:101F7000B7490860B74A0021B74802F013FAB749D9
:101F8000086002F0EFF9FEE738B592B0382100247E
:101F9000220004AD2800FFF749FB102122006D4606
:101FA0002800FFF743FB8020800003F04DF9022555
:101FB00004958020400007900894402009900B95DC
:101FC0000C950D9408200E90802080020F90C02068
:101FD000C004109080208005119004A803F068F9D7
:101FE000002801D000F012FA072000900195029419
:101FF00003940221684603F0C5FB002801D000F0DD
:1020000005FA13B030BD10B5954C96482060D44801
:1020100060600020A0600121E16020616061A0613A
:10202000E0612062200003F01BFD002801D000F0D9
:10203000EDF90021200004F033F9002801D000F070
:10204000E5F90021200004F05EF9002801D000F03D
:10205000DDF910BD30B587B010210024220003AD9A
:102060002800FFF7E3FA0C2122006D462800FFF755
:10207000DDFA514DBB4828606C60AC60BA48E8603E
:102080002C616C61AC612800FFF75CFC002801D07A
:1020900000F0BCF980204001039003A92800FFF75D
:1020A0008FFD002801D000F0B1F900940194029452
:1020B0006946280004F05CF9002801D000F0A6F978
:1020C00007B030BD10B5C44CC4482060E1204002C8
:1020D00060600020A060E06020610C216161A0616F
:1020E000E061206260620820A06280200002A0639C
:1020F000200000F093F9002801D000F087F90021BA
:10210000200004F09EF9002801D000F07FF90021A2
:10211000200004F0C1F9002801D000F077F9200078
:1021200004F06CF9002801D000F070F910BD000037
:10213000601802400004005024C4000864710020AC
:102140003CC400086871002010B5A54CA54820606B
:10215000E120400260600020A060E06020610C216E
:102160006161A061E061206260620820A06280205D
:102170000002A063200000F051F9002801D000F017
:1021800045F90021200004F05CF9002801D000F09E
:102190003DF90021200004F07FF9002801D000F073
:1021A00035F9200004F02AF9002801D000F02EF9BA
:1021B00010BD0000341002409C6C002054C4000884
:1021C0006C7100206CC400087071002084C4000889
:1021D00080B5854885490160E1218902416000217F
:1021E0008160C16001610C2242618161C161016253
:1021F0004162816200F012F9002801D000F006F976
:1022000001BD00007471002058C200086D23000851
:102210005471002080B5012075490A6802430A60A4
:102220000968084000900098002203210B2004F068
:1022300003FA0B2004F00AFA01BD00007CC200087A
:102240007923000858710020A0C2000887230008E5
:102250005C710020C4C20008952300086071002052
:10226000F86B002000580040F0B589B00C21002424
:10227000220006AD2800FFF7D9F9182122006D468B
:102280002800FFF7D3F90120FFF7F2FD0220FFF746
:10229000EFFD1021A020C005FFF7CEFD80273F02F3
:1022A0003900A020C005FFF7C9FD08215148FFF7FC
:1022B000C5FD10214F48FFF7C1FD20214D48FFF714
:1022C000BDFD102600960125019502940394049407
:1022D0006946A020C00504F02CFA009701950294ED
:1022E000039404946946A020C00504F022FA082053
:1022F0000090019502940394049469463D4804F0CB
:1023000018FA00960195029403940494694639489A
:1023100004F00FFA20200090019502940394049495
:102320006946344804F005FA33490020FFF788FD78
:102330008020069006A8290001724472857206A8C2
:1023400004F07CFA00228021A020C005FFF766FD82
:1023500000228021A020C005FFF752FD09B0F0BD8A
:102360006621C100002C0140FFF9000010B50400F7
:10237000012002F08BF8FBE710B5040004F0DAFA54
:1023800004F00CFB10BD10B5040004F042FC04F096
:1023900045FCFCE710B5040004F0F2FD04F028FF52
:1023A000FCE710B5040020681449884201D104F00C
:1023B00061FF2068124988420DD112480168491C0A
:1023C000016011480168002902D00168491E0160BE
:1023D0002000FDF77DFF10BDC067002000380140E0
:1023E0005468002000440040E8680020004C004091
:1023F0003810024000040050010018000010004096
:1024000000400140A0710020A471002000B572B608
:10241000FEE70268531C03601170704710B504009A
:10242000002C01D1012037E0A0690028FFD18820CD
:102430002058002805D1002084216054200004F099
:1024400074FF24208821605020680068012188439F
:1024500021680860A06A002802D0200000F05AFC21
:10246000200000F0ABFA012801D1012014E020681F
:1024700040680A49014020684160206880682A213C
:102480008843216888602068006801210143206832
:102490000160200000F0B2FC10BD0000FFB7FFFF9C
:1024A00038B50400002C01D101201DE02420882132
:1024B0006050206800680121884321680860002579
:1024C000206805602068456020688560200004F071
:1024D000EBFF90202550882025508C202550E56664
:1024E000256784202554002032BD70B504000D00FE
:1024F00016008C202058202833D1002D03D0300026
:1025000080B2002801D101202CE0A068802149017F
:10251000884207D12069002804D12800C00701D5CE
:1025200001201FE00020E06620683D49884211D06C
:102530002068406800020DD5EFF31080012181F37F
:102540001088216809688022D2040A4321680A6041
:1025500080F31088320092B22900200000F014FDB0
:1025600000E0022070BD70B504000E001500882048
:102570002058202852D1002E03D0280080B20028F5
:1025800001D101204BE0A06880214901884207D198
:102590002069002804D13000C00701D501203EE0A9
:1025A0002665542025525620255200209021605047
:1025B00021218822A150E16F00291DD01949E26F25
:1025C000D1621949E26F11631849E26F5163E16FFB
:1025D00088632B009BB2206802002832216DE06FD7
:1025E00002F0C2FA002807D010209021605020206D
:1025F00088216050012012E0402021680862EFF33A
:102600001080012181F310882168896880220A43A3
:1026100021688A6080F31088002000E0022070BDED
:102620000080004095310008E731000811320008B1
:10263000FEB504002068C7692068056820688068C6
:1026400000909A4838400290029800280FD120202C
:1026500007420CD02840002802D10098C00006D5BF
:10266000606F002802D02000616F88479DE10298CA
:10267000002800D1A9E08E4800990140002904D12A
:102680008C492940002900D19FE03900C90709D5AC
:10269000E90507D50121226811629022A258114351
:1026A0009022A15002210F420AD0009AD20707D5EA
:1026B000226811629022A258042313439022A3504F
:1026C0000422174209D0009BDB0706D523681A6253
:1026D0009022A25811439022A15008210F420CD001
:1026E000AA0603D4009A1040002806D02068016290
:1026F0009020205801439020215080200001074263
:1027000009D0690107D5216808629020205820214E
:1027100001439020215090202058002854D02020A0
:1027200007420BD02840002802D10098C00005D5F0
:10273000606F002802D02000616F884790202058E9
:1027400001904026206880683040002804D101981C
:1027500028210140002931D0200000F0E7FC20684A
:1027600080680640002E25D0EFF31080012181F310
:10277000108821688968402291432268916080F323
:10278000108880202058002810D088488021615867
:1027900088638020205802F089FA002814D0802015
:1027A000205880216158896B88470DE0200004F093
:1027B000CDFE09E0200004F0C9FE05E0200004F091
:1027C000C5FE002090216050EFE0E06E012800D0AF
:1027D000B4E01020074200D1B0E0054200D1ADE0E6
:1027E0002168086220688068400665D580202058EE
:1027F00000684668300080B2002856D030005C2166
:10280000615A80B2884250D25E2026522020802118
:10281000615809680968014000293BD1EFF3108134
:10282000012282F3108822681268614B13402268EB
:10283000136081F31088EFF31081012282F3108876
:102840002268926801239A4323689A6081F3108872
:10285000EFF31081012282F31088226892684023EE
:102860009A4323689A6081F310888C21605000207D
:10287000E066EFF31080012181F310882168096878
:10288000102291432268116080F310888020205824
:1028900002F0C6F9022020675C20205A5E21615AAE
:1028A000411A89B2200004F052FE7EE00F080000B9
:1028B00001000010200100045C20205A5E21615AB2
:1028C000461A5E20205A002837D0300080B20028F7
:1028D00033D0EFF31080012181F31088216809685B
:1028E000344A0A4021680A6080F31088EFF31080B0
:1028F000012181F31088216889682F4A0A402168E4
:102900008A6080F3108820208C2160500020E066CF
:102910006067EFF31080012181F310882168096856
:10292000102291432268116080F3108802202067F2
:10293000310089B2200004F00AFE36E08020400316
:10294000074208D00099490205D521680862200095
:1029500004F0FEFD29E0802007420CD0284000282A
:1029600002D10098000206D5A06F002802D02000F6
:10297000A16F884719E04020074206D02840002870
:1029800003D0200000F079FC0FE0380205D5680084
:1029900003D5200004F0DDFD07E0F80105D5002D8A
:1029A00003D5200004F0D6FDFFE7F7BD6332000831
:1029B000FFFEFFFFDFFEFFFFFEFFFFEFF8B584B075
:1029C00006000027380069460870AE483168814229
:1029D000FFD0B2683169114372690A43F16911434A
:1029E00032681268A84B13400B4332681360326898
:1029F0005268A64B1340F2681A4333685A60B269B2
:102A000003923268824203D00399326A0A430392E6
:102A1000316889689E4A0A4003991143326891607F
:102A20003168C96A0F229143726A0A433168CA62E7
:102A30003168B34A914215D1B24909688907890FB3
:102A4000002905D0022905D006D3032906D007E0C6
:102A50003C0050E002244EE004244CE008244AE00C
:102A6000102448E03168A84A914216D1A549096866
:102A70000C220A40002A06D0042A08D0082A04D0D2
:102A80000C2A06D007E03C0035E0022433E00424A1
:102A900031E008242FE010242DE031689B4A914258
:102AA00001D13C0027E03168994A914201D13C00B4
:102AB00021E0316881421DD192490968C02212018A
:102AC0000A40002A0CD08021C9008A420CD0802103
:102AD00009018A4206D0C02109018A4206D007E0D6
:102AE0003C0008E0022406E0042404E0082402E09C
:102AF000102400E010243168814264D12000C0B26B
:102B0000002806D0022808D0042808D008280AD0B7
:102B10000CE002F05DFF05000CE0B64D0AE002F0AB
:102B2000F7FE050006E080252D0203E03D000120B0
:102B300069460870002D00D1D6E02800AE49726ABF
:102B400002235A43895A02F0F0F902900298716800
:102B500003225143884206D37068802149014843CB
:102B60000299884203D2012069460870BCE028001F
:102B7000A149726A02235A43895A02F0D6F9002108
:102B800080225200002304F0E7FC02000B00706872
:102B900040080021801859417268002304F0F5FCB8
:102BA00001900198C0218900884208D301988021B2
:102BB0004903884203D201983168C86094E001203B
:102BC0006946087090E080252D02F069A84247D13F
:102BD0002000C0B2002806D0022808D0042808D05F
:102BE00008280AD00AE002F0F3FE05000AE0814D51
:102BF00008E002F08DFE050004E003E03D00012046
:102C000069460870002D6FD028007B49726A022344
:102C10005A43895A02F089F90221484371684908E8
:102C20004018716802F081F901900198102813D3BF
:102C300001988021490288420ED20199A248084099
:102C4000019949084907490F014368464180684690
:102C500040883168C86047E001206946087043E059
:102C60002000C0B2002806D0022808D0042811D0C5
:102C7000082813D013E002F0ABFE050013E05D4D11
:102C800011E000BF00800040F369FFCFFFCFFFFFDE
:102C9000FFF4FF1102F03CFE050004E003E03D00FC
:102CA000012069460870002D1ED028005249726A22
:102CB00002235A43895A02F038F9716849084018CA
:102CC000716802F032F901900198102809D3019837
:102CD00080214902884204D2019880B23168C860DC
:102CE00002E001206946087001206A2170526821C3
:102CF00070527767B7676846007805B0F0BD00BFCF
:102D00000038014054100240004400400048004098
:102D1000004C004000B52821415C090707D5016837
:102D200049686A4A0A40816B114302685160282150
:102D3000415CC90707D501684968654A0A40C16A0C
:102D40001143026851602821415C890707D5016859
:102D50004968604A0A40016B1143026851602821AA
:102D6000415C490707D5016849685B4A0A40416BE5
:102D70001143026851602821415CC90607D50168EA
:102D80008968564A0A40C16B114302689160282144
:102D9000415C890607D501688968514A0A40016C7F
:102DA0001143026891602821415C490614D50168ED
:102DB00049684C4A0A40416C114302685160416CB9
:102DC00080225203914207D101684968464A0A406D
:102DD000816C1143026851602821415C090607D5C6
:102DE00001684968BF4A0A40C16C114302685160DA
:102DF00000BD00000024F400E4C400087CB5050018
:102E0000002490202C5004F0FFFB06002868006886
:102E100000071ED5B44800903300002280218903AA
:102E2000280000F063F8002813D0EFF31080012190
:102E300081F3108829680968802291432A6811600B
:102E400080F3108820208821685084202C5403208F
:102E500039E02868006840072BD5A348009033006C
:102E600000228021C903280000F040F8002820D06B
:102E7000EFF31080012181F31088296809689B4ACB
:102E80000A4029680A6080F31088EFF3108001215E
:102E900081F3108829688968012291432A6891602A
:102EA00080F3108820208C21685084202C5403202B
:102EB00009E02020882168508C216850EC662C673E
:102EC00084202C54002076BDF0FF0000FF7FFFFF20
:102ED000FFFFFDFFFFFFFEFFFFFFFBFFFFEFFFFF19
:102EE000FFDFFFFFFFFFEFFFFFFF9FFFFEB50400C7
:102EF0000F00089D2068C0693840B84201D1012008
:102F000000E000206946097988423BD10020C04397
:102F10008542EFD004F078FB0299401A854201D334
:102F2000002D01D103202EE0206800684007E1D584
:102F3000802FDFD0402FDDD008262068C0693040C8
:102F400000280BD020680662200000F0EFF89020E7
:102F50002650002084216054012014E080200001CC
:102F60002168C96901400029C4D021680862200095
:102F700000F0DCF820209021605000208421605473
:102F8000032000E00020FEBD70B5030099655C20C1
:102F90001A525E201A5200205867802464019D68EE
:102FA000A5420AD11D69002D03D1794D60269D539C
:102FB00024E0FF2560269D5320E09D68002D0AD166
:102FC0001D69002D03D1FF2560269D5316E07F2546
:102FD00060269D5312E09D6880267605B5420AD191
:102FE0001D69002D03D17F2560269D5306E03F25F6
:102FF00060269D5302E0050060269D5390255851A0
:1030000022208C255851EFF31080012585F310887C
:103010001D68AD6801262E431D68AE6080F31088E0
:10302000586E8025AD05A84230D1100068255D5B43
:1030300080B2A8422AD39868A04205D11869002816
:1030400002D16C48586701E06B485867186900283E
:103050000DD0EFF31080012484F310881C682468DD
:1030600080256D0025431C68256080F31088EFF3F0
:103070001080012484F310881C68A46880256D05E5
:1030800025431C68A56080F3108829E09868A04259
:1030900005D11869002802D15848586701E05848FE
:1030A0005867186900280ED0EFF31080012484F3CC
:1030B00010881C68246890256D0025431C682560D5
:1030C00080F310880CE0EFF31080012484F3108863
:1030D0001C682468202525431C68256080F310881F
:1030E000002070BDFFFFF7FFFFFFFF01DFFEFFFFC6
:1030F000EFF31081012282F3108802681268C02366
:103100009A4303681A6081F31088EFF3108101225B
:1031100082F31088026892683A4B13400268936009
:1031200081F31088202188228150704700B5EFF389
:103130001081012282F3108802681268324B13401A
:103140000268136081F31088EFF31081012282F38B
:103150001088026892682D4B13400268936081F3D7
:103160001088C16E01290CD1EFF31081012282F386
:1031700010880268126810239A4303681A6081F36A
:10318000108820218C2281500021C166416700BD3A
:10319000FF01000038B50400A56A206800688006B9
:1031A0001DD4002056216852EFF31080012181F3D5
:1031B000108829688968802291432A68916080F389
:1031C0001088EFF31080012181F3108829680968C5
:1031D00040220A4329680A6080F3108802E0280030
:1031E00001F0C5FF31BD38B50400A56A280004F020
:1031F00011FA31BD95360008A1340008A13300084A
:10320000AB320008FFFF7FFFDFFEFFFFFEFFFFEF97
:10321000F8B50400A56A88202F588C202E582868FD
:103220008068000607D5212F05D10020562168525D
:103230002800FFF75DFF28688068400607D5222E2A
:1032400005D100205E2168522800FFF76FFF902013
:1032500028581021014390202950280004F076F9C5
:10326000F1BD38B50400A56A00205E2168525621E0
:103270006852280004F06AF931BD10B50400EFF37C
:103280001080012181F31088216809684022914350
:103290002268116080F3108820208821605000206F
:1032A000A067200001F063FF10BD70B5040060202E
:1032B000255A8C20205822286BD12068406A0600AD
:1032C000300029000140A06D0170A06D401CA06578
:1032D0005E20205A401E5E2160525E20205A002847
:1032E0005DD1EFF31080012181F310882168096816
:1032F000694A0A4021680A6080F31088EFF3108061
:10330000012181F310882168896801229143226894
:10331000916080F3108820208C216050002060672D
:10332000206721685D4A914210D0216849680902EE
:103330000CD5EFF31081012282F310882268126805
:10334000D34B13402268136081F31088E16E01298A
:103350001BD1E066EFF31080012181F31088216812
:103360000968102291432268116080F310881020B0
:103370002168C9690140002901D0216808625C20E8
:10338000215A200004F0E3F809E0200001F0F9FEE2
:1033900005E020688069082101432068816170BDD3
:1033A000F8B504006020255A8C20205822286BD1C3
:1033B0002068406A0600A06D070028003040388071
:1033C000A06D801CA0655E20205A401E5E216052C8
:1033D0005E20205A00285DD1EFF31080012181F397
:1033E0001088216809682C4A0A4021680A6080F325
:1033F0001088EFF31080012181F31088216889681B
:10340000012291432268916080F3108820208C2152
:1034100060500020606720672168204A914210D0E8
:103420002168496809020CD5EFF31081012282F36B
:10343000108822681268964B13402268136081F34B
:103440001088E16E01291BD1E066EFF310800121A5
:1034500081F3108821680968102291432268116065
:1034600080F3108810202168C9690140002901D02B
:10347000216808625C20215A200004F068F809E005
:10348000200001F07EFE05E02068806908210143EC
:1034900020688161F1BD0000DFFEFFFF0080004079
:1034A000FEB504006020205A6946C8802068C569BE
:1034B000206807682068806802908C2020582228A5
:1034C00000D0DEE06820205A69464880684640887F
:1034D000002800D1AAE02026354200D1A6E02068CD
:1034E000406A69468880684680886946C988014084
:1034F000A06D0170A06D401CA0655E20205A401E8A
:103500005E2160522068C06905006807400F0028EE
:1035100031D02800C00709D5F80507D5012021685A
:1035200008629021615808439021605002200542B2
:103530000AD00299C90707D521680862902161580D
:1035400004220A439021625004210D4209D0029ABC
:10355000D20706D522681162902161580843902154
:10356000605090202058002805D0200003F0EEFF86
:103570000020902160505E20205A0028A6D1EFF351
:103580001080012181F3108821680968BF4A0A4030
:1035900021680A6080F31088EFF31080012181F325
:1035A000108821688968BA4A0A4021688A6080F3D5
:1035B00010888C2026500020606720672168B54A5B
:1035C000914210D02168496809020CD5EFF31081AF
:1035D000012282F31088226812682D4B1340226862
:1035E000136081F31088E16E01291BD1E066EFF3CF
:1035F0001080012181F3108821680968102291430D
:103600002268116080F3108810202168C969014088
:10361000002901D0216808625C20215A200003F0B3
:1036200096FF53E7200001F0ACFD4FE75E20205AE3
:103630006946088068460088002828D068460088C7
:103640006821615A884222D2EFF31080012181F370
:10365000108821688968904A0A4021688A6080F34E
:1036600010888E486067EFF31080012181F3108885
:103670002168096820220A4321680A6080F31088C3
:1036800005E0206880690821014320688161F7BD59
:10369000FFFFFFFBF8B584B004006020205A6946A4
:1036A000C8802068C5692068076820688068029023
:1036B0008C202058222800D0E0E06820205A69465B
:1036C000488068464088002800D1ACE0202635427A
:1036D00000D1A8E02068406A69468880A06D039008
:1036E000684680886946C988014003980180A06DBA
:1036F000801CA0655E20205A401E5E21605220681A
:10370000C06905006807400F002831D02800C007B5
:1037100009D5F80507D50120216808629021615874
:10372000084390216050022005420AD00299C9073F
:1037300007D5216808629021615804220A4390212C
:10374000625004210D4209D0029AD20706D52268A0
:1037500011629021615808439021605090202058B8
:10376000002805D0200003F0F1FE002090216050D9
:103770005E20205A0028A4D1EFF31080012181F3AC
:10378000108821680968414A0A4021680A6080F36C
:103790001088EFF31080012181F310882168896877
:1037A0003B4A0A4021688A6080F310888C202650AA
:1037B0000020606720672168364A914210D0216856
:1037C000496809020CD5EFF31081012282F31088B9
:1037D00022681268324B13402268136081F310880C
:1037E000E16E01291BD1E066EFF31080012181F326
:1037F000108821680968102291432268116080F3C3
:10380000108810202168C9690140002901D0216871
:1038100008625C20215A200003F099FE51E7200045
:1038200001F0AFFC4DE75E20205A694608806846EB
:103830000088002828D0684600886821615A88429C
:1038400022D2EFF31080012181F31088216889686A
:10385000114A0A4021688A6080F310881148606725
:10386000EFF31080012181F310882168096820227C
:103870000A4321680A6080F3108805E020688069A7
:10388000082101432068816105B0F0BDFFFEFFFF04
:10389000FEFFFFEF00800040FFFFFFEFAB320008AC
:1038A000FFFFFFFBA133000870B50D78002D11D08C
:1038B0000C0004E0491C0E78964207D0401C2900F9
:1038C00000F032F8002805D0010023005B1C1A78B4
:1038D000002AEFD170BD2E00431C0178401C094224
:1038E000FBD1C01A7047FEE70CB418B583B00400D2
:1038F0000A0006A8029001940020009002AB01A9E2
:10390000084878441E3003F08BFE0021019A1170A4
:10391000002801D40198001B04B0019910BC03B029
:10392000084700BFEFEAFFFFC9B202788A4203D01E
:10393000401C002AF9D100207047FEE770B4103A0D
:1039400003D378C9103A78C0FBD2530701D318C902
:1039500018C001D508C908C0D20704D30B8803805A
:10396000891C801C002A01D50B78037070BC70473D
:103970008B0701D18307E1D0124205D00B78491C97
:103980000370401C521EF9D17047FEE7FEB50027B8
:10399000FCF7D6FB0120C5490871FDF7E1FDC44DD8
:1039A000C4A12800FFF7A0FFC34C00222021200063
:1039B00001F011F82800FFF78FFF80B2FDF7E0FD5E
:1039C00006003000C0B200280FD16420FCF7B8FF19
:1039D000060001222021200000F0FDFF3000C0B2CF
:1039E000002802D03000C0B2D2E1FDF7B9FDB349E2
:1039F0002800FFF779FF00222021200000F0EBFFD4
:103A00002800FFF769FF80B2FDF7BAFD0700380014
:103A1000C0B200280FD16420FCF792FF07000122FA
:103A20002021200000F0D7FF3800C0B2002802D0CB
:103A30003800C0B2ACE100222021200000F0CBFF12
:103A4000192001F0EBFB01222021200000F0C3FF30
:103A5000192001F0E3FB954880790028EBD0FDF7B1
:103A60007FFD934DCB492800FFF73EFF0022202128
:103A7000200000F0B0FF2800FFF72EFF80B2FDF716
:103A80007FFD06003000C0B200280FD16420FCF793
:103A900057FF060001222021200000F09CFF30008B
:103AA000C0B2002802D03000C0B271E1FDF758FD6D
:103AB000B9492800FFF718FF2800FFF70DFF80B273
:103AC000FDF75EFD070000222021200000F083FFAB
:103AD0003800C0B2002808D16420FCF731FF07008D
:103AE00001222021200000F076FFFDF739FDAB49CF
:103AF0002800FFF7F9FE2800FFF7EEFE80B2FDF781
:103B00003FFD060000222021200000F064FF30006D
:103B1000C0B2002808D16420FCF712FF0600012281
:103B20002021200000F057FFFDF71AFDBD492800B5
:103B3000FFF7DAFE2800FFF7CFFE80B2FDF720FD89
:103B4000070000222021200000F045FF3800C0B20D
:103B5000002808D16420FCF7F3FE07000122202191
:103B6000200000F038FFFDF7FBFCAFA2AF492800B2
:103B7000FFF7BAFE2800FFF7AFFE80B2FDF700FDA9
:103B8000060000222021200000F025FF3000C0B2F6
:103B9000002808D16420FCF7D3FE06000122202172
:103BA000200000F018FFFDF7DBFCA1480268A149E6
:103BB0002800FFF799FE2800FFF78EFE80B2FDF780
:103BC000DFFC070000222021200000F004FF380065
:103BD000C0B2002803D16420FCF7B2FE0700FDF755
:103BE000BFFC95492800FFF77FFE2800FFF774FE11
:103BF00080B2FDF7C5FC060000222021200000F065
:103C0000EAFE3000C0B2002808D16420FCF798FE1C
:103C1000060001222021200000F0DDFE03F0F4FC6C
:103C20000190FA20800001F0F9FAFDF799FC834930
:103C30002800FFF759FE2800FFF74EFE80B2FDF77F
:103C40009FFC070000222021200000F0C4FE380065
:103C5000C0B2002808D16420FCF772FE07000122E0
:103C60002021200000F0B7FEFDF77AFC74492800FF
:103C7000FFF73AFE2800FFF72FFE80B2FDF780FC29
:103C80006946087000222021200000F0A4FE642074
:103C9000FCF756FE060001222021200000F09BFECA
:103CA0003000C0B237280BD1002711E0906F002000
:103CB000183B002041540D000004005040C600088D
:103CC00003F0A2FC0199401A5E498842A9D301275A
:103CD00000222021200000F07EFEFDF741FC5A4921
:103CE0002800FFF701FE2800FFF7F6FD80B2FDF780
:103CF00047FC6946087068460078002809D16420AE
:103D0000FCF71EFE6946087001222021200000F009
:103D100062FEFA20400001F081FAFDF721FC4B49D8
:103D20002800FFF7E1FD2800FFF7D6FD80B2FDF780
:103D300027FC06003000C0B2002803D16420FCF745
:103D4000FFFD0600FDF70CFC41492800FFF7CCFD04
:103D50002800FFF7C1FD80B2FDF712FC050000222C
:103D60002021200000F037FE2800C0B2002808D132
:103D70006420FCF7E5FD050001222021200000F071
:103D80002AFE00222021200000F025FE2800C0B2DB
:103D9000FEBD0000F4C600084CC6000858C6000866
:103DA000F7B582B01F000024200069460870019416
:103DB000FA20800001F032FA3B78049A03990298C5
:103DC000FDF74AFB03F020FC0500224E307D012860
:103DD0000CD02148807D332808D003F015FC401B0F
:103DE0001E498842F1D3012069460870307D0128C0
:103DF00003D12000307520000DE01749887D33285D
:103E000002D133208C7500E001200100C9B20029E5
:103E100001D0C0B203E04E4909783970C0B205B094
:103E2000F0BD000064C600083230000088C50008FC
:103E30002C000020ECC3000870C600087CC60008F7
:103E400088C60008E193040094C60008A0C60008D4
:103E50008CC10008906F0020C86F0020D1070000BF
:103E6000F7B582B000252F0054486946097A405CB6
:103E700000280BD1684680898021C900884203DA76
:103E800068468089002801D1042032E0049A6846FF
:103E900081896846007AFDF7BDFA03F0B5FB009012
:103EA00000221021A020C00500F095FD444CE07CCC
:103EB00001280BD0434E03F0A7FB0099401A306055
:103EC00030683D498842F1D301200700A026F6055D
:103ED00001221021300000F07EFD3800C0B2012820
:103EE00004D100221021300000F075FDE574380087
:103EF000C0B205B0F0BD00007CB50500002628006A
:103F000080B23149884201DB00201FE0FDF728FB29
:103F10002E4C280080B201900D48C07800900123FB
:103F200000222B492000FFF7DFFC2000FFF7D4FC24
:103F300080B2FDF725FB0100C9B2002905D001219F
:103F40001F4AD1730F21234A9175C0B276BD00007C
:103F5000106A002070B505000C00002006001D4905
:103F6000487516482900C9B2405C002806D02800D0
:103F7000C0B2FDF7C7FA3000C0B200E0022070BD49
:103F800010B50024FDF7ECFA13480C494278895C1F
:103F900000290FD00F494978002904D142780F49F0
:103FA0000A48FFF7A1FC0948FFF796FC80B2FDF72D
:103FB000E7FA040010BD0000112700009C710020EA
:103FC000906F0020A871002001040000183B002021
:103FD0009CC40008C86F0020106A002010C50008AB
:103FE00010B50024E120400201F00EF800F0F4FFCB
:103FF000FCF764F8E4B2200010BD10B50020040006
:104000007D497E4A11607E497E4A116002217E4AC6
:1040100011707E4908607E490870FFF7B7FC010007
:10402000C9B2002901D0C0B200E0C0B210BDF1B5E4
:1040300083B00020029003980090764D0098734959
:104040000860754C0098210000F06FFF0191009806
:10405000210000F06AFF0400704E01983C2100F03E
:1040600061FF3160E1273F010198390000F05DFFF9
:1040700008003C2100F056FF70600198390000F004
:1040800051FFB060201D072100F04CFFB1610327F4
:104090003D420FD12800642100F044FF002906D1E1
:1040A0002800C821490000F03DFF002902D1B720B7
:1040B000400001E0FF206E30844217D32F40002FD4
:1040C0000FD12800642100F02DFF002906D128001F
:1040D000C821490000F026FF002902D1B720400086
:1040E00001E0FF206E30241A6D1CD0E74B4E4C4887
:1040F00028187061F461002030613D420ED1280023
:10410000642100F00FFF002906D12800C8214900D2
:1041100000F008FF002901D1012000E00020414902
:10412000C0B230225043081831690422514340582C
:1041300084421FD33D420ED12800642100F0F2FEDC
:10414000002906D12800C821490000F0EBFE002913
:1041500001D1012000E000203249C0B2302250439A
:1041600008183169042251434058241A3069401C10
:104170003061C2E7641CF4600020306270692A4933
:10418000401870613069401C3061029804B0F0BD85
:10419000F8B506000D0014001F003A0021002800A9
:1041A000164B1B689847F1BD10B504002000154957
:1041B0000968884710BD70B504000D0016001B4843
:1041C00021780906627812040A43A1780902114392
:1041D000E2780A431649511801600068FFF727FF8B
:1041E00070BD72B601210A4A117062B60221064AF8
:1041F0001170704700000000B7410008AC7100204A
:10420000E3410008B071002043720020B871002023
:1042100042720020B207000080510100146F00209C
:1042200094F8FFFF5CC000086C070000B471002028
:104230008081557CFEB506000D001400002700208B
:10424000009002AB220029003000FFF7A9FDC0B2A8
:10425000FEBD38B5040000252000C0B2FDF72EF9E0
:104260002800C0B232BD70B505000C0000262A003F
:10427000210089B20020FFF7F3FDC0B270BD10B578
:10428000040001212000C0B2FFF764FE10BDFEE76C
:10429000F0B5020052B2002A1CD403223D4B0400A8
:1042A00064B2A40804256C431C59FF25160006407F
:1042B00008277E43B540AC438D01EDB2024008268D
:1042C000724395402543020052B29208042462438F
:1042D0009D5022E00F24304B032205006DB2254093
:1042E000083DAE0804256E4305006DB22C40083C25
:1042F000A40804256C431F59FF24A446150005405B
:10430000082465436446AC40A7438C01E4B20240F4
:1043100008256A4394403C439C51F0BD80B51F483A
:10432000006804F007FD012801D004F0FAFD01BD8A
:1043300080B500210420C043FFF7AAFF01BD00B5EE
:10434000EFF30580002802D00520C04309E014489F
:104350000168002903D101210160002001E0002053
:10436000C04300BD10B5EFF30580002802D0052042
:10437000C0430DE00A4C2068012807D1FFF7D8FFA1
:104380000220206004F03CFA002001E00020C0433D
:1043900010BD000000E400E01CED00E010E000E0D3
:1043A00038710020F8B588B006000F001400002511
:1043B0000595EFF30580002865D13000002862D014
:1043C000802006901820049007950020C043039099
:1043D000002C35D02068002801D020680790A06903
:1043E000002801D0A06904900498002807D0049800
:1043F000392804D2012061680140002901D0002041
:1044000042E06169002902D0616989080691A168CA
:1044100000290AD0E1685C2907D32169002904D06A
:104420006169002901D003900BE0A068002808D141
:10443000E068002805D12069002802D1039500E03A
:104440000395039801280DD1A0680290206901907E
:10445000049800903B00069A0799300004F0A0F8F9
:10446000059010E0039800280DD105A8019004984C
:1044700000903B00069A92B20799300004F0C8F809
:10448000012800D00595059809B0F0BD38B50400A5
:10449000EFF30580002802D00525ED4305E0002557
:1044A000002C02D0200004F083F9280032BDF8B5BA
:1044B00084B006000F00140000250295EFF305807C
:1044C00000284BD1002E49D0002F47D00020C043F8
:1044D0000190002C1ED0A06800280DD0E068502864
:1044E0000AD32069002807D06169300078438142EF
:1044F00002D3012001900EE0A06800280BD1E068F3
:10450000002808D12069002805D16069002802D15F
:10451000019500E001950198012809D10020009043
:10452000A36822693900300004F06AFD029008E0B7
:104530000198002805D100223900300004F0A2FDC6
:1045400002900298002809D0002C02D02068039025
:1045500000E003950399029805F071F8029805B000
:10456000F0BDF7B507000C001D0000970020060005
:10457000EFF3058100291FD00099002903D0002CFA
:1045800001D0002D03D00320C04306002EE001908F
:10459000002301AA2100009804F052FE012803D054
:1045A0000220C043060021E0019800281ED0802090
:1045B00040053349086019E00098002801D0002C1C
:1045C00003D10320C043060010E000232A0021008D
:1045D000009804F08DFD012808D0002D03D00120A3
:1045E000C043060002E00220C04306003000FEBDCA
:1045F000FEB506000C001700009600200500EFF342
:10460000058100291FD00099002904D0002C02D078
:104610000299002903D00320C04305002DE001903A
:1046200001AA2100009804F001FF012803D0022014
:10463000C043050021E0019800281ED080204005DD
:104640000F49086019E00098002801D0002C03D120
:104650000320C043050010E0029A2100009804F0F6
:104660004DFE012809D00298002803D00120C04344
:10467000050002E00220C04305002800FEBD000046
:1046800004ED00E070B504002600EFF3058000287B
:1046900002D00525ED4309E0002E02D10325ED43AC
:1046A00004E000250021300004F06EFC280070BDFD
:1046B000F1B582B000230868D840002800D1EBE0B3
:1046C000012508682C009C400440019401980028B2
:1046D00000D1DFE0032648683040012803D0486855
:1046E000304002281ED1029887681C0002204443F3
:1046F0003000A0408743C86884461C000220444321
:104700006046A0403843029CA060029C67682C0071
:104710009C40A7434C6824092C409C403C43220009
:10472000029C626048683040032812D00298C76833
:104730001C00022044433000A04087438868844620
:104740001C00022044436046A04038430200029807
:10475000C26048683040022821D10298DC08042752
:104760007C430019076A072000970F24A4461F0006
:104770000740042467436446BC40009FA743BC46EF
:104780000F691C00204004246043874060460743B3
:104790003A000298DC0804277C4300190262029860
:1047A00007681C00022044433000A040874348684B
:1047B000304084461C00022044436046A0403843F9
:1047C0000200029802604868C024A4020440002C41
:1047D00060D08E4C980804277843205800900F270B
:1047E000BC461F00300038400827784367468740A2
:1047F0000098B84300900298A027FF05B84201D165
:10480000002510E00298824A90420CD00298814A1A
:10481000904201D1022506E002987F4A904201D1E0
:10482000350000E0052500981A001640082256437E
:10483000B54005439808042250432550774A106834
:10484000019CA0434C68E40202D504000198204377
:104850001060734C2268019DAA434D68AD0202D5D9
:104860001000019A024322606E4C2068019DA8430B
:104870004D68AD0302D502000198104320606A4CD8
:104880002268019DAA434D68ED0302D51000019AEC
:10489000024322605B1C0EE7F7BDF2B582B0010057
:1048A00000220298D040002800D193E00123029812
:1048B0001C009440044000940098002800D187E038
:1048C0005248940804256C43005903260F24150010
:1048D00037002F4008256F432500BD400540019556
:1048E000A020C005814201D100250FE04848814247
:1048F00001D11D000AE04748814201D1022505E0AF
:104900004548814201D1350000E0052501988446E3
:104910001700300038400827784385406046A84299
:1049200028D141480568009FBD4305603D480568A2
:10493000009FBD4305603A480568009FBD43056080
:1049400036480568009FBD430560100035000540EE
:10495000082045432000A84001902C4895080427D2
:104960007D434759019DAF43844695080420454344
:10497000604647510868170002256F433500BD4067
:1049800005430D60D008042568430D18D00804279E
:1049900078430818006AA446140067077F0F0424B0
:1049A00067436446BC40A04328628C68150002201F
:1049B00045433000A84084438C6048689340984346
:1049C0004860C8681300022463439E40B043C86037
:1049D000521C66E7F7BD00B51300DBB2002B03D015
:1049E0000B009BB2836102E00B009BB2836200BDAF
:1049F00010B442690B009BB213401B040C00A4B21C
:104A000094431C43846110BC70470000601802404E
:104A10000004005000080050000C00500018024034
:104A200004180240841802408018024010B50400A7
:104A3000002C01D1012050E020689B49401814212E
:104A400000F073FA80002064022025216054206861
:104A50000068BA4901402068016020680068A168C8
:104A60000143E06808432169014360690843A16983
:104A70000143E0690843216A014320680160200086
:104A800000F008FAA0688021C901884201D1002005
:104A9000606020798006800E616C0860E06CA16C1B
:104AA0004860606800280CD06068052809D22000A2
:104AB00000F008FA0020216D0860A06D616D48606B
:104AC00003E0002020656065A0650020E06301210F
:104AD0002522A15424216054002010BD70B504008B
:104AE000002C01D101203EE02068006801218843AC
:104AF0002168086020686C494018142100F015FAFC
:104B0000800020640025206805608D48016801222E
:104B10004023E35C1C261E40B2400A430260200092
:104B200000F0B8F9606C0560E06CA16C48606068EA
:104B300000280AD06068052807D2200000F0C2F9DA
:104B4000206D0560A06D616D486025656565A56592
:104B5000E56225636563A563E5632800252160544C
:104B600024202554002070BDF7B504001F0000204C
:104B700006002421615C012901D102204FE00125BA
:104B800029002422A1542521615C012940D1022160
:104B90002522A154E0632068006801218843216830
:104BA00008603B00029A0199200000F04BF9206B4D
:104BB000002806D0206800680E21014320680160AB
:104BC0000BE02068006804218843216808602068A1
:104BD00000680A21014320680160606C0068C0031E
:104BE00006D5606C0068802149000143606C01605B
:104BF000206D002806D0206D006880214900014307
:104C0000206D01602068006805432068056004E0AD
:104C10008021E163242160542E003000C0B2FEBD2B
:104C200070B50100002901D101203BE02520085C7E
:104C3000022806D00420C8630020242288540120C2
:104C400030E0086800680E2290430A6810603D4812
:104C50004A6C126802404B6C1A600A6812680123A1
:104C60009A430B681A600122354B1C6840254D5D44
:104C70001C262E401500B54025431D60CB6C8C6C66
:104C800063600B6D002B07D00B6D1B6818400B6D1C
:104C90001860886D4B6D586025200A54002024222E
:104CA0008854002070BD0000F8FFFDBFF8B5040077
:104CB000002005002521615C022904D00420E06366
:104CC0000120050036E0216809680E229143226820
:104CD0001160216809680122914322681160194915
:104CE000626C12680A40636C1A600122144B1E68E1
:104CF000B4464026A75D1C263E401700B7406646D6
:104D000037431F60E36CA66C7360236D002B07D0E4
:104D1000236D1B681940236D1960A16D636D596087
:104D20002521625424216054A06B002802D0200069
:104D3000A16B88472800C0B2F2BD00000F80FFFFC2
:104D400004000240FFFEFFFFF8B504003C48056880
:104D5000206806681C210420226C0A40030093404E
:104D60002B40002B19D0064217D0226812689206F9
:104D700005D42268126804239A4323681A60444ABF
:104D80001368276C3940884018431060206B002856
:104D900054D02000216B884750E00222206C08404C
:104DA000130083402B40002B1FD016421DD02068DB
:104DB0000068800608D4206800680A2398432368A6
:104DC000186001202523E05431480368276C3940DE
:104DD0008A401A430260002024216054E06A0028BF
:104DE0002CD02000E16A884728E00820226C0A4085
:104DF000030093402B40002B20D0304000281DD0D2
:104E0000206800680E229043226810600123204A27
:104E10001068276CBC460F0061460F401900B9406E
:104E200001431160E36325202354002024216054B2
:104E3000606B002802D02000616B8847F1BD000044
:104E400000000240F0B5C46C856C6C60046D002CF1
:104E500002D0846D456D6C600D4C27680125AC4611
:104E60004025455D1C262E406546B5403D432560E6
:104E7000046863608468102C04D10468A26004682C
:104E8000E16003E00468A1600468E260F0BD000036
:104E90000400024010B50400206C8008042148433F
:104EA0001149401860642078C0B20838142100F01D
:104EB0003CF80E49A16401210200D206D20E9140B5
:104EC000E16410BD01798906890E04224A43084B2A
:104ED000D2180265074A426501220B005B1E9B0740
:104EE0009B0F9A408265704700080240800802408C
:104EF000FC08024040090240F446002804D449421C
:104F000000F013F8404260474042002905D45FD0CA
:104F100000F00BF8404249426047494200F005F872
:104F20004942604703460B43E6D40022030A8B4202
:104F30000BD203098B4219D243088B422ED2411A5D
:104F400000D20146524110467047FF2209023FD06D
:104F500012068B4205D3121209028B4201D31212A0
:104F6000090203098B4219D300E0090AC3098B42E5
:104F700001D3CB01C01A524183098B4201D38B016B
:104F8000C01A524143098B4201D34B01C01A52410E
:104F900003098B4201D30B01C01A5241C3088B4253
:104FA00001D3CB00C01A524183088B4201D38B003E
:104FB000C01A524143088B4201D34B00C01A5241E0
:104FC000884200D3401A5241CFD201461046704762
:104FD00008B504F071FB08BD10B56F4800686F4953
:104FE000FFF7A3FF0400641E6D486E490160632152
:104FF000C1604460002101618160FCF7A3FC0028CE
:1050000001D0FDF703FA10BDF8B50700012067498C
:105010000A6802430A600968084000900098644EDC
:10502000644830601020B0600024F460802030615B
:105030007461B461F4613462332070603000FFF752
:10504000F5FC5D4DEE67B56201220021092001F0FB
:10505000F3FA092001F0FAFA584828606F60AC6052
:10506000EC602C610C206861AC61EC612C626C62BC
:10507000AC622800FDF714FA002801D0FDF7C6F94C
:105080002800FDF7CBF9002802D0FDF7BFF907E0B3
:10509000002201211B2001F0CFFA1B2001F0D6FADB
:1050A000F1BD80B54448FDF7C3FA01BD80B53C4869
:1050B000FCF7BCFC01BD80B53B48FCF7B7FC01BD6B
:1050C00070B58EB00400342100252A0001AE3000F6
:1050D000FCF7ACFA20683A4988421CD18020800352
:1050E00001900B9501A804F0E9FA002801D0FDF722
:1050F0008DF980210901334802680A430260006883
:10510000014000910098002201210D2001F094FA45
:105110000D2001F09BFA2448844211D1802189029C
:10512000284802680A430260006801400091009824
:1051300000220321152001F07FFA152001F086FAE4
:105140001748844211D1802149021E4802680A434F
:1051500002600068014000910098002203211420A1
:1051600001F06AFA142001F071FA0EB070BD10B5AA
:10517000040020681149884202D12000FBF798FB07
:1051800010BD10B5040020680C49884202D12000EF
:10519000FBF7A0FB10BD0000380000201027000026
:1051A000E86C002000400140346D002038100240BF
:1051B0009C6B0020080002407C6900200038014000
:1051C000002C014040100240704770477047704704
:1051D000704770477047FEE710B500240C4801681F
:1051E000802252000A430260032004F0A1FB002841
:1051F00002D00120040001E002F048F82000C0B213
:1052000010BD04490A68044B134003430B60704708
:105210000020024000000140FFF9FFFF70B50400CC
:1052200002F0F2F9050026000020C043864202D0B9
:1052300004480078361802F0E7F9401BB042FAD370
:1052400070BD00BF7E00002030B504000F4801682B
:105250000F4A0A402243026080208000844212D11B
:105260000C480068062148430B49FFF75EFE401CCE
:1052700005000A480068400505D5002D01D06D1EC7
:10528000F7E7032000E0002030BD00000070004080
:10529000FFF9FFFF3800002040420F00147000406B
:1052A00002480168E020C001084070470810024031
:1052B000F8B584B00400002C01D101204FE2012692
:1052C0002068304000285CD0B34800683821014095
:1052D0000291B24800688007800F01900298102860
:1052E00002D10198032802D00298082808D1AC48BE
:1052F0000068800345D56068002842D101202EE275
:10530000802040026168814204D1A5490A681043A7
:10531000086017E06168A022D202914209D1A04939
:105320000A688023DB0213430B600A68104308609D
:1053300008E09B480168B04A0A4002600168AF4A31
:105340000A400260606800280DD002F05DF9050097
:1053500093480068800314D402F056F9401B652876
:10536000F6D30320FBE102F04FF905008C480068FA
:10537000800306D502F048F9401B6528F6D30320C8
:10538000EDE12078800776D5834800683821014018
:105390000291824800688007800F019002981028CF
:1053A00002D10198022802D0029800282CD17C4911
:1053B0000868400504D5E068002801D10120CEE14D
:1053C000BA480268BA4B1340626912021A4302607B
:1053D0000298002810D10868B64A0240206910439C
:1053E0000860B5480968C90A4A07520F3100914060
:1053F000FFF79BFDBD490860BD48006804F098FABE
:10540000002838D00120AAE1E068002821D0644FAC
:105410003868A8490140206908433860386880210D
:1054200049000143396002F0EFF805003868400593
:1054300006D402F0E9F8401B0328F7D303208EE1DD
:105440009A4801689A4A0A40616909021143016059
:1054500011E0534F3868A7490140396002F0D4F891
:1054600005003868400506D502F0CEF8401B032839
:10547000F7D3032073E12078000734D5464800684D
:1054800038210140182908D1B648006880072AD57C
:10549000A069002827D1012061E1A069002810D06F
:1054A000B04F38683043386002F0AEF80500386815
:1054B000800718D402F0A8F8401B0328F7D3032074
:1054C0004DE1A84F386801218843386002F09CF80C
:1054D00005003868800706D502F096F8401B0328BF
:1054E000F7D303203BE1042720683840002800D18F
:1054F0008FE0002069460870274800683821014085
:1055000020290AD198480068800700D481E0A0686B
:10551000002800D07DE0012021E180204005934952
:105520000968014000290AD190490A6802430A60CB
:1055300009680840039003983000694608708C4859
:105540000068C00514D48A480068802149000143DE
:105550008748016002F058F8050085480068C005DA
:1055600006D402F051F8401B0328F6D30320F6E0DE
:10557000A068012804D17C4801680E4306601AE047
:10558000A06805280ED1784801680F4307600168BC
:105590000E4306600FE000BF081002400C100240EE
:1055A00000100240704801680122914301600168C7
:1055B000042291430160A06800280ED002F024F874
:1055C00005006948006880071AD402F01DF8401BE6
:1055D00068498842F5D30320C1E002F015F80500C0
:1055E0006148006880070BD502F00EF8401B614946
:1055F0008842F5D30320B2E0FFFFFEFFFFFFFBFF71
:1056000068460078012804D1584801685A4A0A407F
:105610000260E069002800D1A0E058480068382105
:105620000140102968D0E069022847D1544F3868FA
:10563000B3490140396001F0E7FF00908026B604CD
:1056400038683040002807D001F0DEFF0099401A8A
:105650000328F3D3032082E0AB480168A94A0A403B
:10566000216A1143626A0A43A16A09021143E26A8C
:105670000A43216B1143626B0A430260396880223E
:1056800052040A433A600168802252050A430260CC
:1056900001F0BAFF05003868304000285ED101F003
:1056A000B3FF401B0328F6D3032058E00410024048
:1056B000FF80FFFFFFC7FFFF0024F400304E30687B
:1056C0008F490140316001F09FFF05003068800183
:1056D00006D501F099FF401B0328F7D303203EE0D5
:1056E00089480168894A0A40026037E03800002092
:1056F00034000020FFFEFFFFE069012801D10120F6
:105700002DE081480068019001988007800F216A90
:10571000884221D1019870210140606A81421BD1E9
:105720000198FE21C9010140A06A0002814213D103
:105730000198F82189030140E06A81420CD1019867
:10574000E02109050140206B814205D10198400FFD
:105750004007616B884201D0012000E0002005B0C5
:10576000F0BD0000601002405C1002403C1002409E
:105770000070004089130000FFFFFFEF0810024097
:1057800000100240F3B581B00400002C01D10120CB
:10579000B5E007258D4E306828400299884216D220
:1057A00030680721884302990143316001F02CFFE2
:1057B0000090306828400299884208D001F024FF08
:1057C0000099401A8A498842F3D3032097E00220C7
:1057D0002168014000290FD02178490705D5854966
:1057E0000A68E023DB0113430B6082490A68824B9D
:1057F0001340A2681A430A602178C90745D5616839
:10580000012905D17D480068800324D4012076E079
:105810006168022905D17948006880011BD4012004
:105820006DE06168002905D174480068400512D414
:10583000012064E06168032906D1714909680840C4
:10584000002808D101205AE06E4909680840002864
:1058500001D1012053E0674F386807218843616810
:105860000143396001F0D0FE0090386838210140D2
:105870006068C000814208D001F0C6FE0099401A5D
:105880005B498842F1D3032039E00298316829400E
:10589000884216D23068072188430299014331605B
:1058A00001F0B2FE0090306828400299884208D08A
:1058B00001F0AAFE0099401A4D498842F3D3032013
:1058C0001DE02078400706D54A4801685A4A0A4038
:1058D000E1681143016000F01BF85849454A12681D
:1058E000120A1207120F04235A43895CC906C90E13
:1058F000C840534908605348006804F019F8FEBDD9
:10590000FFFFFFFE8C80C1110C100240FCFFFEEE79
:10591000FCB5382037490A680240002A0CD1012022
:1059200036490968C90A4907490F884006004648B0
:105930003100FFF7FAFA44E00A680240082A01D170
:1059400042483EE00A680240102A2BD1404F386896
:105950008007800F0190386800094007400F401C05
:105960000500019803280AD138482900FFF7DDFA1D
:105970003968090A4906490E4843040009E03248DB
:105980002900FFF7D2FA3968090A4906490E484347
:1059900004003868400F401C009020000099FFF779
:1059A000C4FA0EE00A680240202A02D180200002D8
:1059B00007E009680840182802D1FA20C00100E079
:1059C0000020F6BD1E48006870470000002002401D
:1059D00010B5FFF7F7FF0400FFF762FC1D49000B4D
:1059E00004225043085CC006C00EC440200010BD15
:1059F0008913000008100240FFF0FFFF0010024072
:105A0000601002405C10024030B407220260124B6A
:105A10001C68144044601C68F0252D0125408560F9
:105A20001B68E024E4011C40C4600C4B1B681A4056
:105A30000A6030BC70470000FF8FFFFF4CC10008B8
:105A400038000020340000200024F40000127A0006
:105A50000C10024094C300080810024000200240CD
:105A600010B50400002C01D1012065E04120205C2C
:105A7000002805D1002040216054200001F025FCC1
:105A80002420412160542068006801218843216856
:105A90000860606829490140206801612848216840
:105AA0008968014022689160E168012906D1A168F6
:105AB000802212020A4321688A6005E0A1688422DC
:105AC00012020A4321688A60E168022907D121682D
:105AD0004968802212010A4321684A6005E0216872
