:020000040800F2
:10000000587A0020D1C6000873BF000877BF0008E7
:1000100000000000000000000000000000000000E0
:100020000000000000000000000000004DBB0008C0
:1000300000000000000000000FBB00085D43000846
:100040003B3900088F390008DF390008CF4200082B
:1000500017520008736900082376000809C00008D9
:10006000D376000845090008E37600087BBF000846
:100070006B86000885BF00088797000817AD000849
:10008000F3AD0008A1BF0008F7AD0008A7AF000856
:10009000ED500008F7500008CBB30008F7BC00088B
:1000A00027C10008A3C40008AFC40008E35000083B
:1000B000ABBF0008FFBF000861C80008F0B585B0FD
:1000C0009627FF00049700240394754D039A049922
:1000D000280001F0C9FA02970194724D019A029921
:1000E000280001F0C1FA402600946F4D009A3100BB
:1000F000280001F0B9FA6D4D3900280001F0FAFA34
:1001000020006B49087000F0BAF800F0AAF800F07F
:1001100050F832212800143001F07CFB00F090FBF5
:100120000525644F22002900380001F09DFA62483D
:1001300001F058FC002801D002F092F905B0F0BDA2
:10014000F0B585B09627FF00049700240394544D22
:10015000039A0499280001F087FA02970194514DFF
:10016000019A0299280001F07FFA402600944E4D32
:10017000009A3100280001F077FA4C4D3900280030
:1001800001F0B8FA20004A49087000F078F800F051
:1001900068F800F00EF832212800143001F03AFB24
:1001A0000525444F22002900380001F05DFA05B012
:1001B000F0BD012041490200CA70002213000B73F8
:1001C00013004B7313008B771300CB771300CB73A3
:1001D00013000B7413004B7413008B741300CB7457
:1001E00013008B7113004B7513008B7513000B708C
:1001F00013004B7013008B7013000B7113004B71C5
:100200008A6013008B732E4913000B7013004B7020
:1002100013008B701300CB7013000B7113004B7124
:1002200013008B711300CB7113000B7213004B7210
:1002300013008B721300CB7213000B7313004B73FC
:1002400013008B731300CB7313000B7413004B74E8
:1002500013008B741300CB7413000B7548758A75EB
:100260007047002017490200CA7148630864486556
:1002700005228A65C86548668866C866704710B5F5
:100280000A4C01221049114802F059F940216054EA
:100290004020205C002802D101200949087110BDCE
:1002A000602F0020C8480020946E0020106E0020AF
:1002B0004C720020A4710020E86C0020906F002098
:1002C000C86F0020106A0020806A00207C6900202E
:1002D000F1B584B00025280069460871B04C6078FB
:1002E000002800D0A7E272B6AE4E3000143001F004
:1002F000F8FAF06362B6F06B002800D113E2F06BFD
:10030000007C012800D00EE2F06B0078002800D1BC
:1003100009E2022800D133E1032800D168E1042872
:1003200036D005282DD0062800D159E10A2800D161
:100330007BE10C2800D192E00D2800D1B6E10E2817
:1003400054D0142800D192E1152800D1AAE1162832
:1003500000D14EE11B2821D01C282ED01D2841D0D1
:100360001E285FD01F2800D1D7E1202800D1A6E0A9
:10037000212800D1C2E0222800D1E0E0232806D0C5
:10038000D1E101208849C8732800A075CBE1CAE1FA
:1003900001208549C8733720A075C4E10120824936
:1003A000C87382A1824803F0A9FA002802D0302045
:1003B000A07501E03120A075B5E101207A49C8732C
:1003C0007B4E7AA1300003F099FA002804D1300066
:1003D00003F0ACFA002802D10220A07501E032201F
:1003E000A075A0E101207049C8739CE1714E72496B
:1003F000300003F0A3FA300003F098FA80B201F065
:10040000DDF86946087168460079002805D00120AA
:100410006549C8730F20A07503E0D248C566012066
:10042000E07480E1CF4E634FB268CF49380003F0EB
:1004300085FA380003F07AFA80B201F0BFF8694615
:10044000087168460079002805D001205649C87314
:100450000F20A07502E0F5660120E07463E101F071
:100460009DF8C04E5421706903F088FA002805D029
:100470007269D5494F4803F061FA0AE05521706965
:1004800003F07CFA002804D0326ED049494803F0CA
:1004900055FA484803F04AFA80B201F08FF86946ED
:1004A000087168460079002805D001203E49C873CC
:1004B0000F20A07502E0F5660120E07433E13D4EA7
:1004C000D149300003F03AFA300003F02FFA80B23D
:1004D00001F074F86946087168460079002805D073
:1004E00001203149C8730F20A07506E09D48C566FC
:1004F00001200100E1742C49087614E1994E2D4F3A
:10050000736A326ACD49380003F018FA380003F0F4
:100510000DFA80B201F052F8694608716846007918
:10052000002805D001202049C8730F20A07505E0E0
:10053000F56601200100E1741B498876F3E0894EDD
:100540001C4F736A326AC749380003F0F7F9380064
:1005500003F0ECF980B201F031F8694608716846A1
:100560000079002805D001200F49C8730F20A0751D
:1005700005E0F56601200100E1740B490877D2E03F
:100580007848C179491CC1712900E174C566C179F7
:10059000042913DB01200449C8730420A075C2E0BC
:1005A000C86F0020106E0020906F002022220000F3
:1005B000946E0020183B0020FCC50008F16B89896F
:1005C0000170F06B8089411CF26B918101210A005E
:1005D000C04B80B21A54C048C1732800A075A2E075
:1005E000BD480121C1733321A175290001759AE02D
:1005F000FEE700F0D3FFB44E9B49300003F09EF9B4
:10060000300003F093F980B200F0D8FF694608711A
:1006100068460079002804D00120AF49C8730F2034
:10062000A0750120AC4908707DE000F0B7FF4D488F
:10063000818D0091036E8268A849A34803F07EF97A
:10064000A74F0126300038709F4803F06FF980B241
:1006500000F0B4FF6946087168460079002805D0AB
:100660009D48C6730F20A075280038705BE000F02D
:1006700095FF3C4FB88D0390B86A0290924E009659
:10068000039A0299009803F09DF900980D20B98D06
:100690007054B88D00F092FF6946087101208E49B0
:1006A000887540E001208C49C8743CE08948F16BB2
:1006B0000989405C00282FD0F06B8089401EF16BC7
:1006C000888100F06BFF804FB28EA149380003F0A3
:1006D00035F9380003F02AF980B200F06FFF69465F
:1006E000087168460079002817D12800A075611CA0
:1006F000012002000A70F26B12891A4B5A71764A75
:10070000030093735070280008702800607228005E
:10071000A0722800207200E005E001206E49C87335
:100720003620A075FFE7E07901280FD196480178BF
:10073000002904D004210B4A5163290001700948A3
:10074000406BC0B203F002FCE57174E0E07A01286E
:100750000CD16148C078012808D103F033FCE57260
:1007600069E000BF106A002090C60008A07B012845
:100770002ED18E4F5B4EF36CF26C3900B07803F0E3
:1007800027FD01208A4908703878D03088494870A0
:10079000B878874988700023002285498548006819
:1007A00003F0FFFE0023002281498348006803F024
:1007B000F8FE01220821814804F02DF9B564F564A2
:1007C00000F04BF8A57336E0ACC30008D0C30008B6
:1007D000E07B01281AD1754F424EF36CF26C390060
:1007E000092003F0F5FC9620C00002900095009AC5
:1007F0000299380000F038FFB564F56400F02DF878
:100800002800E073657016E0C8C20008607C01280B
:100810000AD134482F498279895C002902D0807935
:1008200000F08EFE657406E0207C012803D1644848
:1008300003F0DAFC257405B0F0BD000078C50008AF
:1008400025480021816001218170704722480021E4
:100850008160817001218177704701201E49C87035
:1008600070470000F4C30008A0C6000838B51A4C51
:10087000A078002804D0E078012801D100F086F8A3
:10088000504DA87C012808D14F4800F047FF0028B0
:1008900003D00020A874FFF7F2FCE87C002812D0F7
:1008A000104801006C31C26E521C0A60C06E474A8B
:1008B000904208D3002008600100E9740F21A97557
:1008C0000121E173687031BD183B00200121404ACD
:1008D000D1777047A4710020906F002038C40008C1
:1008E000A56F0020106A0020F1B5364D394F002069
:1008F0003870FFF7ABFF72B6374E334C3100200033
:1009000000F028FF62B63548006835490860FFF7F7
:1009100097FF200000F0F6FE002802D00120A87406
:100920000FE0E87800280CD1012231002D4801F0B9
:1009300006FE402160544020205C002801D10120A7
:100940003870F1BD80B52748C06F04F01DFA01BDB5
:1009500090C5000800B50100234801600268002A24
:1009600005D01B4AD27B012A01D000BFF6E7184808
:10097000C27B002A02D10122124B9A750022C27357
:100980001048807D00BD00004D72002010B572B689
:10099000A64C0D4800F0FDFEE06162B6E06900285B
:1009A00002D0E06900F022F810BD0000602F0020A6
:1009B000C4710020707100207C7100200004005080
:1009C000146A0020C86F0020106E0020C1D40100FE
:1009D000906F0020CC6F0020806A002024380140F6
:1009E000284C00407C690020AC710020F1B586B035
:1009F00000252900069800786A4610728C48C84E77
:100A00006A46127A0368F2540268521C0260006857
:100A10003018801E00780D2800D0F0E3844800686C
:100A20003018401E00780A2800D0E8E3BD4C20783A
:100A3000002800D0E3E37E4800683018001F0078EB
:100A40004F2800D04FE27A4800683018C01E007866
:100A50004B2800D047E2764800683018801E0078A6
:100A60000D2800D03FE2724800683018401E007820
:100A70000A2800D037E26F49300002F03FFF6E4F86
:100A8000386000282FD06D483968097A01700078E5
:100A9000312809D10120A44902003723CA54042275
:100AA0002823CA543822885472B69F4C210028311A
:100AB00083B06846142202F06BFF0EBC2000143095
:100AC00000F0CAFE62B62000283000F04DFF584802
:100AD00005609624E40000953700009A2100380054
:100AE00000F0C2FD8BE35649300002F007FF38608A
:100AF000002846D038685349086050483968C97B97
:100B000001703968097C417001780D2903D1FF20FB
:100B10004649C87009E041780D2906D13968C97B7A
:100B200001700078D0304149C87001207E4F01002B
:100B30003722B95402212822B954010021753821E5
:100B4000785472B63900283183B06846142202F016
:100B50001FFF0EBC3800143000F07EFE62B6380075
:100B6000283000F001FF28006070314805609624AD
:100B7000E40000953700009A2100380000F074FD71
:100B80003DE33149300002F0B9FE386000282DD035
:100B9000274805609620C000049003953700039A0B
:100BA0000499380000F060FD72B65F4F39002831BB
:100BB00083B06846142202F0EBFE0EBC38001430FD
:100BC00000F04AFE62B63800283000F0CDFE280062
:100BD0006070174805609620C00000902C00370018
:100BE00022000099380000F03FFD08E3DB493000A7
:100BF00002F084FE386000285DD03868801D3860BF
:100C0000D748290001700178142922DA3968097857
:100C10000D291BD039680978D24A0378D154396834
:100C2000491C39600178491C0170ECE7106A00200A
:100C3000C8710020E4C70008D07100201C7100209A
:100C4000B0C60008CC71002094C70008C5490078E0
:100C50000D5401203349C8750025C3480560962707
:100C6000FF00049703952E4E3400039A0499200048
:100C700000F0FAFC72B62C4C2100283183B0684693
:100C8000142202F085FE0EBC2000143000F0E4FDBA
:100C900062B62000283000F067FE28002149487025
:100CA000B148056000972C003700220000993800F9
:100CB00000F0DAFCA3E2607D012829D128006075EC
:100CC0000120194C01003722A15427002837142194
:100CD00039703821605472B62100283183B06846DB
:100CE000142202F055FE0EBC2000143000F0B4FDBA
:100CF00062B6380000F038FE9B4805609624E40098
:100D000000953700009A2100380000F0ADFC76E233
:100D1000A07D012830D12800A0750120024C05E0FB
:100D2000784D0020906F0020106E002001003722C7
:100D3000A15427002837152139703821605472B624
:100D40002100283183B06846142202F021FE0EBC37
:100D50002000143000F080FD62B6380000F004FE80
:100D6000814805609624E40000953700009A210030
:100D7000380000F079FC42E2207E01282BD12800C7
:100D80002076012001006176E44C01003722A15455
:100D900027002837052139703821605472B62100A8
:100DA000283183B06846142202F0F2FD0EBC200008
:100DB000143000F051FD62B6380000F0D5FD6A48ED
:100DC00005609624E40000953700009A2100380061
:100DD00000F04AFC13E2A07E01282BD12800A07667
:100DE00001200100E176CD4C01003722A1542700FB
:100DF0002837052139703821605472B62100283116
:100E000083B06846142202F0C3FD0EBC20001430EB
:100E100000F022FD62B6380000F0A6FD52480560E1
:100E20009624E40000953700009A2100380000F075
:100E30001BFCE4E1207F01282BD128002077012032
:100E400001006177B54C01003722A15427002837F3
:100E5000052139703821605472B62100283183B0E1
:100E60006846142202F094FD0EBC2000143000F0FD
:100E7000F3FC62B6380000F077FD3B48056096242D
:100E8000E40000953700009A2100380000F0ECFBE8
:100E9000B5E10120A14F01003722B95405212822D4
:100EA000B9543821785472B63900283183B0684675
:100EB000142202F06DFD0EBC3800143000F0CCFCA2
:100EC00062B63800283000F04FFD280060702648D8
:100ED00005609624E40000953700009A2100380050
:100EE00000F0C2FB8BE1BF49300002F007FDBE4FAE
:100EF000386000283AD0BD480188491C0180002292
:100F00000821BB4803F087FD0120844F01003722F0
:100F1000B95416212822B9543821785472B63900B0
:100F2000283183B06846142202F032FD0EBC38002E
:100F3000143000F091FC62B63800283000F014FD47
:100F400028006070084805609624E400009537008A
:100F5000009A2100380000F087FB50E1ECC7000840
:100F60005072002018000020C8710020CE493000C7
:100F700002F0C4FC3860002829D00120674F01002E
:100F80003722B95405212822B9543821785472B631
:100F90003900283183B06846142202F0F9FC0EBCF7
:100FA0003800143000F058FC62B63800283000F0E9
:100FB000DBFC28006070BD4805609624E4000095C5
:100FC0003700009A2100380000F04EFB17E1B849C5
:100FD000300002F093FC386000284CD0B549300056
:100FE00002F08CFC3860002802D03520D349887587
:100FF000D349300002F082FC3860002802D034204F
:10100000CE498875CF49300002F078FC386000285E
:1010100002D03420C9498875CBA1300002F06EFCA3
:10102000386001203D4F01003722B95405212822A4
:10103000B9543821785472B63900283183B06846E3
:10104000142202F0A5FC0EBC3800143000F004FCA1
:1010500062B63800283000F087FC280060709348A2
:1010600005609624E40000953700009A21003800BE
:1010700000F0FAFAC3E0B549300002F03FFC3860F6
:10108000002833D03868B2490860B2483968097A14
:10109000D03101700078A0710120204F010037226B
:1010A000B95423212822B9543821785472B6390012
:1010B000283183B06846142202F06AFC0EBC380066
:1010C000143000F0C9FB62B63800283000F04CFC48
:1010D00028006070754805609624E400009537008C
:1010E000009A2100380000F0BFFA88E0D2493000B1
:1010F00002F004FC3860002800D080E0CF493000C6
:1011000002F0FCFB3860002879D1CD49300002F0B4
:10111000F5FB3860002872D1CA4901E0106E00204A
:10112000300002F0EBFB3860002829D00120D74FB7
:1011300001003722B95405212822B95438217854A6
:1011400072B63900283183B06846142202F020FCC0
:101150000EBC3800143000F07FFB62B63800283037
:1011600000F002FC28006070504805609624E400FE
:1011700000953700009A2100380000F075FA3EE033
:10118000B149300002F0BAFB3860002832D00120AB
:10119000BE4F01003722B95405212822B954382105
:1011A000785472B63900283183B06846142202F0B0
:1011B000EFFB0EBC3800143000F04EFB62B6380076
:1011C000283000F0D1FB2800607038480560962474
:1011D000E40000953700009A2100380000F044FA3E
:1011E0000DE000BFA0C70008D07100203A720020B7
:1011F00000040050B949300002F080FB3860B84864
:101200000078012800D014E1284800683018001F39
:1012100000784F2800D00CE1244800683018C01E28
:1012200000784B2800D004E1204800683018801E68
:1012300000780D2800D0FCE01C4800683018401EE3
:1012400000780A2800D0F4E0A849300002F056FBEC
:10125000A44C2060002800D1CAE0A3480188491CA2
:1012600001808A480121372281540121382281548A
:1012700037492068086037482268527B02709C4AD0
:1012800023689B7B13709B4B2768FF7B1F7027682D
:101290003F7CC77047780D2F0ED12268527B0270B9
:1012A0000A68D21D0A6023E0F4C70008C871002054
:1012B000ACC70008FCC7000887780D2F09D1236848
:1012C0005B7B037023689B7B13700A6808320A609B
:1012D0000EE0C7780D2F0BD127687F7B077027683A
:1012E000BF7B17702268D27B1A700A6809320A60C5
:1012F00041780D2904D1007830388E4908643DE0EA
:1013000081780D2909D101780A22514340780818C3
:10131000894940188749086430E0C1780D291BD1FC
:1013200001786422514342780A235A43891880780D
:101330000818824940187F4908641FE0C86F0020E0
:1013400004C800080CC800083230000014C80008A7
:10135000CC7100201C7100200178FA2292005143C8
:10136000427864235A43891882780A235A43891899
:10137000C0780818884940186E490864434F6D4882
:10138000006CF8626B48056489480068F96A0831A6
:1013900088422DD3F86A8021C900884202D20120F8
:1013A000844988735149300002F0A8FA206020680F
:1013B00010302060F86A5F4988645E48806C019054
:1013C000206800907C485B49C96C4418019A0099D8
:1013D000200002F0F7FA012001003722B954382129
:1013E00078545448C06C5349896C40185149C864BA
:1013F00072B6264C2100283183B06846142202F0D0
:10140000C7FA0EBC2000143000F026FA62B62000A5
:10141000283000F0A9FA324F28007870644805603F
:101420009624E4000095009A2100300000F01CF999
:101430003D7007B0F0BD00001CC80008B8C7000828
:10144000C4C70008C0C6000824C80008F7B50600D5
:101450000D003848858502998162C6700B4C2700C3
:1014600028370A20387072B62100283183B06846C8
:10147000142202F08DFA0EBC2000143000F0ECF9BA
:1014800062B6380000F070FAF7BD0000106E002060
:10149000FEB582B006000D0000F070F825488660A9
:1014A0000566039941616946097CC170654C270056
:1014B00028370C20387072B62100283183B0684676
:1014C000142202F065FA0EBC2000143000F0C4F9BA
:1014D00062B6380000F048FA05B0F0BD2CC800082C
:1014E000906F0020D071002038720020D0C7000813
:1014F0001D7100201E7100207CB5050000F03EF833
:101500000C48C5704F4C260028360E20307072B63D
:101510002100283183B06846142202F039FA0EBC4B
:101520002000143000F098F962B6300000F01CFA88
:1015300073BD0000106A0020F0FDFFFF30EBFFFFDD
:101540007CB5050000F01AF83E4C260028360D2028
:1015500030702800C0B2A08672B62100283183B056
:101560006846142202F014FA0EBC2000143000F079
:1015700073F962B6300000F0F7F973BD00B5324878
:101580000178012905D04178012904D1807B012807
:1015900001D000BFF3E700BDB02FFFFF70B52B4CAB
:1015A00000252B4E2A002100300000F05DF870BDB0
:1015B000C8710020C86F0020602F0020F1B584B0F2
:1015C00000252E0020480079002802D105200600C1
:1015D0002CE001201F49C8706846008A002802D10B
:1015E0002120060022E01A4C6846028A21001A488F
:1015F00000F0E3FF002802D01120060016E0174F8C
:101600006846008A3880388802900194144C00940F
:10161000029A0199009802F0D5F9009828003988BB
:1016200060543A8821000F4800F0C7FF0948C57090
:101630000079002801D1FEF722FE3000C0B205B0CB
:10164000F0BD0000106E0020906F0020D606000054
:10165000183B0020C86F00207C6900203C720020ED
:10166000F0410020E86800201206130A1A43130C08
:101670001A4300BF094205D0830705D00270401C01
:10168000491EF9D1704700001300103906D330B459
:101690001400150010393CC0FCD230BC490700D3FF
:1016A0000CC000D504C0890002D30280801C002930
:1016B00000D50270704730B501684118446862086F
:1016C0008A188368E40704D54C461B1901E0641CA2
:1016D00009D1914203D00C7864B2491C01E00C306E
:1016E00030BD0D78491C1D705B1C002CEFD4641EAE
:1016F000F7D5EEE7816000220260C2604260414A95
:101700000261704700B501008A68CB681000643838
:10171000834201DB012000E0002000BD00B5010094
:10172000C868652801DA012000E0002000BD00B58E
:1017300001008A68C868904201D1012000E00020C1
:1017400000BD00B50100C868002801D1012000E0FB
:10175000002000BDF8B504000D002000FFF7E7FFF2
:10176000002815D1E068401CE06060680126009503
:1017700021690F1832000099380002F023F96068DF
:10178000401C6060A0686168814201DB00216160EB
:10179000F1BDF8B584B004001B4D01952000FFF7A2
:1017A000D0FF002801D0002028E09627FF00002667
:1017B0000296029A39002800FFF756FF1348007A74
:1017C00000281AD120680125039521690818029084
:1017D000019F039A0299380002F0F4F82068401C37
:1017E0002060E068401EE06009484565A068009000
:1017F00020680099884200DB2660019805B0F0BDA2
:101800000000000028520020C8480020C86F0020B7
:10181000106A0020142213004B43836000230360EE
:10182000C36043604E4B0361704770B50400A56808
:10183000E6682800142103F098FB864201D10120BC
:1018400000E0002070BD00B50100C868002801D18B
:10185000012000E0002000BD0EB418B504002000F7
:10186000FFF7E3FF002837D16068142103F07DFB08
:101870002169142242438918049A4A60216914227A
:101880004243891803AA927B8A7321691422424336
:10189000891803AAD27BCA7321691422424389188A
:1018A00003AA12890A816946097B226914234343EA
:1018B000D154216914224243891803AA127C0A7464
:1018C000E168491CE160616814316160A168626887
:1018D0008A4201DB0022626001B0019810BC04B0B2
:1018E000004710B504002000FFF7ADFF002801D02D
:1018F000002034E02068142103F037FB020019486F
:10190000216914235343C91849684160216914238C
:101910005343C918897B8173216914235343C91820
:10192000C97BC173216914235343C91809890181F3
:10193000216914235343C95C017021691423534363
:10194000C918097C0174216814312160E168491EBD
:10195000E160A16823688B4201DB0023236010BD96
:10196000385F00201C700020002141600A00827353
:101970000A000270C17305210181012101747047C1
:1019800010B50400002C01D101202AE03D20205C8C
:10199000002805D100203C216054200003F0B0FB5A
:1019A00002203D216054211D206800F0ABF9012088
:1019B000482160543E2160543F21605440216054CE
:1019C00041216054422160544321605444216054B9
:1019D0004521605446216054472160543D216054A4
:1019E000002010BD10B501003D20085C012801D089
:1019F000012030E002203D23C85401200B68DB6841
:101A000003430C68E3600B68134CA3420CD00B68D3
:101A10008024E405A34207D00B68104CA34203D0F6
:101A20000B680F4CA34210D10B689B680D4C1C40F7
:101A30002200062A0ED080235B029A420AD00B684D
:101A40001B6818430B68186004E00B681B68184398
:101A50000B681860002010BD002C014000040040FD
:101A60000040014007000100F8B504002068C0688C
:101A700000902068076902252F421BD0009828405B
:101A8000002817D00220C043216808610120207778
:101A9000206880698007800F002803D0200003F0B1
:101AA000B3FB05E0200003F0B0FB200003F0AEFB29
:101AB00000202077042637421BD0009830400028B1
:101AC00017D00420C0432168086125772068806909
:101AD000C02189000140002903D0200003F094FBBD
:101AE00005E0200003F091FB200003F08FFB0020B5
:101AF000207708252F421AD000982840002816D0B9
:101B00000820C0432168086126772068C0698007E3
:101B1000800F002803D0200003F076FB05E02000B2
:101B200003F073FB200003F071FB002020771020EE
:101B300007421BD000990840002817D01020C0434E
:101B40002168086125772068C069C02189000140AB
:101B5000002903D0200003F057FB05E0200003F02C
:101B600054FB200003F052FB0020207701200742A5
:101B70000AD000990840002806D00120C0432168FF
:101B80000861200000F037FC8220800138400028E6
:101B900008D00098000605D5164821680861200085
:101BA00003F035FBF80508D50098000605D5124866
:101BB00021680861200003F02BFB402007420AD077
:101BC00000990840002806D04020C04321680861E1
:101BD000200003F01EFB202007420AD00099084095
:101BE000002806D02020C04321680861200003F0AF
:101BF00011FBF1BD7FDFFFFFFFFEFFFFFEB504001D
:101C00000D000027684607703C20205C012801D1A8
:101C1000022072E001263C20265402203D2160541F
:101C20002068806835490140354808400190019896
:101C3000216888602868002852D0102850D02028B9
:101C40004ED030284CD0402840D050282AD0602890
:101C500032D0702809D080214901884204D08021E7
:101C60008901884210D040E041E0EB686A68A968C9
:101C7000206800F0D0F82068806877210143019146
:101C800001982168886032E0EB686A68A96820687A
:101C900000F0C1F8206880688021C90101432068F4
:101CA000816024E0EA686968206800F085F85021C6
:101CB000206800F0A7F81AE0EA686968206800F078
:101CC0008DF86021206800F09DF810E0EA686968EE
:101CD000206800F071F84021206800F093F806E0D9
:101CE0002968206800F08EF801E0684606703D2003
:101CF00026543C20275468460078FEBD88FFCEFF5E
:101D0000FF00FFFF10B50268244CA04206D08023DC
:101D1000DB05984202D0224B984204D170239A43AB
:101D200013004A681A43A04212D08023DB05984270
:101D30000ED01B4B98420BD01A4B984208D01A4B2E
:101D4000984205D0194B984202D01A4B984203D1C1
:101D5000174B1340CA681A4380239A434B691343B5
:101D600003608A68C2620A688262A04208D00E4A92
:101D7000904205D00D4A904202D00E4A904201D1C5
:101D80000A6902630122426104692240002A03D0E9
:101D900002690124A243026110BD0000002C014031
:101DA0000004004000200040004001400044014089
:101DB000FFFCFFFF0048014030B4056A036A0124BC
:101DC000A34303628369F024A34314011C430A2341
:101DD0009D430D438461056230BC704730B4056A91
:101DE000036A1024A34303628369124C1C4013034B
:101DF0002343A024A5430C012C438361046230BC1F
:101E00007047000082680A4B13400B4307221A43B5
:101E100082607047000030B48468074D25400D4350
:101E200015431C022C43846030BC70470000000046
:101E30008FFFCFFFFF0FFFFFFF00FFFF30B40368EE
:101E40000C004C4303256C43A3430C004C43544308
:101E50001C43046030BC704730B4C3680C004C4372
:101E600003256C43A3430C004C4354431C43C46000
:101E700030BC7047816170478162704770B4032243
:101E8000BF4B14000C4004256C431C5907250E0061
:101E9000360CB540AC430D002D0C0600AE40264379
:101EA0000A40042462439E5070BC704781B0D649FA
:101EB0000A6802430A60096801400091009901B074
:101EC000704710B503F0A8F900F083F800F0F6F9B8
:101ED00000F0CCF900F01EF900F060F900F0B8F85D
:101EE00000F0DDF800F0A0F9C848FFF77BFD0028FE
:101EF00001D000F0B5FA864C00222021200002F02B
:101F00008AFD00221021200002F085FD0022082118
:101F1000200002F080FDFA20800003F09FF90122EA
:101F20002021200002F077FD01221021200002F084
:101F300072FD01220821200002F06DFD02F01FFA5F
:101F4000904A1421012002F0D2FA8F4908608F4A8A
:101F50001421012002F0CBFA8D4908608D4A03213B
:101F6000012002F0C4FA8C490860A94A012101202D
:101F700002F0BDFAA7490860A74A0121012002F03A
:101F8000B6FAA6490860A64A0321012002F0AFFA7A
:101F9000A4490860B14A0021B14802F023FAB149CE
:101FA0000860B14A0021BB4802F01CFABA49086037
:101FB000BA4A0021BA4802F015FABA490860BA4A8A
:101FC0000021BA4802F00EFAB949086002F0EAF9B5
:101FD000FEE738B592B038210024220004AD280075
:101FE000FFF742FB102122006D462800FFF73CFB63
:101FF0008020800003F048F90225049580204000ED
:1020000007900894402009900B950C950D9408209A
:102010000E90802080020F90C020C004109080207D
:102020008005119004A803F063F9002801D000F0A6
:1020300017FA072000900195029403940221684644
:1020400003F0C0FB002801D000F00AFA13B030BD45
:1020500010B5984C98482060D64860600020A06079
:102060000121E16020616061A061E06120622000E7
:1020700003F016FD002801D000F0F2F90021200045
:1020800004F02EF9002801D000F0EAF90021200028
:1020900004F059F9002801D000F0E2F910BD30B584
:1020A00087B010210024220003AD2800FFF7DCFADE
:1020B0000C2122006D462800FFF7D6FA534DBE488A
:1020C00028606C60AC60BD48E8602C616C61AC61FC
:1020D0002800FFF755FC002801D000F0C1F980204E
:1020E0004001039003A92800FFF788FD002801D0D4
:1020F00000F0B6F90094019402946946280004F0B7
:1021000057F9002801D000F0ABF907B030BD00004E
:102110000004005010B5C54CC5482060E1204002C5
:1021200060600020A060E06020610C216161A0611E
:10213000E061206260620820A06280200002A0634B
:10214000200000F095F9002801D000F089F9002165
:10215000200004F096F9002801D000F081F9002158
:10216000200004F0B9F9002801D000F079F920002E
:1021700004F064F9002801D000F072F910BD0000ED
:1021800060180240E8C400086871002000C500081B
:102190006C71002018C500087071002010B5A54CA6
:1021A000A5482060E120400260600020A060E0605F
:1021B00020610C216161A061E06120626062082001
:1021C000A06280200002A063200000F051F90028E6
:1021D00001D000F045F90021200004F052F9002858
:1021E00001D000F03DF90021200004F075F900282D
:1021F00001D000F035F9200004F020F9002801D0CA
:1022000000F02EF910BD0000341002409C6C00203C
:1022100030C500087471002048C50008787100209E
:1022200060C500087C71002080B584488449016045
:10223000E1218902416000218160C16001610C22BD
:1022400042618161C16101624162816200F010F905
:10225000002801D000F004F901BD00001CC30008F3
:10226000C12300085871002040C3000880B5012038
:1022700074490A6802430A6009680840009000989F
:10228000002203210B2004F0F7F90B2004F0FEF9E3
:1022900001BD0000CD2300085C71002064C300086C
:1022A000DB2300086071002088C30008E9230008D0
:1022B00064710020F86B002000580040F0B589B030
:1022C0000C210024220006AD2800FFF7CDF91821CB
:1022D00022006D462800FFF7C7F90120FFF7E6FD51
:1022E0000220FFF7E3FD1021A020C005FFF7C2FD8B
:1022F00080273F023900A020C005FFF7BDFD08215F
:102300005148FFF7B9FD10214F48FFF7B5FD2021D7
:102310004D48FFF7B1FD1026009601250195029466
:10232000039404946946A020C00504F022FA0097A3
:1023300001950294039404946946A020C00504F01A
:1023400018FA0820009001950294039404946946B9
:102350003D4804F00EFA009601950294039404940B
:102360006946394804F005FA20200090019502944E
:10237000039404946946344804F0FBF9334900207F
:10238000FFF77CFD8020069006A8290001724472A8
:10239000857206A804F072FA00228021A020C005F0
:1023A000FFF75AFD00228021A020C005FFF746FD5F
:1023B00009B0F0BD6621C100002C0140FFF900000A
:1023C00010B50400012002F081F8FBE710B504000D
:1023D00004F0D0FA04F006FB10BD10B5040004F0C0
:1023E0007EFC04F081FCFCE710B5040004F02EFE36
:1023F00004F064FFFCE710B504002068144988422B
:1024000001D104F09DFF2068124988420DD1124885
:102410000168491C016011480168002902D0016867
:10242000491E01602000FDF753FF10BDC06700206A
:10243000003801405468002000440040E868002053
:10244000004C004038100240000400500100180009
:102450000010004000400140A8710020AC71002035
:1024600000B572B6FEE70268531C03601170704736
:1024700010B50400002C01D1012037E0A06900282C
:10248000FFD188202058002805D1002084216054E5
:10249000200004F0B0FF24208821605020680068EC
:1024A0000121884321680860A06A002802D020002A
:1024B00000F05AFC200000F0ABFA012801D1012005
:1024C00014E0206840680A490140206841602068A3
:1024D00080682A218843216888602068006801217B
:1024E000014320680160200000F0B2FC10BD000034
:1024F000FFB7FFFF38B50400002C01D101201DE01B
:1025000024208821605020680068012188432168C8
:1025100008600025206805602068456020688560A7
:10252000200005F027F890202550882025508C2089
:102530002550E566256784202554002032BD70B5FE
:1025400004000D0016008C202058202833D1002DC7
:1025500003D0300080B2002801D101202CE0A06817
:1025600080214901884207D12069002804D1280030
:10257000C00701D501201FE00020E06620683D492A
:10258000884211D02068406800020DD5EFF310801A
:10259000012181F31088216809688022D2040A434E
:1025A00021680A6080F31088320092B2290020006E
:1025B00000F014FD00E0022070BD70B504000E00B4
:1025C000150088202058202852D1002E03D0280042
:1025D00080B2002801D101204BE0A0688021490190
:1025E000884207D12069002804D13000C00701D5F6
:1025F00001203EE026655420255256202552002019
:102600009021605021218822A150E16F00291DD026
:102610001949E26FD1621949E26F11631849E26FFB
:102620005163E16F88632B009BB22068020028325F
:10263000216DE06F02F0B8FA002807D01020902139
:102640006050202088216050012012E04020216845
:102650000862EFF31080012181F3108821688968F6
:1026600080220A4321688A6080F31088002000E0FD
:10267000022070BD00800040E93100083B320008B4
:1026800065320008FEB504002068C7692068056847
:102690002068806800909A4838400290029800288C
:1026A0000FD1202007420CD02840002802D10098EA
:1026B000C00006D5606F002802D02000616F8847F7
:1026C0009DE10298002800D1A9E08E4800990140C0
:1026D000002904D18C492940002900D19FE039000C
:1026E000C90709D5E90507D50121226811629022A1
:1026F000A25811439022A15002210F420AD0009A01
:10270000D20707D5226811629022A25804231343EE
:102710009022A3500422174209D0009BDB0706D564
:1027200023681A629022A25811439022A1500821D6
:102730000F420CD0AA0603D4009A1040002806D0FD
:102740002068016290202058014390202150802071
:102750000001074209D0690107D52168086290206D
:1027600020582021014390202150902020580028FB
:1027700054D0202007420BD02840002802D10098D6
:10278000C00005D5606F002802D02000616F884727
:102790009020205801904026206880683040002812
:1027A00004D1019828210140002931D0200000F0F7
:1027B000E7FC206880680640002E25D0EFF31080EB
:1027C000012181F3108821688968402291432268A1
:1027D000916080F3108880202058002810D088480D
:1027E0008021615888638020205802F07FFA0028F9
:1027F00014D08020205880216158896B88470DE0D3
:10280000200004F009FF09E0200004F005FF05E0C6
:10281000200004F001FF002090216050EFE0E06E06
:10282000012800D0B4E01020074200D1B0E00542FA
:1028300000D1ADE02168086220688068400665D557
:102840008020205800684668300080B2002856D0AA
:1028500030005C21615A80B2884250D25E202652FC
:1028600020208021615809680968014000293BD176
:10287000EFF31081012282F3108822681268614B05
:1028800013402268136081F31088EFF31081012256
:1028900082F310882268926801239A4323689A6021
:1028A00081F31088EFF31081012282F310882268EF
:1028B000926840239A4323689A6081F310888C21A0
:1028C00060500020E066EFF31080012181F3108852
:1028D00021680968102291432268116080F31088F2
:1028E0008020205802F0BCF9022020675C20205A8A
:1028F0005E21615A411A89B2200004F08EFE7EE00A
:102900000F08000001000010200100045C20205A84
:102910005E21615A461A5E20205A002837D03000C6
:1029200080B2002833D0EFF31080012181F31088AA
:1029300021680968344A0A4021680A6080F31088D7
:10294000EFF31080012181F31088216889682F4AF4
:102950000A4021688A6080F3108820208C21605012
:102960000020E0666067EFF31080012181F310889A
:1029700021680968102291432268116080F3108851
:1029800002202067310089B2200004F046FE36E0C4
:1029900080204003074208D00099490205D52168EC
:1029A0000862200004F03AFE29E0802007420CD0A3
:1029B0002840002802D10098000206D5A06F002808
:1029C00002D02000A16F884719E04020074206D0BE
:1029D0002840002803D0200000F079FC0FE03802E6
:1029E00005D5680003D5200004F019FE07E0F801C2
:1029F00005D5002D03D5200004F012FEFFE7F7BD3A
:102A0000B7320008FFFEFFFFDFFEFFFFFEFFFFEF14
:102A1000F8B584B006000027380069460870AE4853
:102A200031688142FFD0B2683169114372690A434B
:102A3000F169114332681268A84B13400B433268A6
:102A4000136032685268A64B1340F2681A43336829
:102A50005A60B26903923268824203D00399326AA3
:102A60000A430392316889689E4A0A4003991143D8
:102A7000326891603168C96A0F229143726A0A43D1
:102A80003168CA623168B34A914215D1B2490968C6
:102A90008907890F002905D0022905D006D303290B
:102AA00006D007E03C0050E002244EE004244CE055
:102AB00008244AE0102448E03168A84A914216D11F
:102AC000A54909680C220A40002A06D0042A08D029
:102AD000082A04D00C2A06D007E03C0035E0022486
:102AE00033E0042431E008242FE010242DE0316885
:102AF0009B4A914201D13C0027E03168994A9142BA
:102B000001D13C0021E0316881421DD19249096820
:102B1000C02212010A40002A0CD08021C9008A423A
:102B20000CD0802109018A4206D0C02109018A42C5
:102B300006D007E03C0008E0022406E0042404E09C
:102B4000082402E0102400E010243168814264D19E
:102B50002000C0B2002806D0022808D0042808D0DF
:102B600008280AD00CE002F053FF05000CE0B64D37
:102B70000AE002F0EDFE050006E080252D0203E0EC
:102B80003D00012069460870002D00D1D6E02800E4
:102B9000AE49726A02235A43895A02F0E6F902905A
:102BA0000298716803225143884206D370688021DD
:102BB000490148430299884203D2012069460870BE
:102BC000BCE02800A149726A02235A43895A02F0E4
:102BD000CCF9002180225200002304F023FD0200E2
:102BE0000B0070684008002180185941726800236A
:102BF00004F031FD01900198C0218900884208D37A
:102C0000019880214903884203D201983168C86045
:102C100094E001206946087090E080252D02F0695B
:102C2000A84247D12000C0B2002806D0022808D010
:102C3000042808D008280AD00AE002F0E9FE0500BE
:102C40000AE0814D08E002F083FE050004E003E0A5
:102C50003D00012069460870002D6FD028007B4997
:102C6000726A02235A43895A02F07FF902214843CB
:102C7000716849084018716802F077F9019001986D
:102C8000102813D301988021490288420ED201995D
:102C9000A2480840019949084907490F014368467D
:102CA0004180684640883168C86047E00120694635
:102CB000087043E02000C0B2002806D0022808D0E7
:102CC000042811D0082813D013E002F0A1FE05005B
:102CD00013E05D4D11E000BF00800040F369FFCFBD
:102CE000FFCFFFFFFFF4FF1102F032FE050004E00A
:102CF00003E03D00012069460870002D1ED0280029
:102D00005249726A02235A43895A02F02EF97168B5
:102D100049084018716802F028F9019001981028BC
:102D200009D3019880214902884204D2019880B2D7
:102D30003168C86002E001206946087001206A21FC
:102D40007052682170527767B7676846007805B09F
:102D5000F0BD00BF00380140541002400044004064
:102D600000480040004C004000B52821415C0907A4
:102D700007D5016849686A4A0A40816B11430268B5
:102D800051602821415CC90707D501684968654A37
:102D90000A40C16A1143026851602821415C8907D9
:102DA00007D501684968604A0A40016B114302680F
:102DB00051602821415C490707D5016849685B4A91
:102DC0000A40416B1143026851602821415CC906E9
:102DD00007D501688968564A0A40C16B11430268E9
:102DE00091602821415C890607D501688968514AAC
:102DF0000A40016C1143026891602821415C490638
:102E000014D5016849684C4A0A40416C1143026874
:102E10005160416C80225203914207D10168496898
:102E2000464A0A40816C1143026851602821415C86
:102E3000090607D501684968BF4A0A40C16C1143B9
:102E40000268516000BD00000024F400A8C500081D
:102E50007CB50500002490202C5004F03BFC0600BB
:102E60002868006800071ED5B4480090330000228F
:102E700080218903280000F063F8002813D0EFF3C5
:102E80001080012181F3108829680968802291430C
:102E90002A68116080F310882020882168508420DF
:102EA0002C54032039E02868006840072BD5A3483C
:102EB0000090330000228021C903280000F040F870
:102EC000002820D0EFF31080012181F310882968B9
:102ED00009689B4A0A4029680A6080F31088EFF36A
:102EE0001080012181F310882968896801229143AB
:102EF0002A68916080F3108820208C2168508420FB
:102F00002C54032009E02020882168508C2168502F
:102F1000EC662C6784202C54002076BDF0FF000066
:102F2000FF7FFFFFFFFFFDFFFFFFFEFFFFFFFBFF38
:102F3000FFEFFFFFFFDFFFFFFFFFEFFFFFFF9FFF41
:102F4000FEB504000F00089D2068C0693840B842F3
:102F500001D1012000E000206946097988423BD177
:102F60000020C0438542EFD004F0B4FB0299401A20
:102F7000854201D3002D01D103202EE02068006896
:102F80004007E1D5802FDFD0402FDDD00826206814
:102F9000C069304000280BD020680662200000F095
:102FA000EFF890202650002084216054012014E086
:102FB000802000012168C96901400029C4D021682E
:102FC0000862200000F0DCF82020902160500020F2
:102FD00084216054032000E00020FEBD70B5030092
:102FE00099655C201A525E201A520020586780248E
:102FF00064019D68A5420AD11D69002D03D1794D58
:1030000060269D5324E0FF2560269D5320E09D68A7
:10301000002D0AD11D69002D03D1FF2560269D5387
:1030200016E07F2560269D5312E09D688026760578
:10303000B5420AD11D69002D03D17F2560269D531D
:1030400006E03F2560269D5302E0050060269D5363
:103050009025585122208C255851EFF310800125DE
:1030600085F310881D68AD6801262E431D68AE608B
:1030700080F31088586E8025AD05A84230D110002D
:1030800068255D5B80B2A8422AD39868A04205D12A
:103090001869002802D16C48586701E06B485867EE
:1030A000186900280DD0EFF31080012484F31088F4
:1030B0001C68246880256D0025431C68256080F30A
:1030C0001088EFF31080012484F310881C68A46832
:1030D00080256D0525431C68A56080F3108829E0D4
:1030E0009868A04205D11869002802D1584858674D
:1030F00001E058485867186900280ED0EFF3108097
:10310000012484F310881C68246890256D002543F1
:103110001C68256080F310880CE0EFF31080012418
:1031200084F310881C682468202525431C682560CA
:1031300080F31088002070BDFFFFF7FFFFFFFF0145
:10314000DFFEFFFFEFF31081012282F31088026897
:103150001268C0239A4303681A6081F31088EFF362
:103160001081012282F31088026892683A4B134062
:103170000268936081F31088202188228150704773
:1031800000B5EFF31081012282F310880268126803
:10319000324B13400268136081F31088EFF3108103
:1031A000012282F31088026892682D4B1340026856
:1031B000936081F31088C16E01290CD1EFF3108167
:1031C000012282F310880268126810239A43036870
:1031D0001A6081F3108820218C2281500021C16661
:1031E000416700BDFF01000038B50400A56A2068F2
:1031F000006880061DD4002056216852EFF310802D
:10320000012181F3108829688968802291432A6806
:10321000916080F31088EFF31080012181F3108812
:103220002968096840220A4329680A6080F31088E7
:1032300002E0280001F0BBFF31BD38B50400A56AEB
:10324000280004F04DFA31BDE9360008F5340008D5
:10325000F5330008FF320008FFFF7FFFDFFEFFFFAE
:10326000FEFFFFEFF8B50400A56A88202F588C20D8
:103270002E5828688068000607D5212F05D1002028
:10328000562168522800FFF75DFF286880684006D5
:1032900007D5222E05D100205E2168522800FFF7B5
:1032A0006FFF9020285810210143902029502800BA
:1032B00004F0B2F9F1BD38B50400A56A00205E2122
:1032C000685256216852280004F0A6F931BD10B5A5
:1032D0000400EFF31080012181F310882168096850
:1032E000402291432268116080F3108820208821B9
:1032F00060500020A067200001F059FF10BD70B59C
:1033000004006020255A8C20205822286BD1206888
:10331000406A0600300029000140A06D0170A06DD8
:10332000401CA0655E20205A401E5E2160525E2037
:10333000205A00285DD1EFF31080012181F310881D
:1033400021680968694A0A4021680A6080F3108888
:10335000EFF31080012181F3108821688968012230
:1033600091432268916080F3108820208C21605066
:1033700000206067206721685D4A914210D0216873
:10338000496809020CD5EFF31081012282F31088FD
:1033900022681268D34B13402268136081F31088AF
:1033A000E16E01291BD1E066EFF31080012181F36A
:1033B000108821680968102291432268116080F307
:1033C000108810202168C9690140002901D02168B6
:1033D00008625C20215A200004F01FF909E0200057
:1033E00001F0EFFE05E020688069082101432068B4
:1033F000816170BDF8B504006020255A8C202058EA
:1034000022286BD12068406A0600A06D07002800C2
:1034100030403880A06D801CA0655E20205A401E80
:103420005E2160525E20205A00285DD1EFF31080AB
:10343000012181F31088216809682C4A0A4021681B
:103440000A6080F31088EFF31080012181F3108867
:1034500021688968012291432268916080F3108875
:1034600020208C2160500020606720672168204A5E
:10347000914210D02168496809020CD5EFF3108100
:10348000012282F3108822681268964B134022684A
:10349000136081F31088E16E01291BD1E066EFF320
:1034A0001080012181F3108821680968102291435E
:1034B0002268116080F3108810202168C9690140DA
:1034C000002901D0216808625C20215A200004F004
:1034D000A4F809E0200001F074FE05E0206880698E
:1034E0000821014320688161F1BD0000DFFEFFFF7C
:1034F00000800040FEB504006020205A6946C88064
:103500002068C569206807682068806802908C2060
:103510002058222800D0DEE06820205A69464880E2
:1035200068464088002800D1AAE02026354200D114
:10353000A6E02068406A69468880684680886946B7
:10354000C9880140A06D0170A06D401CA0655E207F
:10355000205A401E5E2160522068C069050068073D
:10356000400F002831D02800C00709D5F80507D53D
:103570000120216808629021615808439021605021
:10358000022005420AD00299C90707D521680862BE
:103590009021615804220A439021625004210D4277
:1035A00009D0029AD20706D522681162902161588B
:1035B00008439021605090202058002805D020001A
:1035C00004F02AF80020902160505E20205A002844
:1035D000A6D1EFF31080012181F3108821680968DA
:1035E000BF4A0A4021680A6080F31088EFF3108018
:1035F000012181F3108821688968BA4A0A4021684C
:103600008A6080F310888C20265000206067206735
:103610002168B54A914210D02168496809020CD549
:10362000EFF31081012282F31088226812682D4B7B
:1036300013402268136081F31088E16E01291BD1C9
:10364000E066EFF31080012181F31088216809689A
:10365000102291432268116080F3108810202168A5
:10366000C9690140002901D0216808625C20215A03
:10367000200003F0D2FF53E7200001F0A2FD4FE746
:103680005E20205A6946088068460088002828D0B5
:10369000684600886821615A884222D2EFF3108080
:1036A000012181F3108821688968904A0A402168C5
:1036B0008A6080F310888E486067EFF310800121E4
:1036C00081F310882168096820220A4321680A6072
:1036D00080F3108805E02068806908210143206894
:1036E0008161F7BDFFFFFFFBF8B584B004006020E7
:1036F000205A6946C8802068C56920680768206824
:10370000806802908C202058222800D0E0E06820B9
:10371000205A6946488068464088002800D1ACE0BD
:103720002026354200D1A8E02068406A694688809A
:10373000A06D0390684680886946C9880140039857
:103740000180A06D801CA0655E20205A401E5E2175
:1037500060522068C06905006807400F002831D01A
:103760002800C00709D5F80507D50120216808629F
:1037700090216158084390216050022005420AD0F0
:103780000299C90707D5216808629021615804226F
:103790000A439021625004210D4209D0029AD207B7
:1037A00006D522681162902161580843902160502B
:1037B00090202058002805D0200003F02DFF002085
:1037C000902160505E20205A0028A4D1EFF3108091
:1037D000012181F3108821680968414A0A40216863
:1037E0000A6080F31088EFF31080012181F31088C4
:1037F000216889683B4A0A4021688A6080F3108802
:103800008C2026500020606720672168364A91424C
:1038100010D02168496809020CD5EFF3108101220C
:1038200082F3108822681268324B134022681360BA
:1038300081F31088E16E01291BD1E066EFF310805F
:10384000012181F3108821680968102291432268C0
:10385000116080F3108810202168C9690140002997
:1038600001D0216808625C20215A200003F0D5FEB7
:1038700051E7200001F0A5FC4DE75E20205A694683
:10388000088068460088002828D06846008868219B
:10389000615A884222D2EFF31080012181F310880F
:1038A00021688968114A0A4021688A6080F310887B
:1038B00011486067EFF31080012181F310882168BF
:1038C000096820220A4321680A6080F3108805E015
:1038D00020688069082101432068816105B0F0BD3E
:1038E000FFFEFFFFFEFFFFEF00800040FFFFFFEF46
:1038F000FF320008FFFFFFFBF533000870B50D78BD
:10390000002D11D00C0004E0491C0E78964207D01F
:10391000401C290000F032F8002805D001002300E7
:103920005B1C1A78002AEFD170BD2E00431C017871
:10393000401C0942FBD1C01A7047FEE70CB418B511
:1039400083B004000A0006A80290019400200090B1
:1039500002AB01A9084878441E3003F0C7FE0021DD
:10396000019A1170002801D40198001B04B001993C
:1039700010BC03B0084700BFEFEAFFFFC9B20278EE
:103980008A4203D0401C002AF9D100207047FEE78C
:1039900070B4103A03D378C9103A78C0FBD25307F9
:1039A00001D318C918C001D508C908C0D20704D36B
:1039B0000B880380891C801C002A01D50B780370BA
:1039C00070BC70478B0701D18307E1D0124205D04C
:1039D0000B78491C0370401C521EF9D17047FEE75A
:1039E000FEB50027FCF7ACFB0120C5490871FDF7C7
:1039F000D5FDC44DC4A12800FFF7A0FFC34C002291
:103A00002021200001F007F82800FFF78FFF80B287
:103A1000FDF7D4FD06003000C0B200280FD16420AD
:103A2000FCF798FF060001222021200000F0F3FFA0
:103A30003000C0B2002802D03000C0B2D2E1FDF7A1
:103A4000ADFDB3492800FFF779FF002220212000B7
:103A500000F0E1FF2800FFF769FF80B2FDF7AEFD3F
:103A600007003800C0B200280FD16420FCF772FFB5
:103A7000070001222021200000F0CDFF3800C0B255
:103A8000002802D03800C0B2ACE100222021200082
:103A900000F0C1FF192001F0E1FB012220212000EC
:103AA00000F0B9FF192001F0D9FB95488079002872
:103AB000EBD0FDF773FD934DCB492800FFF73EFF98
:103AC00000222021200000F0A6FF2800FFF72EFF93
:103AD00080B2FDF773FD06003000C0B200280FD1A0
:103AE0006420FCF737FF060001222021200000F0AF
:103AF00092FF3000C0B2002802D03000C0B271E1A5
:103B0000FDF74CFDB9492800FFF718FF2800FFF723
:103B10000DFF80B2FDF752FD07000022202120009A
:103B200000F079FF3800C0B2002808D16420FCF70B
:103B300011FF070001222021200000F06CFFFDF79B
:103B40002DFDAB492800FFF7F9FE2800FFF7EEFE38
:103B500080B2FDF733FD060000222021200000F096
:103B60005AFF3000C0B2002808D16420FCF7F2FEF2
:103B7000060001222021200000F04DFFFDF70EFD80
:103B8000BD492800FFF7DAFE2800FFF7CFFE80B21C
:103B9000FDF714FD070000222021200000F03BFF6C
:103BA0003800C0B2002808D16420FCF7D3FE07001B
:103BB00001222021200000F02EFFFDF7EFFCAFA234
:103BC000AF492800FFF7BAFE2800FFF7AFFE80B22A
:103BD000FDF7F4FC060000222021200000F01BFF6E
:103BE0003000C0B2002808D16420FCF7B3FE060004
:103BF00001222021200000F00EFFFDF7CFFCA1489C
:103C00000268A1492800FFF799FE2800FFF78EFE01
:103C100080B2FDF7D3FC070000222021200000F035
:103C2000FAFE3800C0B2002803D16420FCF792FEEF
:103C30000700FDF7B3FC95492800FFF77FFE280039
:103C4000FFF774FE80B2FDF7B9FC060000222021C8
:103C5000200000F0E0FE3000C0B2002808D164204F
:103C6000FCF778FE060001222021200000F0D3FEA0
:103C700003F030FD0190FA20800001F0EFFAFDF72B
:103C80008DFC83492800FFF759FE2800FFF74EFE00
:103C900080B2FDF793FC070000222021200000F0F5
:103CA000BAFE3800C0B2002808D16420FCF752FEEA
:103CB000070001222021200000F0ADFEFDF76EFC80
:103CC00074492800FFF73AFE2800FFF72FFE80B264
:103CD000FDF774FC6946087000222021200000F0E6
:103CE0009AFE6420FCF736FE060001222021200007
:103CF00000F091FE3000C0B237280BD1002711E050
:103D0000906F0020183B002041540D00000400502B
:103D100028C7000803F0DEFC0199401A5E4988427A
:103D2000A9D3012700222021200000F074FEFDF716
:103D300035FC5A492800FFF701FE2800FFF7F6FD81
:103D400080B2FDF73BFC69460870684600780028A1
:103D500009D16420FCF7FEFD69460870012220218C
:103D6000200000F058FEFA20400001F077FAFDF73D
:103D700015FC4B492800FFF7E1FD2800FFF7D6FDB1
:103D800080B2FDF71BFC06003000C0B2002803D152
:103D90006420FCF7DFFD0600FDF700FC4149280028
:103DA000FFF7CCFD2800FFF7C1FD80B2FDF706FC50
:103DB000050000222021200000F02DFE2800C0B2C6
:103DC000002808D16420FCF7C5FD05000122202150
:103DD000200000F020FE00222021200000F01BFE29
:103DE0002800C0B2FEBD0000DCC7000834C70008D0
:103DF00040C70008F7B582B01F00002420006946C4
:103E000008700194FA20800001F028FA3B78049AA7
:103E100003990298FDF73CFB03F05CFC0500224E81
:103E2000307D01280CD02148807D332808D003F054
:103E300051FC401B1E498842F1D30120694608709D
:103E4000307D012803D12000307520000DE0174996
:103E5000887D332802D133208C7500E001200100D9
:103E6000C9B2002901D0C0B203E0554909783970C0
:103E7000C0B205B0F0BD00004CC7000832300000F1
:103E800060C600082C000020B0C4000858C7000815
:103E900064C7000870C70008E19304007CC70008ED
:103EA00088C7000850C20008906F0020C86F00202B
:103EB000D1070000F7B582B000252F0050486946B1
:103EC000097A405C00280BD1684680898021C900AE
:103ED000884203DA68468089002801D1042032E054
:103EE000049A684681896846007AFDF7AFFA03F0C4
:103EF000F1FB009000221021A020C00500F08BFDF6
:103F0000404CE07C01280BD03F4E03F0E3FB0099CE
:103F1000401A3060306839498842F1D301200700E7
:103F2000A026F60501221021300000F074FD3800B3
:103F3000C0B2012804D100221021300000F06BFD36
:103F4000E5743800C0B205B0F0BD000070B50600E1
:103F50000024FDF723FB2D4D2D492800FFF7EEFC33
:103F60002800FFF7E3FC80B2FDF728FB05002800DE
:103F7000C0B2002805D001202249C8730F2025496E
:103F8000887501201F490870FDF708FB2800C0B2A2
:103F900070BD70B505000C00002006001D49487575
:103FA00017482900C9B2405C002806D02800C0B2DA
:103FB000FDF7C6FA3000C0B200E0022070BD00007C
:103FC000106A002010B50024FDF7E8FA12480C49E9
:103FD0004278895C00290FD00E494978002904D124
:103FE00042780E490948FFF7A9FC0848FFF79EFCF4
:103FF00080B2FDF7E3FA040010BD000011270000B5
:10400000A4710020906F0020B0710020183B0020A8
:1040100070C60008C86F0020106A0020E8C50008BC
:1040200010B50024E120400201F00EF800F0F4FF8A
:10403000FCF744F8E4B2200010BD10B500200400E5
:104040007D497E4A11607E497E4A116002217E4A86
:1040500011707E4908607E490870FFF7C1FC0100BD
:10406000C9B2002901D0C0B200E0C0B210BDF1B5A4
:1040700083B00020029003980090764D0098734919
:104080000860754C0098210000F06FFF01910098C6
:10409000210000F06AFF0400704E01983C2100F0FE
:1040A00061FF3160E1273F010198390000F05DFFB9
:1040B00008003C2100F056FF70600198390000F0C4
:1040C00051FFB060201D072100F04CFFB1610327B4
:1040D0003D420FD12800642100F044FF002906D1A1
:1040E0002800C821490000F03DFF002902D1B72077
:1040F000400001E0FF206E30844217D32F40002F94
:104100000FD12800642100F02DFF002906D12800DE
:10411000C821490000F026FF002902D1B720400045
:1041200001E0FF206E30241A6D1CD0E74B4E4C4846
:1041300028187061F461002030613D420ED12800E2
:10414000642100F00FFF002906D12800C821490092
:1041500000F008FF002901D1012000E000204149C2
:10416000C0B23022504308183169042251434058EC
:1041700084421FD33D420ED12800642100F0F2FE9C
:10418000002906D12800C821490000F0EBFE0029D3
:1041900001D1012000E000203249C0B2302250435A
:1041A00008183169042251434058241A3069401CD0
:1041B0003061C2E7641CF4600020306270692A49F3
:1041C000401870613069401C3061029804B0F0BD45
:1041D000F8B506000D0014001F003A002100280069
:1041E000164B1B689847F1BD10B504002000154917
:1041F0000968884710BD70B504000D0016001B4803
:1042000021780906627812040A43A1780902114351
:10421000E2780A431649511801600068FFF727FF4A
:1042200070BD72B601210A4A117062B60221064AB7
:104230001170704700000000F7410008B4710020C1
:1042400023420008B87100204F720020C071002086
:104250004E720020B207000080510100146F002050
:1042600094F8FFFF28C100086C070000BC71002013
:104270008081557CFEB506000D001400002700204B
:10428000009002AB220029003000FFF7B3FDC0B25E
:10429000FEBD38B5040000252000C0B2FDF72CF9A2
:1042A0002800C0B232BD70B505000C0000262A00FF
:1042B000210089B20020FFF7FDFDC0B270BD10B52E
:1042C000040001212000C0B2FFF763FE10BDFEE72D
:1042D000F0B5020052B2002A1CD403223D4B040068
:1042E00064B2A40804256C431C59FF25160006403F
:1042F00008277E43B540AC438D01EDB2024008264D
:10430000724395402543020052B29208042462434E
:104310009D5022E00F24304B032205006DB2254052
:10432000083DAE0804256E4305006DB22C40083CE4
:10433000A40804256C431F59FF24A446150005401A
:10434000082465436446AC40A7438C01E4B20240B4
:1043500008256A4394403C439C51F0BD80B51F48FA
:10436000006804F04DFD012801D004F040FE01BDBD
:1043700080B500210420C043FFF7AAFF01BD00B5AE
:10438000EFF30580002802D00520C04309E014485F
:104390000168002903D101210160002001E0002013
:1043A000C04300BD10B5EFF30580002802D0052002
:1043B000C0430DE00A4C2068012807D1FFF7D8FF61
:1043C0000220206004F082FA002001E00020C043B7
:1043D00010BD000000E400E01CED00E010E000E093
:1043E0003C710020F8B588B006000F0014000025CD
:1043F0000595EFF30580002865D13000002862D0D4
:10440000802006901820049007950020C043039058
:10441000002C35D02068002801D020680790A069C2
:10442000002801D0A06904900498002807D00498BF
:10443000392804D2012061680140002901D0002000
:1044400042E06169002902D0616989080691A1688A
:1044500000290AD0E1685C2907D32169002904D02A
:104460006169002901D003900BE0A068002808D101
:10447000E068002805D12069002802D1039500E0FA
:104480000395039801280DD1A0680290206901903E
:10449000049800903B00069A0799300004F0E6F873
:1044A000059010E0039800280DD105A8019004980C
:1044B00000903B00069A92B20799300004F00EF982
:1044C000012800D00595059809B0F0BD38B5040065
:1044D000EFF30580002802D00525ED4305E0002517
:1044E000002C02D0200004F0C9F9280032BDF8B534
:1044F00084B006000F00140000250295EFF305803C
:1045000000284BD1002E49D0002F47D00020C043B7
:104510000190002C1ED0A06800280DD0E068502823
:104520000AD32069002807D06169300078438142AE
:1045300002D3012001900EE0A06800280BD1E068B2
:10454000002808D12069002805D16069002802D11F
:10455000019500E001950198012809D10020009003
:10456000A36822693900300004F0B0FD029008E031
:104570000198002805D100223900300004F0E8FD40
:1045800002900298002809D0002C02D020680390E5
:1045900000E003950399029805F0B7F8029805B07A
:1045A000F0BDF7B507000C001D00009700200600C5
:1045B000EFF3058100291FD00099002903D0002CBA
:1045C00001D0002D03D00320C04306002EE001904F
:1045D000002301AA2100009804F098FE012803D0CE
:1045E0000220C043060021E0019800281ED0802050
:1045F00040053349086019E00098002801D0002CDC
:1046000003D10320C043060010E000232A0021004C
:10461000009804F0D3FD012808D0002D03D001201C
:10462000C043060002E00220C04306003000FEBD89
:10463000FEB506000C001700009600200500EFF301
:10464000058100291FD00099002904D0002C02D038
:104650000299002903D00320C04305002DE00190FA
:1046600001AA2100009804F047FF012803D002208E
:10467000C043050021E0019800281ED0802040059D
:104680000F49086019E00098002801D0002C03D1E0
:104690000320C043050010E0029A2100009804F0B6
:1046A00093FE012809D00298002803D00120C043BE
:1046B000050002E00220C04305002800FEBD000006
:1046C00004ED00E070B504002600EFF3058000283B
:1046D00002D00525ED4309E0002E02D10325ED436C
:1046E00004E000250021300004F0B4FC280070BD77
:1046F000F1B582B000230868D840002800D1EBE073
:10470000012508682C009C40044001940198002871
:1047100000D1DFE0032648683040012803D0486814
:10472000304002281ED1029887681C0002204443B2
:104730003000A0408743C86884461C0002204443E0
:104740006046A0403843029CA060029C67682C0031
:104750009C40A7434C6824092C409C403C432200C9
:10476000029C626048683040032812D00298C768F3
:104770001C00022044433000A040874388688446E0
:104780001C00022044436046A040384302000298C7
:10479000C26048683040022821D10298DC08042712
:1047A0007C430019076A072000970F24A4461F00C6
:1047B0000740042467436446BC40009FA743BC46AF
:1047C0000F691C0020400424604387406046074373
:1047D0003A000298DC0804277C4300190262029820
:1047E00007681C00022044433000A040874348680B
:1047F000304084461C00022044436046A0403843B9
:104800000200029802604868C024A4020440002C00
:1048100060D08E4C980804277843205800900F27CA
:10482000BC461F0030003840082778436746874061
:104830000098B84300900298A027FF05B84201D124
:10484000002510E00298824A90420CD00298814ADA
:10485000904201D1022506E002987F4A904201D1A0
:10486000350000E0052500981A001640082256433E
:10487000B54005439808042250432550774A1068F4
:10488000019CA0434C68E40202D504000198204337
:104890001060734C2268019DAA434D68AD0202D599
:1048A0001000019A024322606E4C2068019DA843CB
:1048B0004D68AD0302D502000198104320606A4C98
:1048C0002268019DAA434D68ED0302D51000019AAC
:1048D000024322605B1C0EE7F7BDF2B582B0010017
:1048E00000220298D040002800D193E001230298D2
:1048F0001C009440044000940098002800D187E0F8
:104900005248940804256C43005903260F241500CF
:1049100037002F4008256F432500BD400540019515
:10492000A020C005814201D100250FE04848814206
:1049300001D11D000AE04748814201D1022505E06E
:104940004548814201D1350000E0052501988446A3
:104950001700300038400827784385406046A84259
:1049600028D141480568009FBD4305603D48056862
:10497000009FBD4305603A480568009FBD43056040
:1049800036480568009FBD430560100035000540AE
:10499000082045432000A84001902C489508042792
:1049A0007D434759019DAF43844695080420454304
:1049B000604647510868170002256F433500BD4027
:1049C00005430D60D008042568430D18D00804275E
:1049D00078430818006AA446140067077F0F042470
:1049E00067436446BC40A04328628C6815000220DF
:1049F00045433000A84084438C6048689340984306
:104A00004860C8681300022463439E40B043C860F6
:104A1000521C66E7F7BD00B51300DBB2002B03D0D4
:104A20000B009BB2836102E00B009BB2836200BD6E
:104A300010B442690B009BB213401B040C00A4B2DB
:104A400094431C43846110BC70470000601802400E
:104A50000004005000080050000C005000180240F4
:104A600004180240841802408018024010B5040067
:104A7000002C01D1012050E020689B4940181421EE
:104A800000F073FA80002064022025216054206821
:104A90000068BA4901402068016020680068A16888
:104AA0000143E06808432169014360690843A16943
:104AB0000143E0690843216A014320680160200046
:104AC00000F008FAA0688021C901884201D10020C5
:104AD000606020798006800E616C0860E06CA16CDB
:104AE0004860606800280CD06068052809D2200062
:104AF00000F008FA0020216D0860A06D616D48602B
:104B000003E0002020656065A0650020E0630121CE
:104B10002522A15424216054002010BD70B504004A
:104B2000002C01D101203EE020680068012188436B
:104B30002168086020686C494018142100F015FABB
:104B4000800020640025206805608D4801680122EE
:104B50004023E35C1C261E40B2400A430260200052
:104B600000F0B8F9606C0560E06CA16C48606068AA
:104B700000280AD06068052807D2200000F0C2F99A
:104B8000206D0560A06D616D486025656565A56552
:104B9000E56225636563A563E5632800252160540C
:104BA00024202554002070BDF7B504001F0000200C
:104BB00006002421615C012901D102204FE001257A
:104BC00029002422A1542521615C012940D1022120
:104BD0002522A154E06320680068012188432168F0
:104BE00008603B00029A0199200000F04BF9206B0D
:104BF000002806D0206800680E210143206801606B
:104C00000BE0206800680421884321680860206860
:104C100000680A21014320680160606C0068C003DD
:104C200006D5606C0068802149000143606C01601A
:104C3000206D002806D0206D0068802149000143C6
:104C4000206D01602068006805432068056004E06D
:104C50008021E163242160542E003000C0B2FEBDEB
:104C600070B50100002901D101203BE02520085C3E
:104C7000022806D00420C863002024228854012082
:104C800030E0086800680E2290430A6810603D48D2
:104C90004A6C126802404B6C1A600A681268012361
:104CA0009A430B681A600122354B1C6840254D5D04
:104CB0001C262E401500B54025431D60CB6C8C6C26
:104CC00063600B6D002B07D00B6D1B6818400B6DDC
:104CD0001860886D4B6D586025200A5400202422EE
:104CE0008854002070BD0000F8FFFDBFF8B5040037
:104CF000002005002521615C022904D00420E06326
:104D00000120050036E0216809680E2291432268DF
:104D100011602168096801229143226811601949D4
:104D2000626C12680A40636C1A600122144B1E68A0
:104D3000B4464026A75D1C263E401700B740664695
:104D400037431F60E36CA66C7360236D002B07D0A4
:104D5000236D1B681940236D1960A16D636D596047
:104D60002521625424216054A06B002802D0200029
:104D7000A16B88472800C0B2F2BD00000F80FFFF82
:104D800004000240FFFEFFFFF8B504003C48056840
:104D9000206806681C210420226C0A40030093400E
:104DA0002B40002B19D0064217D0226812689206B9
:104DB00005D42268126804239A4323681A60444A7F
:104DC0001368276C3940884018431060206B002816
:104DD00054D02000216B884750E00222206C08400C
:104DE000130083402B40002B1FD016421DD020689B
:104DF0000068800608D4206800680A239843236866
:104E0000186001202523E05431480368276C39409D
:104E10008A401A430260002024216054E06A00287E
:104E20002CD02000E16A884728E00820226C0A4044
:104E3000030093402B40002B20D0304000281DD091
:104E4000206800680E229043226810600123204AE7
:104E50001068276CBC460F0061460F401900B9402E
:104E600001431160E3632520235400202421605472
:104E7000606B002802D02000616B8847F1BD000004
:104E800000000240F0B5C46C856C6C60046D002CB1
:104E900002D0846D456D6C600D4C27680125AC46D1
:104EA0004025455D1C262E406546B5403D432560A6
:104EB000046863608468102C04D10468A2600468EC
:104EC000E16003E00468A1600468E260F0BD0000F6
:104ED0000400024010B50400206C800804214843FF
:104EE0001149401860642078C0B20838142100F0DD
:104EF0003CF80E49A16401210200D206D20E914075
:104F0000E16410BD01798906890E04224A43084BE9
:104F1000D2180265074A426501220B005B1E9B07FF
:104F20009B0F9A408265704700080240800802404B
:104F3000FC08024040090240F446002804D44942DB
:104F400000F013F8404260474042002905D45FD08A
:104F500000F00BF8404249426047494200F005F832
:104F60004942604703460B43E6D40022030A8B42C2
:104F70000BD203098B4219D243088B422ED2411A1D
:104F800000D20146524110467047FF2209023FD02D
:104F900012068B4205D3121209028B4201D3121260
:104FA000090203098B4219D300E0090AC3098B42A5
:104FB00001D3CB01C01A524183098B4201D38B012B
:104FC000C01A524143098B4201D34B01C01A5241CE
:104FD00003098B4201D30B01C01A5241C3088B4213
:104FE00001D3CB00C01A524183088B4201D38B00FE
:104FF000C01A524143088B4201D34B00C01A5241A0
:10500000884200D3401A5241CFD201461046704721
:1050100008B504F0B7FB08BD10B56F4800686F49CC
:10502000FFF7A3FF0400641E6D486E490160632111
:10503000C1604460002101618160FCF7A1FC00288F
:1050400001D0FDF70DFA10BDF8B507000120674942
:105050000A6802430A600968084000900098644E9C
:10506000644830601020B0600024F460802030611B
:105070007461B461F4613462332070603000FFF712
:10508000F5FC5D4DEE67B56201220021092001F0BB
:10509000F3FA092001F0FAFA584828606F60AC6012
:1050A000EC602C610C206861AC61EC612C626C627C
:1050B000AC622800FDF71EFA002801D0FDF7D0F9F8
:1050C0002800FDF7D5F9002802D0FDF7C9F907E05F
:1050D000002201211B2001F0CFFA1B2001F0D6FA9B
:1050E000F1BD80B54448FDF7CDFA01BD80B53C481F
:1050F000FCF7BAFC01BD80B53B48FCF7B5FC01BD2F
:1051000070B58EB00400342100252A0001AE3000B5
:10511000FCF7AAFA20683A4988421CD18020800313
:1051200001900B9501A804F02FFB002801D0FDF79A
:1051300097F980210901334802680A430260006838
:10514000014000910098002201210D2001F094FA05
:105150000D2001F09BFA2448844211D1802189025C
:10516000284802680A4302600068014000910098E4
:1051700000220321152001F07FFA152001F086FAA4
:105180001748844211D1802149021E4802680A430F
:105190000260006801400091009800220321142061
:1051A00001F06AFA142001F071FA0EB070BD10B56A
:1051B000040020681149884202D12000FBF786FBD9
:1051C00010BD10B5040020680C49884202D12000AF
:1051D000FBF78AFB10BD00003800002010270000FC
:1051E000E86C002000400140346D0020381002407F
:1051F0009C6B0020080002407C69002000380140C0
:10520000002C0140401002407047704770477047C3
:10521000704770477047FEE710B500240C480168DE
:10522000802252000A430260032004F0E7FB0028BA
:1052300002D00120040001E002F08EF82000C0B28C
:1052400010BD04490A68044B134003430B607047C8
:105250000020024000000140FFF9FFFF70B504008C
:1052600002F038FA050026000020C043864202D032
:1052700004480078361802F02DFA401BB042FAD3E9
:1052800070BD00BF7D00002030B504000F480168EC
:105290000F4A0A402243026080208000844212D1DB
:1052A0000C480068062148430B49FFF75EFE401C8E
:1052B00005000A480068400505D5002D01D06D1E87
:1052C000F7E7032000E0002030BD00000070004040
:1052D000FFF9FFFF3800002040420F00147000402B
:1052E00002480168E020C0010840704708100240F1
:1052F000F8B584B00400002C01D101204FE2012652
:105300002068304000285CD0B34800683821014054
:105310000291B24800688007800F0190029810281F
:1053200002D10198032802D00298082808D1AC487D
:105330000068800345D56068002842D101202EE234
:10534000802040026168814204D1A5490A68104367
:10535000086017E06168A022D202914209D1A049F9
:105360000A688023DB0213430B600A68104308605D
:1053700008E09B480168B04A0A4002600168AF4AF1
:105380000A400260606800280DD002F0A3F9050011
:1053900093480068800314D402F09CF9401B6528F0
:1053A000F6D30320FBE102F095F905008C48006874
:1053B000800306D502F08EF9401B6528F6D3032042
:1053C000EDE12078800776D58348006838210140D8
:1053D0000291824800688007800F0190029810288F
:1053E00002D10198022802D0029800282CD17C49D1
:1053F0000868400504D5E068002801D10120CEE10D
:10540000BA480268BA4B1340626912021A4302603A
:105410000298002810D10868B64A0240206910435B
:105420000860B5480968C90A4A07520F310091401F
:10543000FFF79BFDBD490860BD48006804F0DEFA37
:10544000002838D00120AAE1E068002821D0644F6C
:105450003868A849014020690843386038688021CD
:1054600049000143396002F035F90500386840050C
:1054700006D402F02FF9401B0328F7D303208EE156
:105480009A4801689A4A0A40616909021143016019
:1054900011E0534F3868A7490140396002F01AF90A
:1054A00005003868400506D502F014F9401B0328B2
:1054B000F7D3032073E12078000734D5464800680D
:1054C00038210140182908D1B648006880072AD53C
:1054D000A069002827D1012061E1A069002810D02F
:1054E000B04F38683043386002F0F4F8050038688F
:1054F000800718D402F0EEF8401B0328F7D30320EE
:105500004DE1A84F386801218843386002F0E2F885
:1055100005003868800706D502F0DCF8401B032838
:10552000F7D303203BE1042720683840002800D14E
:105530008FE0002069460870274800683821014044
:1055400020290AD198480068800700D481E0A0682B
:10555000002800D07DE0012021E180204005934912
:105560000968014000290AD190490A6802430A608B
:1055700009680840039003983000694608708C4819
:105580000068C00514D48A4800688021490001439E
:105590008748016002F09EF8050085480068C00554
:1055A00006D402F097F8401B0328F6D30320F6E058
:1055B000A068012804D17C4801680E4306601AE007
:1055C000A06805280ED1784801680F43076001687C
:1055D0000E4306600FE000BF081002400C100240AE
:1055E0000010024070480168012291430160016887
:1055F000042291430160A06800280ED002F06AF8EE
:1056000005006948006880071AD402F063F8401B5F
:1056100068498842F5D30320C1E002F05BF8050039
:105620006148006880070BD502F054F8401B6149BF
:105630008842F5D30320B2E0FFFFFEFFFFFFFBFF30
:1056400068460078012804D1584801685A4A0A403F
:105650000260E069002800D1A0E0584800683821C5
:105660000140102968D0E069022847D1544F3868BA
:10567000B3490140396002F02DF800908026B6044D
:1056800038683040002807D002F024F80099401A0A
:105690000328F3D3032082E0AB480168A94A0A40FB
:1056A000216A1143626A0A43A16A09021143E26A4C
:1056B0000A43216B1143626B0A43026039688022FE
:1056C00052040A433A600168802252050A4302608C
:1056D00002F000F805003868304000285ED101F083
:1056E000F9FF401B0328F6D3032058E004100240C2
:1056F000FF80FFFFFFC7FFFF0024F400304E30683B
:105700008F490140316001F0E5FF050030688001FC
:1057100006D501F0DFFF401B0328F7D303203EE04E
:1057200089480168894A0A40026037E03800002051
:1057300034000020FFFEFFFFE069012801D10120B5
:105740002DE081480068019001988007800F216A50
:10575000884221D1019870210140606A81421BD1A9
:105760000198FE21C9010140A06A0002814213D1C3
:105770000198F82189030140E06A81420CD1019827
:10578000E02109050140206B814205D10198400FBD
:105790004007616B884201D0012000E0002005B085
:1057A000F0BD0000601002405C1002403C1002405E
:1057B0000070004089130000FFFFFFEF0810024057
:1057C00000100240F3B581B00400002C01D101208B
:1057D000B5E007258D4E306828400299884216D2E0
:1057E00030680721884302990143316001F072FF5C
:1057F0000090306828400299884208D001F06AFF82
:105800000099401A8A498842F3D3032097E0022086
:105810002168014000290FD02178490705D5854925
:105820000A68E023DB0113430B6082490A68824B5C
:105830001340A2681A430A602178C90745D56168F8
:10584000012905D17D480068800324D4012076E039
:105850006168022905D17948006880011BD40120C4
:105860006DE06168002905D174480068400512D4D4
:10587000012064E06168032906D171490968084084
:10588000002808D101205AE06E4909680840002824
:1058900001D1012053E0674F3868072188436168D0
:1058A0000143396001F016FF00903868382101404B
:1058B0006068C000814208D001F00CFF0099401AD6
:1058C0005B498842F1D3032039E0029831682940CE
:1058D000884216D23068072188430299014331601B
:1058E00001F0F8FE0090306828400299884208D004
:1058F00001F0F0FE0099401A4D498842F3D303208D
:105900001DE02078400706D54A4801685A4A0A40F7
:10591000E1681143016000F01BF85849454A1268DC
:10592000120A1207120F04235A43895CC906C90ED2
:10593000C840534908605348006804F05FF8FEBD52
:10594000FFFFFFFE8C80C1110C100240FCFFFEEE39
:10595000FCB5382037490A680240002A0CD10120E2
:1059600036490968C90A4907490F88400600464870
:105970003100FFF7FAFA44E00A680240082A01D130
:1059800042483EE00A680240102A2BD1404F386856
:105990008007800F0190386800094007400F401CC5
:1059A0000500019803280AD138482900FFF7DDFADD
:1059B0003968090A4906490E4843040009E032489B
:1059C0002900FFF7D2FA3968090A4906490E484307
:1059D00004003868400F401C009020000099FFF739
:1059E000C4FA0EE00A680240202A02D18020000298
:1059F00007E009680840182802D1FA20C00100E039
:105A00000020F6BD1E4800687047000000200240DC
:105A100010B5FFF7F7FF0400FFF762FC1D49000B0C
:105A200004225043085CC006C00EC440200010BDD4
:105A30008913000008100240FFF0FFFF0010024031
:105A4000601002405C10024030B407220260124B2A
:105A50001C68144044601C68F0252D0125408560B9
:105A60001B68E024E4011C40C4600C4B1B681A4016
:105A70000A6030BC70470000FF8FFFFF10C20008B3
:105A800038000020340000200024F40000127A00C6
:105A90000C10024058C400080810024000200240C8
:105AA00010B50400002C01D1012065E04120205CEC
:105AB000002805D1002040216054200001F06BFC3B
:105AC0002420412160542068006801218843216816
:105AD0000860606829490140206801612848216800
