:020000040800F2
:10000000E0730020F1D30008DFCA0008E3CA00084B
:1000100000000000000000000000000000000000E0
:10002000000000000000000000000000B9C6000849
:1000300000000000000000007BC60008994A00088C
:10004000DB3D00086B3E00080B4A0008B75A000869
:10005000DF7000081F810008CF81000875CB000801
:10006000DF810008DD090008F3810008E7CA000805
:100070007B910008F1CA0008CFA20008D3A20008B3
:1000800063B800080DCB00083FB9000843B9000869
:100090008D590008975900088BBA0008DFBA00088C
:1000A00003BF000863C80008A7CD000883590008F3
:1000B00017CB00086BCB000897D00008F0B585B0CF
:1000C0009627FF00049700240394774D039A049920
:1000D000280001F037FD02970194744D019A0299AE
:1000E000280001F02FFD40260094714D009A310048
:1000F000280001F027FD6F4D3900280001F04EFD6A
:1001000020006D49087000F0BEF800F0AEF800F075
:1001100050F832212800143001F0D0FD00F0DCFB53
:100120000525664F22002900380001F00BFD6448C8
:1001300001F0ACFE002801D002F0E6FB05B0F0BDF6
:10014000F0B585B09627FF00049700240394564D20
:10015000039A0499280001F0F5FC02970194534D8D
:10016000019A0299280001F0EDFC40260094504DC0
:10017000009A3100280001F0E5FC4E4D39002800BE
:1001800001F00CFD20004C49087000F07CF800F0F4
:100190006CF800F00EF832212800143001F08EFDCA
:1001A0000525464F22002900380001F0CBFC05B0A0
:1001B000F0BD10B4012043490200CA7000221300B0
:1001C0000B7313004B73130021240B5513002224CF
:1001D0000B551300CB7313000B7413004B741300F7
:1001E0008B741300CB7413008B7113004B751300C9
:1001F0008B7513000B7013004B7013008B70130082
:100200000B7113004B718A6013008B732E4913001E
:100210000B7013004B7013008B701300CB70130026
:100220000B7113004B7113008B711300CB71130012
:100230000B7213004B7213008B721300CB721300FE
:100240000B7313004B7313008B731300CB731300EA
:100250000B7413004B7413008B741300CB741300D6
:100260000B7548758A7510BC70470020174902004D
:10027000CA718863486488650522CA65086688660D
:10028000C8660867704710B50A4C0122104911482A
:1002900002F0A5FB402160544020205C002802D1E0
:1002A00001200949087110BDAC2F00203C420020FC
:1002B0000C68002088670020CF6B0020286B00208E
:1002C00060660020086900204469002084630020E3
:1002D000F8630020F0620020F1B59AB000252800F4
:1002E00069460871B04C6078002800D0EFE272B621
:1002F000AE4E3000143001F048FDF06362B6F06B92
:10030000002800D15DE2F06B007C012800D058E2AB
:10031000F06B0078002800D153E2022800D147E1B9
:10032000032800D16EE1042839D0052830D00628F2
:1003300000D15FE10A2800D181E10C2800D195E0CD
:100340000D2800D1FCE10E2857D0142800D1BAE1C5
:10035000152800D1D2E1162800D154E11B2824D061
:100360001C2831D01D2844D01E2862D01F2800D15F
:1003700021E2202800D1B0E0212800D1CEE02228BF
:1003800000D1F1E0242809D0252800D1BAE118E2F3
:100390000120B349C8732800A07512E211E20120C0
:1003A000AF49C8733920A0750BE20120AC49C8736E
:1003B000ACA1AD4803F0F2FC002802D03020A075BB
:1003C00001E03120A075FCE10120A549C873A64ECB
:1003D000A4A1300003F0E2FC002804D1300003F0B7
:1003E000F5FC002802D10220A07501E03220A075A2
:1003F000E7E101209A49C873E3E19C4E9C49300033
:1004000003F0ECFC300003F0E1FC80B201F034FBBF
:100410006946087168460079002805D00120904996
:10042000C8730F20A07503E0924805670120E074AF
:10043000C7E1CC4E8D4FB2688F49380003F0CEFC37
:10044000380003F0C3FC80B201F016FB6946087166
:1004500068460079002805D001208149C8730F2023
:10046000A07502E035670120E074AAE101F0D2FA3C
:10047000BC4E70690078542806D1736E72697F494A
:100480007A4803F0ABFC12E070690078552805D17A
:10049000726E7B49754803F0A1FC08E07069007832
:1004A0004D2804D1726E7749704803F097FC6F486D
:1004B00003F08CFC80B201F0DFFA694608716846EF
:1004C0000079002805D001206549C8730F20A07568
:1004D00002E035670120E07473E1A24E634F736E52
:1004E000B2686949380003F079FC380003F06EFC0B
:1004F00080B201F0C1FA69460871684600790028A7
:1005000005D001205649C8730F20A07505E0356756
:1005100001200100E1745249087652E1914E04AA8B
:10052000318D706A01F0D1FA504F04AB326ACD4977
:10053000380003F053FC380003F048FC80B201F0AF
:100540009BFA6946087168460079002805D00120A9
:100550004349C8730F20A07505E0356701200100ED
:10056000E1743F4988762CE1404ED449300003F0D5
:1005700035FC300003F02AFC80B201F07DFA6946B8
:10058000087168460079002805D001203449C873F5
:100590000F20A07506E07348056701200100E17493
:1005A0002F4908770DE100BF4469002088670020CB
:1005B0006C48C179491CC1712900E1740567C17992
:1005C000042905DB01202649C8730420A075F8E042
:1005D000F16B89890170F06B8089411CF26B91810C
:1005E00001210A00C64B80B21A541D48C17328006D
:1005F000A075E6E01A480121C1733321A1752900D5
:100600000175DEE0FEE701F005FA184EB149300051
:1006100003F0E4FB300003F0D9FB80B201F02CFAC8
:100620006946087168460079002804D001200C4909
:10063000C8730F20A075012009490870C1E001F0BE
:10064000E9F9AC480078012820D14648018E009194
:10065000436E8268AB49054803F0C0FB1CE000BF55
:1006600008690020222200000C680020643B002062
:10067000E4D2000884630020A0D3000840CF000823
:1006800020D0000844D0000860D100083548028E10
:100690009D49B64803F0A2FB9C4F012630003870FC
:1006A000B24803F093FB80B201F0E6F969460871A5
:1006B00068460079002805D0C748C6730F20A0758A
:1006C000280038707DE001F0A5F9264F388E0390A0
:1006D000F86A0290A54E0096039A0299009803F0DA
:1006E000B7FB00980D20398E7054388E01F0C4F994
:1006F000694608710120B849887562E00120B64951
:10070000C8745EE001F086F9984F9B48006800903D
:100710009A4BB28E9A49380003F060FB380003F020
:1007200055FB80B201F0A8F9694608716846007966
:10073000002801D12800A0750120A749887740E052
:100740006F48F16B0989405C002833D0F06B8089D9
:10075000401EF16B888101F05DF9844FB28EA24991
:1007600002E000BF84630020380003F037FB38004C
:1007700003F02CFB80B201F07FF9694608716846EE
:100780000079002817D12800A075611C0120020003
:100790000A70F26B1289A24B5A718F4A030093734D
:1007A000507028000870280060722800A07228008D
:1007B000207200E005E001208749C8733820A07549
:1007C000FFE7E07901280FD19E480178002904D085
:1007D0000421934A9163290001709148806BC0B253
:1007E00003F0EEFEE57172E0E07A012807D17A4865
:1007F000C078012803D103F04BFFE57267E0A07BCE
:10080000012831D1904E864F3B6D3A6D3100B8785A
:1008100004F048F8386D042810D28C490120087083
:100820003078D030487070788870B078C870002305
:1008300000228748006804F052FA08E09620C000C1
:1008400002900095009A0299300001F07BF9012294
:100850000821804804F07DFCFD643D6500F04CF803
:10086000A57334E0F8D20008E07B012818D1764F58
:100870006B4E336D326D3900092004F013F8962069
:10088000C00002900095009A0299380001F05AF9D0
:10089000F564356500F030F82800E073657016E007
:1008A000607C01280CD15E4815498279895C002959
:1008B00002D0807901F07CF8657408E07CD10008F2
:1008C000207C012803D1644803F0F8FF25741BB095
:1008D000F0BD0000B0D300083F4800218160012135
:1008E000817070473C480021816081700121212284
:1008F00081547047C96B002001203749C870704788
:10090000286B0020CCD0000860D200081D690020B0
:1009100038B5314CA078002804D0E078012801D106
:1009200000F080F84D4DA87C012808D14C4801F01A
:1009300049F9002803D00020A874FFF7A4FCE87C44
:10094000002812D0364801007031026F521C0A6034
:10095000006F444A904208D3002008600100E97407
:100960000F21A9750121E173687031BD643B00203E
:1009700001213D4A11707047B06A0020000000203C
:1009800098D10008F1B5354D384F00203870FFF789
:10099000A9FF72B6364E324C3100200001F02EF91C
:1009A00062B6FFF799FF200001F000F9002802D09D
:1009B0000120A8740FE0E87800280CD10122310052
:1009C0002C4802F00CF8402160544020205C0028A4
:1009D00001D101203870F1BD0869002080B525489B
:1009E000C06F04F06FFD01BD78D2000800B50100B2
:1009F000214801600268002A05D0204AD27B012AE2
:100A000001D000BFF6E71D48C27B002A02D10122B7
:100A1000124B9A750022C2731048807D00BD000001
:100A20008463002010B572B6AA4C0D4801F005F998
:100A3000E06162B6E069002802D0E06900F020F8C9
:100A400010BD0000D06B0020AC2F0020486B0020B0
:100A5000F46A0020000400508863002044690020EC
:100A600088670020C1D401002A690020486900205D
:100A7000F8630020F0620020306B0020086900203D
:100A8000F1B588B000252900089800786A465073AF
:100A900091486A46527B914B04681A550268521C71
:100AA00002608E4A00681018801E00780D2801D060
:100AB00000F086FD8948884909684018401E007882
:100AC0000A2801D000F07CFDBF4C2078002801D01E
:100AD00000F076FD8148804909684018001F0078C1
:100AE0004F2800D08CE27D487B4909684018C01E21
:100AF00000784B2800D083E278487749096840188D
:100B0000801E00780D2800D07AE274487249096886
:100B10004018401E00780A2800D071E270496F48E2
:100B200003F03CF96F4E3060002830D06E483168D9
:100B3000097A01700078312809D10120A349020007
:100B40003723CA5404222823CA543822885472B640
:100B50009E4C2100283183B06846142203F05EF9D0
:100B60000EBC2000143001F0CBF862B62000283013
:100B700001F04EF9584805609624E4000095574E60
:100B8000009A2100300000F0DDFF00F019FD574908
:100B9000524803F003F93060002846D030685449C9
:100BA000086051483168C97B01703168097C417027
:100BB00001780D2903D1FF204649C87009E041782A
:100BC0000D2906D13168C97B01700078D0304149C8
:100BD000C87001207D4E01003722B154D64F02214A
:100BE0003970010021753821705472B631002831F6
:100BF00083B06846142203F011F90EBC30001430A3
:100C000001F07EF862B6380001F002F92800607049
:100C1000314805609624E4000095304E009A21008A
:100C2000300000F08FFF00F0CBFCC4492B4803F0EC
:100C3000B5F8306000282CD0274805609627FF00C3
:100C400004970295254E029A0499300000F07AFF2D
:100C500072B65E4E3100283183B06846142203F02C
:100C6000DDF80EBC3000143001F04AF862B63000F6
:100C7000283001F0CDF82800607017480560009713
:100C80002C00164E22000099300000F05BFF00F0AF
:100C900097FCAB49114803F081F8306000285DD023
:100CA0003068801D3060A748290001700178142940
:100CB00023DA316809780D291CD031680978A24AF5
:100CC0000378D1543168491C31600178491C0170A6
:100CD000ECE700BF846300204C6B0020EC46002052
:100CE0000CD50008546B0020986A0020C0D300087F
:100CF000506B0020944900780D54334F0120F87553
:100D00000025E14805609626F600049602958F4C72
:100D1000029A0499200000F015FF72B62B4C2100B6
:100D2000283183B06846142203F078F80EBC200006
:100D3000143000F0E5FF62B62000283001F068F8BA
:100D400028007870D048056000962C007F4E220065
:100D50000099300000F0F6FE00F032FC607D0128C2
:100D60002AD1280060750120184C01003722A154B7
:100D700026002836142131703821605472B62100C3
:100D8000283183B06846142203F048F80EBC2000D6
:100D9000143000F0B5FF62B6300001F039F8BA48FF
:100DA00005609624E4000095684E009A210030000A
:100DB00000F0C8FE00F004FCA07D01282ED1280020
:100DC000A0750120014C03E008690020886700201D
:100DD00001003722A1542600283615213170382110
:100DE000605472B62100283183B06846142203F0A3
:100DF00015F80EBC2000143000F082FF62B63000FF
:100E000001F006F8A04805609624E40000954F4ED6
:100E1000009A2100300000F095FED1E3A07F012868
:100E20002BD12800A07701200100E177C64C0100FA
:100E30003722A1542600283605213170382160540C
:100E400072B62100283183B06846142202F0E6FF12
:100E50000EBC2000143000F053FF62B6300000F0EA
:100E6000D7FF894805609624E4000095374E009A24
:100E70002100300000F066FEA2E3207E01282BD185
:100E800028002076012001006176AF4C0100372256
:100E9000A15426002836052131703821605472B6DD
:100EA0002100283183B06846142202F0B7FF0EBC3F
:100EB0002000143000F024FF62B6300000F0A8FFDC
:100EC000714805609624E4000095204E009A2100A8
:100ED000300000F037FE73E3A07E012838D12800EF
:100EE000A07601200100E176974C01003722A15441
:100EF00026002836052131703821605472B6210051
:100F0000283183B06846142202F088FF0EBC20000E
:100F1000143000F0F5FE62B6300000F079FF5A4858
:100F200005609624E4000095084E009A21003000E8
:100F300000F008FE44E300BFB0670020B4D400080E
:100F400014D50008D36B002010000020EC460020D0
:100F5000207F01282BD12800207701200100617714
:100F6000794C01003722A154260028360521317022
:100F70003821605472B62100283183B068461422AB
:100F800002F04CFF0EBC2000143000F0B9FE62B637
:100F9000300000F03DFF3C4805609624E4000095D9
:100FA0009E4E009A2100300000F0CCFD08E30120A5
:100FB000654E01003722B154CE4F052139703821DA
:100FC000705472B63100283183B06846142202F0A2
:100FD00025FF0EBC3000143000F092FE62B63800DF
:100FE00000F016FF28006070274805609624E40092
:100FF00000958A4E009A2100300000F0A3FDDFE248
:10100000BD49864802F0CAFEBC4E3060002831D08F
:10101000BB480188491C018000220821B94804F01E
:1010200098F80120484E01003722B154B14F1621E3
:1010300039703821705472B63100283183B0684657
:10104000142202F0EBFE0EBC3000143000F058FE0B
:1010500062B6380000F0DCFE280060700A480560C7
:101060009624E40000956D4E009A2100300000F0B7
:1010700069FDA5E2A449694802F090FE30600028AD
:1010800031D00127304E01E04C6B00203800372171
:10109000705405202821705438003821705472B6DD
:1010A0003100283183B06846142202F0B7FE0EBC2E
:1010B0003000143000F024FE62B63000283000F01A
:1010C000A7FE3800E07191480770280060709048D2
:1010D00005609624E4000095504E009A21003000EF
:1010E00000F030FD6CE28B494C4802F057FE306056
:1010F00000282BD00120144E01003722B1547D4F1F
:10110000052139703821705472B63100283183B00E
:101110006846142202F082FE0EBC3000143000F04B
:10112000EFFD62B6380000F073FE2800607078486A
:1011300005609624E4000095384E009A21003000A6
:1011400000F000FD3CE200BF886700207249334890
:1011500002F024FE3060002862D0304F6F49380022
:1011600002F01CFE3060002802D037206C498875E0
:101170006C49380002F012FE3060002802D03620A0
:10118000674988756849380002F008FE3060002819
:1011900002D036206249887564A1380002F0FEFD55
:1011A00030606349380002F0F9FD3060002802D059
:1011B00037205B498875DD49380002F0EFFD30606B
:1011C000002802D03420564988750120D84E0100ED
:1011D0003722B15405212822B1543821705472B6F7
:1011E0003100283183B06846142202F017FE0EBC8D
:1011F0003000143000F084FD62B63000283000F07A
:1012000007FE28006070424805609624E4000095BF
:10121000009A2100380000F095FCD1E1EC46002056
:10122000C449C54802F0BAFD3060002832D03068A9
:10123000C2490860C2483168097AD031017000782B
:10124000A0710120BA4E01003722B154294F242148
:1012500039703821705472B63100283183B0684635
:10126000142202F0DBFD0EBC3000143000F048FD0B
:1012700062B6380000F0CCFD28006070244805609C
:101280009624E4000095AC4E009A2100300000F056
:1012900059FC95E1AB49A84802F080FD3060002878
:1012A00000D08DE1A849A44802F078FD3060002804
:1012B00000D1D2E0052069460873306807901620F7
:1012C0006946C87230686946C97A4018401C306067
:1012D0003068007869468872684645726846807A48
:1012E0002C2827D100206946C8736846407A002818
:1012F0002DD149E0B0670020C0D40008546B002015
:10130000BE6B0020000400501CD50008C86B0020F4
:101310004C6B002024D50008CCD400082CD5000844
:101320004469002034D500083CD500083230000064
:1013300044D500086846407A401C694648723068C7
:101340000078694688723068401C3060C6E768469D
:10135000407A042818DA6846407A0490079869466B
:10136000C97A4018401C009001AD049A00992800E9
:1013700002F06EFD002001A96A46527A885401A845
:1013800004F023FA6946C873306804900020694667
:10139000087204980078694688726846807A0D2839
:1013A00008D100252800694688736846007A00281D
:1013B0000DD125E06846007A401C69460872306805
:1013C0000078694688723068401C3060E5E76846FE
:1013D000007A042814DA6846007A0690049805908A
:1013E0006E46069A0599300002F032FD28006946E3
:1013F0006A46127A8854684604F0E7F969468873A9
:101400000620694608730120494E01003722B15475
:101410003821705472B63100283183B068461422E6
:1014200002F0FCFC0EBC3000143000F069FC62B627
:101430003000283000F0ECFC28006070AE480560F9
:101440009620C000069005953B4E059A06993000FF
:1014500000F078FB28002070B2E0DE49364802F048
:101460009DFC3060002800D0AAE0DB49324802F041
:1014700095FC3060002828D001202D4E0100372235
:10148000B154D64F052139703821705472B63100ED
:10149000283183B06846142202F0C0FC0EBC300034
:1014A000143000F02DFC62B6380000F0B1FC2800CA
:1014B0006070914805609624E40002951E4E029AE1
:1014C0002100300000F03EFB7AE0C5491A4802F0E6
:1014D00065FC3060002839D00120154E010037220C
:1014E000B154BE4F052139703821705472B63100A5
:1014F000283183B06846142202F090FC0EBC300004
:10150000143000F0FDFB62B6380000F081FC2800CA
:101510006070794805609624E4000295064E029AB0
:101520002100300000F00EFB4AE000BF4CD500085F
:101530008867002054D50008EC460020506B00203E
:10154000986A00205CD50008D8D40008A549DA487C
:1015500002F024FC3060002832D1B349D64802F0B2
:101560001DFC306000282BD00127D44E38003721D5
:10157000705405202821705438003821705472B6F8
:101580003100283183B06846142202F047FC0EBCBB
:101590003000143000F0B4FB62B63000283000F0A8
:1015A00037FC28006070202027545348056096249B
:1015B000E4000295C04E029A2100300000F0C2FA09
:1015C000BF480078012800D001E1BB484A490968BA
:1015D0004018001F00784F2800D0F8E0B648464970
:1015E00009684018C01E00784B2800D0EFE0B248D0
:1015F000414909684018801E00780D2800D0E6E0B7
:10160000AD483D4909684018401E00780A2800D0BE
:10161000DDE0AC4F3900A84802F0C0FBAA4C2060C6
:10162000002800D1B1E0A9480188491C0180A348E5
:10163000012137228154012138228154B549206883
:101640000860B5482268527B0270B44A23689B7BCD
:101650001370C04B2668F67B1E702668367CC670F9
:1016600046780D2E06D12268527B02700A68D21D80
:101670000A601BE086780D2E09D123685B7B03701E
:1016800023689B7B13700A6808320A600EE0C678F4
:101690000D2E0BD12668767B06702668B67B1670F9
:1016A0002268D27B1A700A6809320A6041780D29D3
:1016B00004D100783038B749486431E081780D2989
:1016C00009D101780A22514340780818B2494018DC
:1016D000B049486424E0C1780D290FD10178642213
:1016E000514342780A235A43891880780818AF4931
:1016F0004018A849486413E04C6B00200178FA2296
:1017000092005143427864235A43891882780A230D
:101710005A438918C0780818B44940189D4948644C
:10172000664E9C48406CF0629A484564BE4800682A
:10173000F16A0831884228D3F06A8021C9008842C2
:1017400002D20120B149887339005B4802F026FBC0
:1017500020602068103020608E4FF06AF864F86CCA
:10176000049020680290B148396D4418049A029997
:10177000200002F06DFB012001003722B154382116
:101780007054386DF96C4018386572B64B4C2100B6
:10179000283183B06846142202F040FB0EBC2000C2
:1017A000143000F0ADFA62B62000283000F030FBB3
:1017B000434F280078709C4805609624E400029509
:1017C0003D4E029A2100300000F0BCF93D7009B096
:1017D000F0BD00BFE4D40008D0D30008B0670020FB
:1017E00064D500086CD50008F7B506000D006948FF
:1017F00005860299C162C670854C270028370A20E9
:10180000387072B62100283183B06846142202F085
:1018100005FB0EBC2000143000F072FA62B63800EE
:1018200000F0F6FAF7BD0000E0D30008FEB582B084
:1018300006000D0000F0DCF8564886604566039906
:1018400041616946097CC170714C270028370C2022
:10185000387072B62100283183B06846142202F035
:10186000DDFA0EBC2000143000F04AFA62B63800EF
:1018700000F0CEFA05B0F0BDFEB506000D0000F098
:10188000B7F8444886604566614C27002837202019
:10189000387072B62100283183B06846142202F0F5
:1018A000BDFA0EBC2000143000F02AFA62B63800EF
:1018B00000F0AEFAF7BD0000EC460020886700207B
:1018C00008690020F0D40008546B0020BC6B002095
:1018D000F7B506000D0000F08BF82E480662456251
:1018E0006946098901854A4C27002837212038702C
:1018F00072B62100283183B06846142202F08EFAB5
:101900000EBC2000143000F0FBF962B6380000F085
:101910007FFAF7BD506B0020986A0020996A00207A
:101920003EB500F065F83A4C250028352220287095
:1019300072B62100283183B06846142202F06EFA94
:101940000EBC2000143000F0DBF962B6280000F075
:101950005FFA37BD9A6A00207CB5050000F048F8B0
:101960000C48C5702A4C260028360E20307072B6FE
:101970002100283183B06846142202F04FFA0EBCD1
:101980002000143000F0BCF962B6300000F040FADC
:1019900073BD000084630020F0FDFFFF6148007804
:1019A000704700205F4908707047000030EBFFFF70
:1019B0007CB5050000F01CF8154C260028360D20DB
:1019C00030702800C0B2A08672B62100283183B0E2
:1019D0006846142202F022FA0EBC2000143000F0F7
:1019E0008FF962B6300000F013FA73BDB02FFFFF1D
:1019F00000B54D480178012905D04178012904D16D
:101A0000807B012801D000BFF3E700BD44690020BE
:101A10008867002070B5454C0025454E2A002100FE
:101A2000300000F08FF870BD4C6B0020AC2F002010
:101A3000FEB582B006000D00FFF7DAFF3848866079
:101A400045666946097CC1703A4C27002837252035
:101A5000387072B62100283183B06846142202F033
:101A6000DDF90EBC2000143000F04AF962B63800EF
:101A700000F0CEF905B0F0BD70B5060000242500D9
:101A800029480079002802D10520050013E0012033
:101A90002949C870300080B2002802D121200500F9
:101AA00009E0320092B22249244800F0D6FF002813
:101AB00001D0112005002048C4700079002801D110
:101AC000FEF7E1FB2800C0B270BDF0B50024230092
:101AD0001D000E00ADB2B6B2B5421AD2184D1E00AE
:101AE000B6B2865D3611AE5DB4461E00B6B20227B0
:101AF00077436646D6551E00B6B2865D3607360F6A
:101B0000AD5D1E00B6B202277743D61975705B1C17
:101B1000DEE70B009BB202255D435455F0BD00008B
:101B2000846300202869002008690020D606000090
:101B3000643B00208867002044690020F062002098
:101B40000CD300081206130A1A43130C1A4300BFE1
:101B5000094205D0830705D00270401C491EF9D107
:101B6000704700001300103906D330B4140015007C
:101B700010393CC0FCD230BC490700D30CC000D5A2
:101B800004C0890002D30280801C002900D50270A5
:101B900070470268531C0360117070478160002217
:101BA0000260C2604260414A0261704700B50100B4
:101BB0008A68CB6810006438834201DB012000E0B2
:101BC000002000BD00B50100C868652801DA0120C9
:101BD00000E0002000BD00B501008A68C86890429E
:101BE00001D1012000E0002000BD00B50100C8685F
:101BF000002801D1012000E0002000BDF8B504005C
:101C00000D002000FFF7E7FF002815D1E068401C19
:101C1000E06060680126009521690F183200009984
:101C2000380002F015F96068401C6060A0686168C7
:101C3000814201DB00216160F1BDF8B584B0040090
:101C40001B4D01952000FFF7D0FF002801D0002098
:101C500028E09627FF0000260296029A3900280005
:101C6000FFF770FF1348007A00281AD12068012579
:101C70000395216908180290019F039A0299380080
:101C800002F0E6F82068401C2060E068401EE0603A
:101C900009488565A068009020680099884200DBAB
:101CA0002660019805B0F0BD000000009C4B0020AC
:101CB0003C42002044690020846300201422130069
:101CC0004B43836000230360C36043604E4B03615A
:101CD000704770B50400A568E6682800142103F079
:101CE00094FD864201D1012000E0002070BD00B5C6
:101CF0000100C868002801D1012000E0002000BDDB
:101D00000EB418B504002000FFF7E3FF002837D118
:101D10006068142103F079FD216914224243891877
:101D2000049A4A60216914224243891803AA927BCB
:101D30008A73216914224243891803AAD27BCA7389
:101D4000216914224243891803AA12890A8169462B
:101D5000097B226914234343D1542169142242434D
:101D6000891803AA127C0A74E168491CE160616861
:101D700014316160A16862688A4201DB00226260FE
:101D800001B0019810BC04B0004710B50400200059
:101D9000FFF7ADFF002801D0002034E020681421B7
:101DA00003F033FD02001948216914235343C91875
:101DB00049684160216914235343C918897B8173A1
:101DC000216914235343C918C97BC17321691423A2
:101DD0005343C91809890181216914235343C95CFC
:101DE0000170216914235343C918097C01742168C7
:101DF00014312160E168491EE160A16823688B42CB
:101E000001DB0023236010BDAC580020986900203E
:101E1000002141600A0082730A000270C17305212B
:101E2000018101210174704710B50400002C01D11B
:101E300001202AE03D20205C002805D100203C2123
:101E40006054200003F0ACFD02203D216054211DB0
:101E5000206800F0ABF90120482160543E21605415
:101E60003F2160544021605441216054422160541C
:101E700043216054442160544521605446216054FC
:101E8000472160543D216054002010BD10B5010071
:101E90003D20085C012801D0012030E002203D23D4
:101EA000C85401200B68DB6803430C68E3600B68CF
:101EB000134CA3420CD00B688024E405A34207D046
:101EC0000B68104CA34203D00B680F4CA34210D1F7
:101ED0000B689B680D4C1C402200062A0ED0802304
:101EE0005B029A420AD00B681B6818430B681860A3
:101EF00004E00B681B6818430B681860002010BDD5
:101F0000002C014000040040004001400700010097
:101F1000F8B504002068C0680090206807690225B1
:101F20002F421BD000982840002817D00220C04321
:101F30002168086101202077206880698007800F70
:101F4000002803D0200003F0AFFD05E0200003F0DF
:101F5000ACFD200003F0AAFD0020207704263742C4
:101F60001BD000983040002817D00420C0432168BF
:101F70000861257720688069C02189000140002917
:101F800003D0200003F090FD05E0200003F08DFD5C
:101F9000200003F08BFD0020207708252F421AD067
:101FA00000982840002816D00820C0432168086106
:101FB00026772068C0698007800F002803D02000A2
:101FC00003F072FD05E0200003F06FFD200003F038
:101FD0006DFD00202077102007421BD0009908409B
:101FE000002817D01020C043216808612577206899
:101FF000C069C02189000140002903D0200003F0FE
:1020000053FD05E0200003F050FD200003F04EFDDD
:1020100000202077012007420AD0009908400028BC
:1020200006D00120C04321680861200000F035FC83
:10203000822080013840002808D00098000605D58D
:10204000164821680861200003F031FDF80508D525
:102050000098000605D5124821680861200003F0A9
:1020600027FD402007420AD000990840002806D0EA
:102070004020C04321680861200003F01AFD2020A1
:1020800007420AD000990840002806D02020C0430B
:1020900021680861200003F00DFDF1BD7FDFFFFF27
:1020A000FFFEFFFFFEB504000D0000276846077025
:1020B0003C20205C012801D1022072E001263C2056
:1020C000265402203D216054206880683549014033
:1020D00035480840019001982168886028680028E8
:1020E00052D0102850D020284ED030284CD0402834
:1020F00040D050282AD0602832D0702809D08021C2
:102100004901884204D080218901884210D040E0F2
:1021100041E0EB686A68A968206800F0D0F82068A0
:10212000806877210143019101982168886032E03D
:10213000EB686A68A968206800F0C1F820688068C8
:102140008021C90101432068816024E0EA68696850
:10215000206800F085F85021206800F0A7F81AE008
:10216000EA686968206800F08DF86021206800F056
:102170009DF810E0EA686968206800F071F8402175
:10218000206800F093F806E02968206800F08EF8D7
:1021900001E0684606703D2026543C2027546846DE
:1021A0000078FEBD88FFCEFFFF00FFFF10B502687C
:1021B000244CA04206D08023DB05984202D0224B5B
:1021C000984204D170239A4313004A681A43A042EC
:1021D00012D08023DB0598420ED01B4B98420BD0C7
:1021E0001A4B984208D01A4B984205D0194B984286
:1021F00002D01A4B984203D1174B1340CA681A43B6
:1022000080239A434B69134303608A68C2620A6859
:102210008262A04208D00E4A904205D00D4A9042F8
:1022200002D00E4A904201D10A6902630122426142
:1022300004692240002A03D002690124A2430261FA
:1022400010BD0000002C01400004004000200040B0
:102250000040014000440140FFFCFFFF00480140F6
:1022600030B4056A036A0124A34303628369F0243E
:10227000A34314011C430A239D430D43846105625B
:1022800030BC704730B4056A036A1024A34303626C
:102290008369124C1C4013032343A024A5430C0163
:1022A0002C438361046230BC7047000082680A4B93
:1022B00013400B4307221A4382607047000030B47A
:1022C0008468074D25400D4315431C022C43846050
:1022D00030BC7047000000008FFFCFFFFF0FFFFFF3
:1022E000FF00FFFF30B403680C004C4303256C4330
:1022F000A3430C004C4354431C43046030BC704760
:1023000030B4C3680C004C4303256C43A3430C005A
:102310004C4354431C43C46030BC704781627047D7
:1023200070B40322C44B14000C4004256C431C59A8
:1023300007250E00360CB540AC430D002D0C0600F1
:10234000AE4026430A40042462439E5070BC70474E
:1023500081B0BA490A6802430A60096801400091E5
:10236000009901B0704710B503F0A6FB00F08DF89E
:1023700000F004FA00F0DCF900F028F900F072F93E
:1023800000F0C2F800F0E7F800F0B0F9D048FFF72D
:102390007DFD002801D000F0B7FA8B4C00222021EF
:1023A000200002F0D6FE00221021200002F0D1FE13
:1023B00000220821200002F0CCFEFA20800003F069
:1023C0009DFB01222021200002F0C3FE01221021EA
:1023D000200002F0BEFE01220821200002F0B9FE1A
:1023E000FA20400003F08AFB00200100944A11709B
:1023F0009449087002F061FB934A1421012002F015
:1024000014FC92490860924A1421012002F00DFC4C
:1024100090490860904A0421012002F006FC8F498F
:1024200008608F4A0121012002F0FFFBA9490860E2
:10243000A94A0121012002F0F8FBA8490860A84A36
:102440000421012002F0F1FBA6490860A64A002100
:10245000B34802F065FBB3490860B34A0021B348B2
:1024600002F05EFBBC490860BC4A0021BC4802F097
:1024700057FBBC490860BC4A0021BC4802F050FB35
:10248000BB49086002F02CFBFEE738B592B038215A
:102490000024220004AD2800FFF754FB1021220085
:1024A0006D462800FFF74EFB8020800003F03CFBC8
:1024B0000225049580204000079008944020099050
:1024C0000B950C950D9408200E90802080020F90A3
:1024D000C020C004109080208005119004A803F053
:1024E00057FB002801D000F00FFA0720009001955B
:1024F000029403940221684603F0B4FD002801D041
:1025000000F002FA13B030BD10B59A4C9A48206022
:10251000D24860600020A0600121E160206160611C
:10252000A061E0612062200003F00AFF002801D0D2
:1025300000F0EAF90021200004F022FB002801D07D
:1025400000F0E2F90021200004F04DFB002801D04A
:1025500000F0DAF910BD30B587B010210024220058
:1025600003AD2800FFF7EEFA0C2122006D4628008B
:10257000FFF7E8FA564DBA4828606C60AC60D44862
:10258000E8602C616C61AC612800FFF74DFC00280D
:1025900001D000F0B9F980204001039003A9280080
:1025A000FFF780FD002801D000F0AEF900940194FF
:1025B00002946946280004F04BFB002801D000F08B
:1025C000A3F907B030BD00000004005010B5C14CA5
:1025D000C1482060E120400260600020A060E0600F
:1025E00020610C216161A061E061206260620820CD
:1025F000A06280200002A063200000F089F900287A
:1026000001D000F081F90021200004F08AFB0028AD
:1026100001D000F079F90021200004F0ADFB002882
:1026200001D000F071F9200004F058FB002801D01F
:1026300000F06AF910BD000060180240341002403A
:10264000C96B0020CA6B0020D0D10008EC6A0020C2
:10265000E8D10008F06A002000D20008F46A0020E7
:1026600018D2000810B59D4C9D482060E120400222
:1026700060600020A060E06020610C216161A061C9
:10268000E061206260620820A06280200002A063F6
:10269000200000F03DF9002801D000F035F90021BC
:1026A000200004F03EFB002801D000F02DF90021AD
:1026B000200004F061FB002801D000F025F9200083
:1026C00004F00CFB002801D000F01EF910BD000042
:1026D00014660020F86A002030D20008FC6A00204E
:1026E00048D20008006B002090CF000880B57D48DC
:1026F0007D490160E1218902416000218160C16062
:1027000001610C2242618161C161016241628162A9
:1027100000F0FEF8002801D000F0F6F801BD00003E
:1027200065280008DC6A0020B4CF00087128000882
:1027300080B501206D490A6802430A6009680840B3
:1027400000900098002203210B2004F0E5FB0B20F1
:1027500004F0ECFB01BD0000E06A0020D8CF0008C7
:102760007F280008E46A0020FCCF00088D280008BC
:10277000E86A00207065002000580040F0B589B07C
:102780000C210024220006AD2800FFF7DBF91821F8
:1027900022006D462800FFF7D5F90120FFF7D8FD8C
:1027A0000220FFF7D5FD80273F023900A020C00599
:1027B000FFF7B4FD4E4E08213000FFF7AFFD1021AA
:1027C0003000FFF7ABFD20213000FFF7A7FD49499E
:1027D0000020FFF7A5FD80200690012506A829000E
:1027E0000172210041722900817206A804F0FCFBED
:1027F00000228021A020C005FFF782FD0022802159
:10280000A020C005FFF76EFD009701950294039488
:1028100004946946A020C00504F0BFFC0820009085
:1028200001950294039404946946300004F0B5FCC9
:10283000102000900195029403940494694630009E
:1028400004F0ABFC202000900195029403940494C2
:102850006946300004F0A1FC09B0F0BD6621C1005A
:10286000002C014010B50400012002F0CDF9FBE777
:1028700010B5040004F0CEFC04F004FD10BD10B54A
:10288000040004F09EFF04F0A1FFFCE710B5040073
:1028900005F05AF905F090FAFCE710B5040020683D
:1028A0001549884201D105F0C9FA206813498842C8
:1028B0000DD113480168491C0160124801680029C4
:1028C00002D00168491E01602000FDF705FD10BD22
:1028D000FFF900003461002000380140C861002089
:1028E000004400405C620020004C00403810024070
:1028F000000400500100180000100040004001409A
:102900002C6B0020306B002000B572B6FEE72E0065
:1029100010B50400002C01D1012037E0A069002887
:10292000FFD188202058002805D100208421605440
:10293000200005F0DEFA242088216050206800681D
:102940000121884321680860A06A002802D0200085
:1029500000F05AFC200000F0ABFA012801D1012060
:1029600014E0206840680A490140206841602068FE
:1029700080682A21884321688860206800680121D6
:10298000014320680160200000F0B2FC10BD00008F
:10299000FFB7FFFF38B50400002C01D101201DE076
:1029A0002420882160502068006801218843216824
:1029B0000860002520680560206845602068856003
:1029C000200005F055FB90202550882025508C20B4
:1029D0002550E566256784202554002032BD70B55A
:1029E00004000D0016008C202058202833D1002D23
:1029F00003D0300080B2002801D101202CE0A06873
:102A000080214901884207D12069002804D128008B
:102A1000C00701D501201FE00020E06620683D4985
:102A2000884211D02068406800020DD5EFF3108075
:102A3000012181F31088216809688022D2040A43A9
:102A400021680A6080F31088320092B229002000C9
:102A500000F014FD00E0022070BD70B504000E000F
:102A6000150088202058202852D1002E03D028009D
:102A700080B2002801D101204BE0A06880214901EB
:102A8000884207D12069002804D13000C00701D551
:102A900001203EE026655420255256202552002074
:102AA0009021605021218822A150E16F00291DD082
:102AB0001949E26FD1621949E26F11631849E26F57
:102AC0005163E16F88632B009BB2206802002832BB
:102AD000216DE06F02F006FC002807D01020902145
:102AE0006050202088216050012012E040202168A1
:102AF0000862EFF31080012181F310882168896852
:102B000080220A4321688A6080F31088002000E058
:102B1000022070BD0080004089360008DB360008C6
:102B200005370008FEB504002068C76920680568FD
:102B30002068806800909A483840029002980028E7
:102B40000FD1202007420CD02840002802D1009845
:102B5000C00006D5606F002802D02000616F884752
:102B60009DE10298002800D1A9E08E48009901401B
:102B7000002904D18C492940002900D19FE0390067
:102B8000C90709D5E90507D50121226811629022FC
:102B9000A25811439022A15002210F420AD0009A5C
:102BA000D20707D5226811629022A258042313434A
:102BB0009022A3500422174209D0009BDB0706D5C0
:102BC00023681A629022A25811439022A150082132
:102BD0000F420CD0AA0603D4009A1040002806D059
:102BE00020680162902020580143902021508020CD
:102BF0000001074209D0690107D5216808629020C9
:102C00002058202101439020215090202058002856
:102C100054D0202007420BD02840002802D1009831
:102C2000C00005D5606F002802D02000616F884782
:102C3000902020580190402620688068304000286D
:102C400004D1019828210140002931D0200000F052
:102C5000E7FC206880680640002E25D0EFF3108046
:102C6000012181F3108821688968402291432268FC
:102C7000916080F3108880202058002810D0884868
:102C80008021615888638020205802F0CDFB002805
:102C900014D08020205880216158896B88470DE02E
:102CA000200005F037FA09E0200005F033FA05E0CE
:102CB000200005F02FFA002090216050EFE0E06E38
:102CC000012800D0B4E01020074200D1B0E0054256
:102CD00000D1ADE02168086220688068400665D5B3
:102CE0008020205800684668300080B2002856D006
:102CF00030005C21615A80B2884250D25E20265258
:102D000020208021615809680968014000293BD1D1
:102D1000EFF31081012282F3108822681268614B60
:102D200013402268136081F31088EFF310810122B1
:102D300082F310882268926801239A4323689A607C
:102D400081F31088EFF31081012282F3108822684A
:102D5000926840239A4323689A6081F310888C21FB
:102D600060500020E066EFF31080012181F31088AD
:102D700021680968102291432268116080F310884D
:102D80008020205802F00AFB022020675C20205A95
:102D90005E21615A411A89B2200005F0BCF97EE03B
:102DA0000F08000001000010200100045C20205AE0
:102DB0005E21615A461A5E20205A002837D0300022
:102DC00080B2002833D0EFF31080012181F3108806
:102DD00021680968344A0A4021680A6080F3108833
:102DE000EFF31080012181F31088216889682F4A50
:102DF0000A4021688A6080F3108820208C2160506E
:102E00000020E0666067EFF31080012181F31088F5
:102E100021680968102291432268116080F31088AC
:102E200002202067310089B2200005F074F936E0F5
:102E300080204003074208D00099490205D5216847
:102E40000862200005F068F929E0802007420CD0D4
:102E50002840002802D10098000206D5A06F002863
:102E600002D02000A16F884719E04020074206D019
:102E70002840002803D0200000F079FC0FE0380241
:102E800005D5680003D5200005F047F907E0F801F3
:102E900005D5002D03D5200005F040F9FFE7F7BD6B
:102EA00057370008FFFEFFFFDFFEFFFFFEFFFFEFCB
:102EB000F8B584B006000027380069460870AE48AF
:102EC00031688142FFD0B2683169114372690A43A7
:102ED000F169114332681268A84B13400B43326802
:102EE000136032685268A64B1340F2681A43336885
:102EF0005A60B26903923268824203D00399326AFF
:102F00000A430392316889689E4A0A400399114333
:102F1000326891603168C96A0F229143726A0A432C
:102F20003168CA623168B34A914215D1B249096821
:102F30008907890F002905D0022905D006D3032966
:102F400006D007E03C0050E002244EE004244CE0B0
:102F500008244AE0102448E03168A84A914216D17A
:102F6000A54909680C220A40002A06D0042A08D084
:102F7000082A04D00C2A06D007E03C0035E00224E1
:102F800033E0042431E008242FE010242DE03168E0
:102F90009B4A914201D13C0027E03168994A914215
:102FA00001D13C0021E0316881421DD1924909687C
:102FB000C02212010A40002A0CD08021C9008A4296
:102FC0000CD0802109018A4206D0C02109018A4221
:102FD00006D007E03C0008E0022406E0042404E0F8
:102FE000082402E0102400E010243168814264D1FA
:102FF0002000C0B2002806D0022808D0042808D03B
:1030000008280AD00CE003F053F905000CE0B64D97
:103010000AE003F0EDF8050006E080252D0203E04C
:103020003D00012069460870002D00D1D6E028003F
:10303000AE49726A02235A43895A02F0E6FB0290B3
:103040000298716803225143884206D37068802138
:10305000490148430299884203D201206946087019
:10306000BCE02800A149726A02235A43895A02F03F
:10307000CCFB002180225200002305F051F8020011
:103080000B007068400800218018594172680023C5
:1030900005F05FF801900198C0218900884208D3AB
:1030A000019880214903884203D201983168C860A1
:1030B00094E001206946087090E080252D02F069B7
:1030C000A84247D12000C0B2002806D0022808D06C
:1030D000042808D008280AD00AE003F0E9F805001F
:1030E0000AE0814D08E003F083F8050004E003E006
:1030F0003D00012069460870002D6FD028007B49F3
:10310000726A02235A43895A02F07FFB0221484324
:10311000716849084018716802F077FB01900198C6
:10312000102813D301988021490288420ED20199B8
:10313000A2480840019949084907490F01436846D8
:103140004180684640883168C86047E00120694690
:10315000087043E02000C0B2002806D0022808D042
:10316000042811D0082813D013E003F0A1F80500BB
:1031700013E05D4D11E000BF00800040F369FFCF18
:10318000FFCFFFFFFFF4FF1103F032F8050004E06A
:1031900003E03D00012069460870002D1ED0280084
:1031A0005249726A02235A43895A02F02EFB71680F
:1031B00049084018716802F028FB01900198102816
:1031C00009D3019880214902884204D2019880B233
:1031D0003168C86002E001206946087001206A2158
:1031E0007052682170527767B7676846007805B0FB
:1031F000F0BD00BF003801405410024000440040C0
:1032000000480040004C004000B52821415C0907FF
:1032100007D5016849686A4A0A40816B1143026810
:1032200051602821415CC90707D501684968654A92
:103230000A40C16A1143026851602821415C890734
:1032400007D501684968604A0A40016B114302686A
:1032500051602821415C490707D5016849685B4AEC
:103260000A40416B1143026851602821415CC90644
:1032700007D501688968564A0A40C16B1143026844
:1032800091602821415C890607D501688968514A07
:103290000A40016C1143026891602821415C490693
:1032A00014D5016849684C4A0A40416C11430268D0
:1032B0005160416C80225203914207D101684968F4
:1032C000464A0A40816C1143026851602821415CE2
:1032D000090607D501684968BF4A0A40C16C114315
:1032E0000268516000BD00000024F40090D2000884
:1032F0007CB50500002490202C5004F069FF0600E6
:103300002868006800071ED5B448009033000022EA
:1033100080218903280000F063F8002813D0EFF320
:103320001080012181F31088296809688022914367
:103330002A68116080F3108820208821685084203A
:103340002C54032039E02868006840072BD5A34897
:103350000090330000228021C903280000F040F8CB
:10336000002820D0EFF31080012181F31088296814
:1033700009689B4A0A4029680A6080F31088EFF3C5
:103380001080012181F31088296889680122914306
:103390002A68916080F3108820208C216850842056
:1033A0002C54032009E02020882168508C2168508B
:1033B000EC662C6784202C54002076BDF0FF0000C2
:1033C000FF7FFFFFFFFFFDFFFFFFFEFFFFFFFBFF94
:1033D000FFEFFFFFFFDFFFFFFFFFEFFFFFFF9FFF9D
:1033E000FEB504000F00089D2068C0693840B8424F
:1033F00001D1012000E000206946097988423BD1D3
:103400000020C0438542EFD004F0E2FE0299401A4A
:10341000854201D3002D01D103202EE020680068F1
:103420004007E1D5802FDFD0402FDDD0082620686F
:10343000C069304000280BD020680662200000F0F0
:10344000EFF890202650002084216054012014E0E1
:10345000802000012168C96901400029C4D0216889
:103460000862200000F0DCF820209021605000204D
:1034700084216054032000E00020FEBD70B50300ED
:1034800099655C201A525E201A52002058678024E9
:1034900064019D68A5420AD11D69002D03D1794DB3
:1034A00060269D5324E0FF2560269D5320E09D6803
:1034B000002D0AD11D69002D03D1FF2560269D53E3
:1034C00016E07F2560269D5312E09D6880267605D4
:1034D000B5420AD11D69002D03D17F2560269D5379
:1034E00006E03F2560269D5302E0050060269D53BF
:1034F0009025585122208C255851EFF3108001253A
:1035000085F310881D68AD6801262E431D68AE60E6
:1035100080F31088586E8025AD05A84230D1100088
:1035200068255D5B80B2A8422AD39868A04205D185
:103530001869002802D16C48586701E06B48586749
:10354000186900280DD0EFF31080012484F310884F
:103550001C68246880256D0025431C68256080F365
:103560001088EFF31080012484F310881C68A4688D
:1035700080256D0525431C68A56080F3108829E02F
:103580009868A04205D11869002802D158485867A8
:1035900001E058485867186900280ED0EFF31080F2
:1035A000012484F310881C68246890256D0025434D
:1035B0001C68256080F310880CE0EFF31080012474
:1035C00084F310881C682468202525431C68256026
:1035D00080F31088002070BDFFFFF7FFFFFFFF01A1
:1035E000DFFEFFFFEFF31081012282F310880268F3
:1035F0001268C0239A4303681A6081F31088EFF3BE
:103600001081012282F31088026892683A4B1340BD
:103610000268936081F310882021882281507047CE
:1036200000B5EFF31081012282F31088026812685E
:10363000324B13400268136081F31088EFF310815E
:10364000012282F31088026892682D4B13400268B1
:10365000936081F31088C16E01290CD1EFF31081C2
:10366000012282F310880268126810239A430368CB
:103670001A6081F3108820218C2281500021C166BC
:10368000416700BDFF01000038B50400A56A20684D
:10369000006880061DD4002056216852EFF3108088
:1036A000012181F3108829688968802291432A6862
:1036B000916080F31088EFF31080012181F310886E
:1036C0002968096840220A4329680A6080F3108843
:1036D00002E0280002F0BBF931BD38B50400A56A4C
:1036E000280004F07BFD31BD893B000895390008B6
:1036F000953800089F370008FFFF7FFFDFFEFFFFC0
:10370000FEFFFFEFF8B50400A56A88202F588C2033
:103710002E5828688068000607D5212F05D1002083
:10372000562168522800FFF75DFF28688068400630
:1037300007D5222E05D100205E2168522800FFF710
:103740006FFF902028581021014390202950280015
:1037500004F0E0FCF1BD38B50400A56A00205E214C
:10376000685256216852280004F0D4FC31BD10B5CF
:103770000400EFF31080012181F3108821680968AB
:10378000402291432268116080F310882020882114
:1037900060500020A067200002F059F910BD70B5FC
:1037A00004006020255A8C20205822286BD12068E4
:1037B000406A0600300029000140A06D0170A06D34
:1037C000401CA0655E20205A401E5E2160525E2093
:1037D000205A00285DD1EFF31080012181F3108879
:1037E00021680968694A0A4021680A6080F31088E4
:1037F000EFF31080012181F310882168896801228C
:1038000091432268916080F3108820208C216050C1
:1038100000206067206721685D4A914210D02168CE
:10382000496809020CD5EFF31081012282F3108858
:1038300022681268D34B13402268136081F310880A
:10384000E16E01291BD1E066EFF31080012181F3C5
:10385000108821680968102291432268116080F362
:10386000108810202168C9690140002901D0216811
:1038700008625C20215A200004F04DFC09E0200081
:1038800002F0EFF805E02068806908210143206814
:10389000816170BDF8B504006020255A8C20205845
:1038A00022286BD12068406A0600A06D070028001E
:1038B00030403880A06D801CA0655E20205A401EDC
:1038C0005E2160525E20205A00285DD1EFF3108007
:1038D000012181F31088216809682C4A0A40216877
:1038E0000A6080F31088EFF31080012181F31088C3
:1038F00021688968012291432268916080F31088D1
:1039000020208C2160500020606720672168204AB9
:10391000914210D02168496809020CD5EFF310815B
:10392000012282F3108822681268964B13402268A5
:10393000136081F31088E16E01291BD1E066EFF37B
:103940001080012181F310882168096810229143B9
:103950002268116080F3108810202168C969014035
:10396000002901D0216808625C20215A200004F05F
:10397000D2FB09E0200002F074F805E020688069BD
:103980000821014320688161F1BD0000DFFEFFFFD7
:1039900000800040FEB504006020205A6946C880BF
:1039A0002068C569206807682068806802908C20BC
:1039B0002058222800D0DEE06820205A694648803E
:1039C00068464088002800D1AAE02026354200D170
:1039D000A6E02068406A6946888068468088694613
:1039E000C9880140A06D0170A06D401CA0655E20DB
:1039F000205A401E5E2160522068C0690500680799
:103A0000400F002831D02800C00709D5F80507D598
:103A1000012021680862902161580843902160507C
:103A2000022005420AD00299C90707D52168086219
:103A30009021615804220A439021625004210D42D2
:103A400009D0029AD20706D52268116290216158E6
:103A500008439021605090202058002805D0200075
:103A600004F058FB0020902160505E20205A00286E
:103A7000A6D1EFF31080012181F310882168096835
:103A8000BF4A0A4021680A6080F31088EFF3108073
:103A9000012181F3108821688968BA4A0A402168A7
:103AA0008A6080F310888C20265000206067206791
:103AB0002168B54A914210D02168496809020CD5A5
:103AC000EFF31081012282F31088226812682D4BD7
:103AD00013402268136081F31088E16E01291BD125
:103AE000E066EFF31080012181F3108821680968F6
:103AF000102291432268116080F310881020216801
:103B0000C9690140002901D0216808625C20215A5E
:103B1000200004F000FB53E7200001F0A2FF4FE774
:103B20005E20205A6946088068460088002828D010
:103B3000684600886821615A884222D2EFF31080DB
:103B4000012181F3108821688968904A0A40216820
:103B50008A6080F310888E486067EFF3108001213F
:103B600081F310882168096820220A4321680A60CD
:103B700080F3108805E020688069082101432068EF
:103B80008161F7BDFFFFFFFBF8B584B00400602042
:103B9000205A6946C8802068C5692068076820687F
:103BA000806802908C202058222800D0E0E0682015
:103BB000205A6946488068464088002800D1ACE019
:103BC0002026354200D1A8E02068406A69468880F6
:103BD000A06D0390684680886946C98801400398B3
:103BE0000180A06D801CA0655E20205A401E5E21D1
:103BF00060522068C06905006807400F002831D076
:103C00002800C00709D5F80507D5012021680862FA
:103C100090216158084390216050022005420AD04B
:103C20000299C90707D521680862902161580422CA
:103C30000A439021625004210D4209D0029AD20712
:103C400006D5226811629021615808439021605086
:103C500090202058002805D0200004F05BFA0020B6
:103C6000902160505E20205A0028A4D1EFF31080EC
:103C7000012181F3108821680968414A0A402168BE
:103C80000A6080F31088EFF31080012181F310881F
:103C9000216889683B4A0A4021688A6080F310885D
:103CA0008C2026500020606720672168364A9142A8
:103CB00010D02168496809020CD5EFF31081012268
:103CC00082F3108822681268324B13402268136016
:103CD00081F31088E16E01291BD1E066EFF31080BB
:103CE000012181F31088216809681022914322681C
:103CF000116080F3108810202168C96901400029F3
:103D000001D0216808625C20215A200004F003FAE7
:103D100051E7200001F0A5FE4DE75E20205A6946DC
:103D2000088068460088002828D0684600886821F6
:103D3000615A884222D2EFF31080012181F310886A
:103D400021688968114A0A4021688A6080F31088D6
:103D500011486067EFF31080012181F3108821681A
:103D6000096820220A4321680A6080F3108805E070
:103D700020688069082101432068816105B0F0BD99
:103D8000FFFEFFFFFEFFFFEF00800040FFFFFFEFA1
:103D90009F370008FFFFFFFB9538000870B50D78CE
:103DA000002D11D00C0004E0491C0E78964207D07B
:103DB000401C290004F014FA002805D0010023005B
:103DC0005B1C1A78002AEFD170BD4300431C0178B8
:103DD000401C0942FBD1C01A7047FEE70CB418B56D
:103DE00083B004000A0006A802900194002000900D
:103DF00002AB01A9084878441E3004F0FFF9002105
:103E0000019A1170002801D40198001B04B0019997
:103E100010BC03B0084700BF7BDDFFFF70B4103A51
:103E200003D378C9103A78C0FBD2530701D318C91D
:103E300018C001D508C908C0D20704D30B88038075
:103E4000891C801C002A01D50B78037070BC704758
:103E50008B0701D18307E1D0124205D00B78491CB2
:103E60000370401C521EF9D17047FEE7FEB50020DA
:103E700069460870FCF764F95B4F01203871FDF763
:103E8000C9FDDE4D59A12800FFF7A8FFDC4C002238
:103E90002021200001F05DF92800FFF797FF80B294
:103EA000FDF7EAFD06003000C0B200280FD1642003
:103EB000FCF79CFD060001222021200001F049F9B9
:103EC0003000C0B2002802D03000C0B22CE2FDF7B2
:103ED000A1FDCC492800FFF781FF0022202120000E
:103EE00001F037F92800FFF771FF80B2FDF7C4FD3C
:103EF0006946087068460078002810D16420FCF7F5
:103F000075FD6946087001222021200001F021F989
:103F100068460078002802D06846007804E2FA205B
:103F2000800001F0EBFD00222021200001F011F9BA
:103F3000192001F0E3FD01222021200001F009F900
:103F4000192001F0DBFDB8790028ECD0FDF762FD07
:103F5000AA4DAD492800FFF741FF00222021200093
:103F600001F0F7F82800FFF731FF80B2FDF784FD7C
:103F700007003800C0B200280FD16420FCF736FDDE
:103F8000070001222021200001F0E3F83800C0B230
:103F9000002802D03800C0B2C6E1FDF73BFDE3497E
:103FA0002800FFF71BFF00222021200001F0D1F89C
:103FB0002800FFF70BFF80B2FDF75EFD0600300022
:103FC000C0B2002814D16420FCF710FD06000122C5
:103FD0002021200001F0BDF83000C0B2002807D039
:103FE0003000C0B2A0E100BF0869002041540D00BC
:103FF000FDF710FDCE492800FFF7F0FE2800FFF77F
:10400000E5FE80B2FDF738FD0700002220212000E8
:1040100001F09FF83800C0B2002808D16420FCF7F6
:10402000E5FC070001222021200001F092F8FDF7B5
:10403000F1FCC0492800FFF7D1FE2800FFF7C6FEBB
:1040400080B2FDF719FD060000222021200001F0BA
:1040500080F83000C0B2002808D16420FCF7C6FC0C
:10406000060001222021200001F073F8FDF7D2FCA8
:10407000B1492800FFF7B2FE2800FFF7A7FE80B283
:10408000FDF7FAFC070000222021200001F061F872
:104090003800C0B2002808D16420FCF7A7FC070054
:1040A00001222021200001F054F8FDF7B3FCA34ABF
:1040B000C4492800FFF792FE2800FFF787FE80B270
:1040C000FDF7DAFC060000222021200001F041F873
:1040D0003000C0B2002808D16420FCF787FC06003D
:1040E00001222021200001F034F8FDF793FCB648AE
:1040F0000268B6492800FFF771FE2800FFF766FE48
:1041000080B2FDF7B9FC070000222021200001F059
:1041100020F83800C0B2002803D16420FCF766FC08
:104120000700FDF777FCAA492800FFF757FE280093
:10413000FFF74CFE80B2FDF79FFC06000022202115
:10414000200001F006F83000C0B2002808D1642039
:10415000FCF74CFC060001222021200000F0F9FFB2
:1041600004F036F80190FA27BF00380001F0C6FCD1
:10417000FDF750FCB3492800FFF730FE2800FFF799
:1041800025FE80B2FDF778FC6946087000222021E8
:10419000200000F0DEFF68460078002809D1642086
:1041A000FCF724FC6946087001222021200000F061
:1041B000D0FFFDF72FFCA4492800FFF70FFE2800D1
:1041C000FFF704FE80B2FDF757FC69460870002235
:1041D0002021200000F0BDFF6420FCF707FC060052
:1041E00001222021200000F0B4FF3000C0B23928A5
:1041F0000CD100206946087012E000BF643B00202B
:10420000000400500CD1000848D4000803F0E0FF7F
:104210000199401AAA498842A5D30120694608702D
:1042200000222021200000F094FFFDF7F3FBA549B8
:104230002800FFF7D3FD2800FFF7C8FD80B2FDF787
:104240001BFC6946087068460078002809D1642084
:10425000FCF7CCFB6946087001222021200000F009
:1042600078FFFA20400001F049FCFDF7D3FB9649A6
:104270002800FFF7B3FD2800FFF7A8FD80B2FDF787
:10428000FBFB06003000C0B2002803D16420FCF71D
:10429000ADFB0600FDF7BEFBA6492800FFF79EFD1B
:1042A0002800FFF793FD80B2FDF7E6FB6946087032
:1042B00000222021200000F04CFF684600780028F2
:1042C00009D16420FCF792FB694608700122202185
:1042D000200000F03EFFFDF79DFB97492800FFF707
:1042E0007DFD2800FFF772FD80B2FDF7C5FB0500DC
:1042F00000222021200000F02CFF2800C0B200285E
:1043000008D16420FCF772FB050001222021200067
:1043100000F01FFF380001F0F1FB002220212000F7
:1043200000F017FF2800C0B2FEBD00BFFCD400089B
:1043300054D4000860D400086CD4000804D50008E8
:10434000F7B582B01F000024200069460870019470
:10435000FA20800001F0D2FB3B78049A039902987E
:10436000FDF764FA03F034FF0500744E307D012838
:104370000CD07348807D332808D003F029FF401B00
:1043800070498842F1D3012069460870307D0128C8
:1043900003D12000307520000DE06949887D332865
:1043A00002D133208C7500E001200100C9B2002940
:1043B00001D0C0B203E0814909783970C0B205B0BC
:1043C000F0BD000070D300083000002028D10008A4
:1043D00078D40008F3B583B00024684604700499CB
:1043E0000398FDF749FA03F0F3FE0190534D6C7604
:1043F000534E714F3C70687E01280CD0B07D36283A
:1044000009D003F0E5FE0199401A8A498842F2D3A7
:10441000012069460870687E012802D16C76200070
:104420000CE0B07D362802D136203C7000E001203F
:104430000100C9B2002901D0C0B200E0C0B205B08D
:10444000F0BD000084D4000890D40008F7B582B015
:104450000024684604706846028A03990298FDF7B2
:1044600037FA03F0B5FE0190344DEC76344E524FDE
:104470003C70E87E01280CD0B07D362809D003F0CE
:10448000A7FE0199401A81498842F2D3012069466A
:104490000870E87E012802D1EC7620000CE0B07DA7
:1044A000362802D136203C7000E001200100C9B25C
:1044B000002901D0C0B200E0C0B205B0F0BD0000DC
:1044C000E19304009CD40008A8D40008FEB50024A1
:1044D00068460470FDF724FA03F07AFE0190174D48
:1044E0006C77174E344F3C70687F01280CD0B07D3C
:1044F000362809D003F06CFE0199401A72498842AF
:10450000F2D3012069460870687F012802D16C77D8
:1045100020000CE0B07D362802D136203C7000E04F
:1045200001200100C9B2002901D0C0B200E0C0B230
:10453000FEBD000044D1000814CF00080869002027
:1045400044690020D1070000F7B582B000242000A4
:10455000694608705D486946097A405C00280BD1BD
:10456000684680898021C900884203DA68468089CC
:10457000002801D104201CE0049A6846818968461D
:10458000007AFDF731F903F023FE0700504DE87C77
:1045900001280BD04F4E03F01BFEC01B306030686B
:1045A00049498842F2D3012069460870EC74684694
:1045B000007805B0F0BD00005A6900208463002037
:1045C00070B506000024FDF725FA434D4349280045
:1045D000FFF704FC2800FFF7F9FB80B2FDF74CFA67
:1045E00005002800C0B2002805D001203849C87352
:1045F0000F203B498875012035490870FDF70AFAFC
:104600002800C0B270BD70B505000C000020060087
:10461000334948752D482900C9B2405C002806D0AE
:104620002800C0B2FDF7C4F93000C0B200E002209B
:1046300070BD0000214E0000F7B582B000242700B5
:1046400000940498027803990298FDF7F1F903F0B9
:10465000BFFD0500FA20800001F050FA1C4EF07FEB
:10466000012809D003F0B4FD401B1E498842F5D350
:10467000012007002000B077F07F012802D1200040
:10468000F07727003800C0B205B0F0BDA10F0000E0
:1046900010B50024FDF7BEF913480C494278895C37
:1046A00000290FD00E494978002904D142780F49DA
:1046B0000F48FFF793FB0E48FFF788FB80B2FDF72A
:1046C000DBF9040010BD000011270000286B00205A
:1046D00008690020346B0020643B002080D3000870
:1046E00044690020214E000084630020D0D20008DD
:1046F000643B002010B50024E120400201F0F4F8F2
:1047000001F0DAF8FBF7DAFCE4B2200010BD10B5D6
:10471000002004007D497E4A11607E497E4A116076
:1047200002217E4A11707E4908607E490870FFF7B9
:104730009DFB0100C9B2002901D0C0B200E0C0B2A7
:1047400010BDF1B583B00020029003980090764D23
:10475000009873490860754C0098210001F055F8E5
:1047600001910098210001F050F80400704E01986A
:104770003C2101F047F83160E1273F010198390001
:1047800001F043F808003C2101F03CF8706001980A
:10479000390001F037F8B060201D072101F032F830
:1047A000B16103273D420FD12800642101F02AF8AE
:1047B000002906D12800C821490001F023F800296A
:1047C00002D1B720400001E0FF206E30844217D3B1
:1047D0002F40002F0FD12800642101F013F8002989
:1047E00006D12800C821490001F00CF8002902D1A7
:1047F000B720400001E0FF206E30241A6D1CD0E786
:104800004B4E4C4828187061F461002030613D42E5
:104810000ED12800642100F0F5FF002906D1280000
:10482000C821490000F0EEFF002901D1012000E07D
:1048300000204149C0B23022504308183169042297
:104840005143405884421FD33D420ED12800642179
:1048500000F0D8FF002906D12800C821490000F047
:10486000D1FF002901D1012000E000203249C0B26F
:104870003022504308183169042251434058241A09
:104880003069401C3061C2E7641CF4600020306273
:1048900070692A49401870613069401C3061029883
:1048A00004B0F0BDF8B506000D0014001F003A007A
:1048B00021002800164B1B689847F1BD10B5040075
:1048C000200015490968884710BD70B504000D0027
:1048D00016001B4821780906627812040A43A17861
:1048E00009021143E2780A43164951180160006831
:1048F000FFF727FF70BD72B601210A4A117062B638
:104900000221064A1170704700000000CB480008E1
:10491000386B0020F74800083C6B0020D26B002069
:10492000446B0020D16B0020B207000080510100D1
:104930008C68002094F8FFFFA8CD00086C070000E9
:10494000406B00208081557CFEB506000D001400F0
:1049500000270020009002AB220029003000FFF762
:10496000EFFCC0B2FEBD76B505000C00002601AA22
:1049700021002800FFF760FEC0B276BD38B5040004
:1049800000252000C0B2FCF7E7FF2800C0B232BD0E
:1049900070B505000C00002621002800FFF71AFD65
:1049A000C0B270BDF8B506000D001400002722004B
:1049B00092B229003000FFF749FDC0B2F2BD10B538
:1049C0000024FFF783FDC0B210BD70B505000C00D8
:1049D00000262A00210089B20020FFF7B5FDC0B2F1
:1049E00070BD70B505000C0000262A00210089B2B8
:1049F0000020FFF7A9FDC0B270BD10B50400012171
:104A00002000C0B2FFF7FFFD10BDFEE7F0B50200C9
:104A100052B2002A1CD403223D4B040064B2A40805
:104A200004256C431C59FF251600064008277E43C9
:104A3000B540AC438D01EDB202400826724395406B
:104A40002543020052B29208042462439D5022E0A2
:104A50000F24304B032205006DB22540083DAE08FF
:104A600004256E4305006DB22C40083CA4080425C3
:104A70006C431F59FF24A4461500054008246543D4
:104A80006446AC40A7438C01E4B2024008256A4367
:104A900094403C439C51F0BD80B51F48006804F031
:104AA00037FF012801D005F02AF801BD80B50021AB
:104AB0000420C043FFF7AAFF01BD00B5EFF3058056
:104AC000002802D00520C04309E0144801680029ED
:104AD00003D101210160002001E00020C04300BD9E
:104AE00010B5EFF30580002802D00520C0430DE08B
:104AF0000A4C2068012807D1FFF7D8FF0220206068
:104B000004F06CFC002001E00020C04310BD000058
:104B100000E400E01CED00E010E000E0C06A0020CE
:104B2000F8B588B006000F00140000250595EFF3D6
:104B30000580002865D13000002862D080200690D2
:104B40001820049007950020C0430390002C35D016
:104B50002068002801D020680790A069002801D0B3
:104B6000A06904900498002807D00498392804D23A
:104B7000012061680140002901D0002042E0616904
:104B8000002902D0616989080691A16800290AD02C
:104B9000E1685C2907D32169002904D061690029F3
:104BA00001D003900BE0A068002808D1E06800283D
:104BB00005D12069002802D1039500E003950398F0
:104BC00001280DD1A06802902069019004980090FE
:104BD0003B00069A0799300004F0D0FA059010E0E7
:104BE000039800280DD105A80190049800903B007F
:104BF000069A92B20799300004F0F8FA012800D022
:104C00000595059809B0F0BD38B50400EFF30580AF
:104C1000002802D00525ED4305E00025002C02D038
:104C2000200004F0B3FB280032BDF8B584B00600C4
:104C30000F00140000250295EFF3058000284BD1EA
:104C4000002E49D0002F47D00020C0430190002CF7
:104C50001ED0A06800280DD0E06850280AD3206933
:104C6000002807D0616930007843814202D30120D7
:104C700001900EE0A06800280BD1E068002808D160
:104C80002069002805D16069002802D1019500E063
:104C900001950198012809D100200090A36822699C
:104CA0003900300004F09AFF029008E001980028D3
:104CB00005D100223900300004F0D2FF02900298A2
:104CC000002809D0002C02D02068039000E0039552
:104CD0000399029805F0A1FA029805B0F0BDF7B566
:104CE00007000C001D00009700200600EFF305816F
:104CF00000291FD00099002903D0002C01D0002DDD
:104D000003D00320C04306002EE00190002301AA37
:104D10002100009805F082F8012803D00220C0434A
:104D2000060021E0019800281ED08020400533496C
:104D3000086019E00098002801D0002C03D103205E
:104D4000C043060010E000232A002100009804F070
:104D5000BDFF012808D0002D03D00120C04306006C
:104D600002E00220C04306003000FEBDFEB5060092
:104D70000C001700009600200500EFF305810029C4
:104D80001FD00099002904D0002C02D002990029DC
:104D900003D00320C04305002DE0019001AA2100AB
:104DA000009805F031F9012803D00220C043050026
:104DB00021E0019800281ED0802040050F4908609E
:104DC00019E00098002801D0002C03D10320C04333
:104DD000050010E0029A2100009805F07DF80128F6
:104DE00009D00298002803D00120C043050002E04A
:104DF0000220C04305002800FEBD000004ED00E0D5
:104E000070B504002600EFF30580002802D00525C8
:104E1000ED4309E0002E02D10325ED4304E0002517
:104E20000021300004F09EFE280070BDF1B582B074
:104E300000230868D840002800D1EBE0012508686D
:104E40002C009C40044001940198002800D1DFE030
:104E5000032648683040012803D0486830400228C3
:104E60001ED1029887681C00022044433000A040F5
:104E70008743C86884461C00022044436046A04023
:104E80003843029CA060029C67682C009C40A743AA
:104E90004C6824092C409C403C432200029C6260E8
:104EA00048683040032812D00298C7681C000220CE
:104EB00044433000A0408743886884461C00022099
:104EC00044436046A040384302000298C2604868EC
:104ED0003040022821D10298DC0804277C430019C5
:104EE000076A072000970F24A4461F0007400424E8
:104EF00067436446BC40009FA743BC460F691C0043
:104F00002040042460438740604607433A000298EB
:104F1000DC0804277C4300190262029807681C0021
:104F2000022044433000A040874348683040844614
:104F30001C00022044436046A0403843020002980F
:104F400002604868C024A4020440002C60D08E4C4B
:104F5000980804277843205800900F27BC461F006C
:104F60003000384008277843674687400098B843A8
:104F700000900298A027FF05B84201D1002510E05B
:104F80000298824A90420CD00298814A904201D104
:104F9000022506E002987F4A904201D1350000E0E8
:104FA000052500981A00164008225643B5400543CF
:104FB0009808042250432550774A1068019CA0436A
:104FC0004C68E40202D50400019820431060734C41
:104FD0002268019DAA434D68AD0202D51000019AD6
:104FE000024322606E4C2068019DA8434D68AD03CA
:104FF00002D502000198104320606A4C2268019D8E
:10500000AA434D68ED0302D51000019A02432260C5
:105010005B1C0EE7F7BDF2B582B0010000220298DA
:10502000D040002800D193E0012302981C00944056
:10503000044000940098002800D187E0524894086A
:1050400004256C43005903260F24150037002F4018
:1050500008256F432500BD4005400195A020C005EF
:10506000814201D100250FE04848814201D11D0055
:105070000AE04748814201D1022505E045488142C6
:1050800001D1350000E00525019884461700300065
:1050900038400827784385406046A84228D14148D7
:1050A0000568009FBD4305603D480568009FBD43FE
:1050B00005603A480568009FBD43056036480568AD
:1050C000009FBD43056010003500054008204543A2
:1050D0002000A84001902C48950804277D4347599B
:1050E000019DAF43844695080420454360464751DF
:1050F0000868170002256F433500BD4005430D6069
:10510000D008042568430D18D008042778430818F0
:10511000006AA446140067077F0F042467436446AF
:10512000BC40A04328628C68150002204543300033
:10513000A84084438C604868934098434860C8689E
:105140001300022463439E40B043C860521C66E7CC
:10515000F7BD00B51300DBB2002B03D00B009BB2F0
:10516000836102E00B009BB2836200BD10B4426910
:105170000B009BB213401B040C00A4B294431C43CD
:10518000846110BC704700006018024000040050A9
:1051900000080050000C00500018024004180240A3
:1051A000841802408018024010B50400002C01D180
:1051B000012050E020689B494018142100F025FB95
:1051C0008000206402202521605420680068BA49CC
:1051D00001402068016020680068A1680143E06820
:1051E00008432169014360690843A1690143E069FB
:1051F0000843216A014320680160200000F008FA9A
:10520000A0688021C901884201D100206060207916
:105210008006800E616C0860E06CA16C486060687C
:1052200000280CD06068052809D2200000F008FA98
:105230000020216D0860A06D616D486003E00020D2
:1052400020656065A0650020E06301212522A1544E
:1052500024216054002010BD70B50400002C01D141
:1052600001203EE020680068012188432168086031
:1052700020686C494018142100F0C7FA80002064AF
:105280000025206805608D48016801224023E35C09
:105290001C261E40B2400A430260200000F0B8F90C
:1052A000606C0560E06CA16C4860606800280AD002
:1052B0006068052807D2200000F0C2F9206D056063
:1052C000A06D616D486025656565A565E56225632E
:1052D0006563A563E56328002521605424202554D7
:1052E000002070BDF7B504001F0000200600242137
:1052F000615C012901D102204FE00125290024220F
:10530000A1542521615C012940D102212522A1540B
:10531000E0632068006801218843216808603B0041
:10532000029A0199200000F04BF9206B002806D06A
:10533000206800680E210143206801600BE02068AE
:1053400000680421884321680860206800680A21F9
:10535000014320680160606C0068C00306D5606C82
:105360000068802149000143606C0160206D0028C5
:1053700006D0206D0068802149000143206D016046
:105380002068006805432068056004E08021E1632F
:10539000242160542E003000C0B2FEBD70B5010063
:1053A000002901D101203BE02520085C022806D01D
:1053B0000420C863002024228854012030E00868BB
:1053C00000680E2290430A6810603D484A6C1268DB
:1053D00002404B6C1A600A68126801239A430B68FA
:1053E0001A600122354B1C6840254D5D1C262E405D
:1053F0001500B54025431D60CB6C8C6C63600B6D54
:10540000002B07D00B6D1B6818400B6D1860886D62
:105410004B6D586025200A54002024228854002017
:1054200070BD0000F8FFFDBFF8B5040000200500C6
:105430002521615C022904D00420E06301200500DD
:1054400036E0216809680E229143226811602168C4
:10545000096801229143226811601949626C12683F
:105460000A40636C1A600122144B1E68B446402641
:10547000A75D1C263E401700B740664637431F60B5
:10548000E36CA66C7360236D002B07D0236D1B6843
:105490001940236D1960A16D636D59602521625417
:1054A00024216054A06B002802D02000A16B884703
:1054B0002800C0B2F2BD00000F80FFFF04000240D0
:1054C000FFFEFFFFF8B504003C4805682068066849
:1054D0001C210420226C0A40030093402B40002B27
:1054E00019D0064217D022681268920605D42268A5
:1054F000126804239A4323681A60444A1368276C8D
:105500003940884018431060206B002854D0200098
:10551000216B884750E00222206C08401300834032
:105520002B40002B1FD016421DD02068006880063B
:1055300008D4206800680A23984323681860012073
:105540002523E05431480368276C39408A401A43C8
:105550000260002024216054E06A00282CD0200042
:10556000E16A884728E00820226C0A400300934043
:105570002B40002B20D0304000281DD02068006830
:105580000E229043226810600123204A1068276C85
:10559000BC460F0061460F401900B940014311603D
:1055A000E36325202354002024216054606B0028ED
:1055B00002D02000616B8847F1BD0000000002406E
:1055C000F0B5C46C856C6C60046D002C02D0846DE9
:1055D000456D6C600D4C27680125AC464025455D46
:1055E0001C262E406546B5403D4325600468636037
:1055F0008468102C04D10468A2600468E16003E0B0
:105600000468A1600468E260F0BD0000040002408C
:1056100010B50400206C800804214843114940184B
:1056200060642078C0B20838142100F0EEF80E490A
:10563000A16401210200D206D20E9140E16410BDA6
:1056400001798906890E04224A43084BD218026563
:10565000074A426501220B005B1E9B079B0F9A4085
:10566000826570470008024080080240FC08024042
:1056700040090240FCB587B00C001500002B01D09A
:10568000002119600390064600E0761C307804F093
:1056900001FE0028F9D1300001782D2901D02B29F5
:1056A00003D16A461170401C02E02B216A4611703A
:1056B0000194002D03D4012D01D0252D04DB002CF5
:1056C00055D00398206052E0002D0ADD102D16D130
:1056D0000178302913D1417820220A43782A0ED14B
:1056E0000AE00178302901D00A2508E0417820221B
:1056F0000A43782A02D11025801C00E00825069074
:1057000000E0401C01783029FBD0002405902B4A92
:105710007A44A83228326B465A700295049F0500DD
:105720000494264E7E44943608E0049469464978F1
:10573000471AFFB202984443E4196D1C287804F01C
:10574000B2FD029A01003000283004F0B5FD0028B7
:10575000EBD1029938002F002500049C069ABA422A
:1057600007D10198002802D0039801990860002011
:1057700022E0059ABA1A735CD21A002A11D405DC09
:10578000281A03D300F041F8A0420AD000BF00BF9E
:105790000898002802D00120089908600025ED43F0
:1057A00005E0684600782D2801D16842050001987F
:1057B000002800D00760280009B0F0BD4C7600003A
:1057C00080B50023FFF756FF02BD80B5FFE70A2230
:1057D0000021FFF7F5FF02BDF446002804D449423A
:1057E00000F013F8404260474042002905D45FD0E2
:1057F00000F00BF8404249426047494200F005F88A
:105800004942604703460B43E6D40022030A8B4219
:105810000BD203098B4219D243088B422ED2411A74
:1058200000D20146524110467047FF2209023FD084
:1058300012068B4205D3121209028B4201D31212B7
:10584000090203098B4219D300E0090AC3098B42FC
:1058500001D3CB01C01A524183098B4201D38B0182
:10586000C01A524143098B4201D34B01C01A524125
:1058700003098B4201D30B01C01A5241C3088B426A
:1058800001D3CB00C01A524183088B4201D38B0055
:10589000C01A524143088B4201D34B00C01A5241F7
:1058A000884200D3401A5241CFD201461046704779
:1058B00008B504F00DFD08BD10B56F4800686F49CC
:1058C000FFF7A3FF0400641E6D486E490160632169
:1058D000C1604460002101618160FCF7A5FA0028E5
:1058E00001D0FDF711F810BDF8B507000120674998
:1058F0000A6802430A600968084000900098644EF4
:10590000644830601020B0600024F4608020306172
:105910007461B461F4613462332070603000FFF769
:1059200043FC5D4DEE67B56201220021092001F0C4
:10593000F3FA092001F0FAFA584828606F60AC6069
:10594000EC602C610C206861AC61EC612C626C62D3
:10595000AC622800FDF71EF8002801D0FCF7D4FF48
:105960002800FCF7D5FF002802D0FCF7CDFF07E0A8
:10597000002201211B2001F0CFFA1B2001F0D6FAF2
:10598000F1BD80B54448FDF7CDF801BD80B53C4878
:10599000FCF7BEFA01BD80B53B48FCF7B9FA01BD82
:1059A00070B58EB00400342100252A0001AE30000D
:1059B000FCF7C8F820683A4988421CD1802080034F
:1059C00001900B9501A804F085FC002801D0FCF79C
:1059D0009BFF80210901334802680A430260006886
:1059E000014000910098002201210D2001F094FA5D
:1059F0000D2001F09BFA2448844211D180218902B4
:105A0000284802680A43026000680140009100983B
:105A100000220321152001F07FFA152001F086FAFB
:105A20001748844211D1802149021E4802680A4366
:105A300002600068014000910098002203211420B8
:105A400001F06AFA142001F071FA0EB070BD10B5C1
:105A5000040020681149884202D12000FAF788FF2B
:105A600010BD10B5040020680C49884202D1200006
:105A7000FAF788FF10BD00003C000020102700004E
:105A80006066002000400140AC66002038100240F3
:105A90001465002008000240F06200200038014038
:105AA000002C01404010024070477047704770471B
:105AB000704770477047FEE710B500240C48016836
:105AC000802252000A430260032004F03DFD0028BA
:105AD00002D00120040001E002F0BCF92000C0B2B5
